{
  "_format": "hh-sol-artifact-1",
  "contractName": "Masset",
  "sourceName": "contracts/masset/Masset.sol",
  "abi": [
    {
      "inputs": [
        {
          "internalType": "address",
          "name": "_nexus",
          "type": "address"
        }
      ],
      "stateMutability": "nonpayable",
      "type": "constructor"
    },
    {
      "anonymous": false,
      "inputs": [
        {
          "indexed": true,
          "internalType": "address",
          "name": "owner",
          "type": "address"
        },
        {
          "indexed": true,
          "internalType": "address",
          "name": "spender",
          "type": "address"
        },
        {
          "indexed": false,
          "internalType": "uint256",
          "name": "value",
          "type": "uint256"
        }
      ],
      "name": "Approval",
      "type": "event"
    },
    {
      "anonymous": false,
      "inputs": [
        {
          "indexed": false,
          "internalType": "uint256",
          "name": "cacheSize",
          "type": "uint256"
        }
      ],
      "name": "CacheSizeChanged",
      "type": "event"
    },
    {
      "anonymous": false,
      "inputs": [
        {
          "indexed": false,
          "internalType": "uint256",
          "name": "swapFee",
          "type": "uint256"
        },
        {
          "indexed": false,
          "internalType": "uint256",
          "name": "redemptionFee",
          "type": "uint256"
        }
      ],
      "name": "FeesChanged",
      "type": "event"
    },
    {
      "anonymous": false,
      "inputs": [
        {
          "indexed": false,
          "internalType": "address",
          "name": "forgeValidator",
          "type": "address"
        }
      ],
      "name": "ForgeValidatorChanged",
      "type": "event"
    },
    {
      "anonymous": false,
      "inputs": [
        {
          "indexed": true,
          "internalType": "address",
          "name": "minter",
          "type": "address"
        },
        {
          "indexed": false,
          "internalType": "address",
          "name": "recipient",
          "type": "address"
        },
        {
          "indexed": false,
          "internalType": "uint256",
          "name": "mAssetQuantity",
          "type": "uint256"
        },
        {
          "indexed": false,
          "internalType": "address",
          "name": "input",
          "type": "address"
        },
        {
          "indexed": false,
          "internalType": "uint256",
          "name": "inputQuantity",
          "type": "uint256"
        }
      ],
      "name": "Minted",
      "type": "event"
    },
    {
      "anonymous": false,
      "inputs": [
        {
          "indexed": true,
          "internalType": "address",
          "name": "minter",
          "type": "address"
        },
        {
          "indexed": false,
          "internalType": "address",
          "name": "recipient",
          "type": "address"
        },
        {
          "indexed": false,
          "internalType": "uint256",
          "name": "mAssetQuantity",
          "type": "uint256"
        },
        {
          "indexed": false,
          "internalType": "address[]",
          "name": "inputs",
          "type": "address[]"
        },
        {
          "indexed": false,
          "internalType": "uint256[]",
          "name": "inputQuantities",
          "type": "uint256[]"
        }
      ],
      "name": "MintedMulti",
      "type": "event"
    },
    {
      "anonymous": false,
      "inputs": [
        {
          "indexed": true,
          "internalType": "address",
          "name": "redeemer",
          "type": "address"
        },
        {
          "indexed": false,
          "internalType": "address",
          "name": "recipient",
          "type": "address"
        },
        {
          "indexed": false,
          "internalType": "uint256",
          "name": "mAssetQuantity",
          "type": "uint256"
        },
        {
          "indexed": false,
          "internalType": "address",
          "name": "output",
          "type": "address"
        },
        {
          "indexed": false,
          "internalType": "uint256",
          "name": "outputQuantity",
          "type": "uint256"
        },
        {
          "indexed": false,
          "internalType": "uint256",
          "name": "scaledFee",
          "type": "uint256"
        }
      ],
      "name": "Redeemed",
      "type": "event"
    },
    {
      "anonymous": false,
      "inputs": [
        {
          "indexed": true,
          "internalType": "address",
          "name": "redeemer",
          "type": "address"
        },
        {
          "indexed": false,
          "internalType": "address",
          "name": "recipient",
          "type": "address"
        },
        {
          "indexed": false,
          "internalType": "uint256",
          "name": "mAssetQuantity",
          "type": "uint256"
        },
        {
          "indexed": false,
          "internalType": "address[]",
          "name": "outputs",
          "type": "address[]"
        },
        {
          "indexed": false,
          "internalType": "uint256[]",
          "name": "outputQuantity",
          "type": "uint256[]"
        },
        {
          "indexed": false,
          "internalType": "uint256",
          "name": "scaledFee",
          "type": "uint256"
        }
      ],
      "name": "RedeemedMulti",
      "type": "event"
    },
    {
      "anonymous": false,
      "inputs": [
        {
          "indexed": true,
          "internalType": "address",
          "name": "swapper",
          "type": "address"
        },
        {
          "indexed": false,
          "internalType": "address",
          "name": "input",
          "type": "address"
        },
        {
          "indexed": false,
          "internalType": "address",
          "name": "output",
          "type": "address"
        },
        {
          "indexed": false,
          "internalType": "uint256",
          "name": "outputAmount",
          "type": "uint256"
        },
        {
          "indexed": false,
          "internalType": "uint256",
          "name": "scaledFee",
          "type": "uint256"
        },
        {
          "indexed": false,
          "internalType": "address",
          "name": "recipient",
          "type": "address"
        }
      ],
      "name": "Swapped",
      "type": "event"
    },
    {
      "anonymous": false,
      "inputs": [
        {
          "indexed": true,
          "internalType": "address",
          "name": "from",
          "type": "address"
        },
        {
          "indexed": true,
          "internalType": "address",
          "name": "to",
          "type": "address"
        },
        {
          "indexed": false,
          "internalType": "uint256",
          "name": "value",
          "type": "uint256"
        }
      ],
      "name": "Transfer",
      "type": "event"
    },
    {
      "anonymous": false,
      "inputs": [
        {
          "indexed": false,
          "internalType": "uint128",
          "name": "min",
          "type": "uint128"
        },
        {
          "indexed": false,
          "internalType": "uint128",
          "name": "max",
          "type": "uint128"
        }
      ],
      "name": "WeightLimitsChanged",
      "type": "event"
    },
    {
      "inputs": [
        {
          "internalType": "address",
          "name": "owner",
          "type": "address"
        },
        {
          "internalType": "address",
          "name": "spender",
          "type": "address"
        }
      ],
      "name": "allowance",
      "outputs": [
        {
          "internalType": "uint256",
          "name": "",
          "type": "uint256"
        }
      ],
      "stateMutability": "view",
      "type": "function"
    },
    {
      "inputs": [],
      "name": "ampData",
      "outputs": [
        {
          "internalType": "uint64",
          "name": "initialA",
          "type": "uint64"
        },
        {
          "internalType": "uint64",
          "name": "targetA",
          "type": "uint64"
        },
        {
          "internalType": "uint64",
          "name": "rampStartTime",
          "type": "uint64"
        },
        {
          "internalType": "uint64",
          "name": "rampEndTime",
          "type": "uint64"
        }
      ],
      "stateMutability": "view",
      "type": "function"
    },
    {
      "inputs": [
        {
          "internalType": "address",
          "name": "spender",
          "type": "address"
        },
        {
          "internalType": "uint256",
          "name": "amount",
          "type": "uint256"
        }
      ],
      "name": "approve",
      "outputs": [
        {
          "internalType": "bool",
          "name": "",
          "type": "bool"
        }
      ],
      "stateMutability": "nonpayable",
      "type": "function"
    },
    {
      "inputs": [
        {
          "internalType": "uint256",
          "name": "",
          "type": "uint256"
        }
      ],
      "name": "bAssetData",
      "outputs": [
        {
          "internalType": "uint128",
          "name": "ratio",
          "type": "uint128"
        },
        {
          "internalType": "uint128",
          "name": "vaultBalance",
          "type": "uint128"
        }
      ],
      "stateMutability": "view",
      "type": "function"
    },
    {
      "inputs": [
        {
          "internalType": "address",
          "name": "",
          "type": "address"
        }
      ],
      "name": "bAssetIndexes",
      "outputs": [
        {
          "internalType": "uint8",
          "name": "",
          "type": "uint8"
        }
      ],
      "stateMutability": "view",
      "type": "function"
    },
    {
      "inputs": [
        {
          "internalType": "uint256",
          "name": "",
          "type": "uint256"
        }
      ],
      "name": "bAssetPersonal",
      "outputs": [
        {
          "internalType": "address",
          "name": "addr",
          "type": "address"
        },
        {
          "internalType": "address",
          "name": "integrator",
          "type": "address"
        },
        {
          "internalType": "bool",
          "name": "hasTxFee",
          "type": "bool"
        },
        {
          "internalType": "enum MassetStructs.BassetStatus",
          "name": "status",
          "type": "uint8"
        }
      ],
      "stateMutability": "view",
      "type": "function"
    },
    {
      "inputs": [
        {
          "internalType": "address",
          "name": "account",
          "type": "address"
        }
      ],
      "name": "balanceOf",
      "outputs": [
        {
          "internalType": "uint256",
          "name": "",
          "type": "uint256"
        }
      ],
      "stateMutability": "view",
      "type": "function"
    },
    {
      "inputs": [],
      "name": "basket",
      "outputs": [
        {
          "internalType": "bool",
          "name": "undergoingRecol",
          "type": "bool"
        },
        {
          "internalType": "bool",
          "name": "failed",
          "type": "bool"
        }
      ],
      "stateMutability": "view",
      "type": "function"
    },
    {
      "inputs": [],
      "name": "cacheSize",
      "outputs": [
        {
          "internalType": "uint256",
          "name": "",
          "type": "uint256"
        }
      ],
      "stateMutability": "view",
      "type": "function"
    },
    {
      "inputs": [],
      "name": "collectInterest",
      "outputs": [
        {
          "internalType": "uint256",
          "name": "mintAmount",
          "type": "uint256"
        },
        {
          "internalType": "uint256",
          "name": "newSupply",
          "type": "uint256"
        }
      ],
      "stateMutability": "nonpayable",
      "type": "function"
    },
    {
      "inputs": [],
      "name": "collectPlatformInterest",
      "outputs": [
        {
          "internalType": "uint256",
          "name": "mintAmount",
          "type": "uint256"
        },
        {
          "internalType": "uint256",
          "name": "newSupply",
          "type": "uint256"
        }
      ],
      "stateMutability": "nonpayable",
      "type": "function"
    },
    {
      "inputs": [],
      "name": "decimals",
      "outputs": [
        {
          "internalType": "uint8",
          "name": "",
          "type": "uint8"
        }
      ],
      "stateMutability": "view",
      "type": "function"
    },
    {
      "inputs": [
        {
          "internalType": "address",
          "name": "spender",
          "type": "address"
        },
        {
          "internalType": "uint256",
          "name": "subtractedValue",
          "type": "uint256"
        }
      ],
      "name": "decreaseAllowance",
      "outputs": [
        {
          "internalType": "bool",
          "name": "",
          "type": "bool"
        }
      ],
      "stateMutability": "nonpayable",
      "type": "function"
    },
    {
      "inputs": [],
      "name": "forgeValidator",
      "outputs": [
        {
          "internalType": "contract IInvariantValidator",
          "name": "",
          "type": "address"
        }
      ],
      "stateMutability": "view",
      "type": "function"
    },
    {
      "inputs": [],
      "name": "getBasket",
      "outputs": [
        {
          "internalType": "bool",
          "name": "",
          "type": "bool"
        },
        {
          "internalType": "bool",
          "name": "",
          "type": "bool"
        }
      ],
      "stateMutability": "view",
      "type": "function"
    },
    {
      "inputs": [
        {
          "internalType": "address",
          "name": "_bAsset",
          "type": "address"
        }
      ],
      "name": "getBasset",
      "outputs": [
        {
          "components": [
            {
              "internalType": "address",
              "name": "addr",
              "type": "address"
            },
            {
              "internalType": "address",
              "name": "integrator",
              "type": "address"
            },
            {
              "internalType": "bool",
              "name": "hasTxFee",
              "type": "bool"
            },
            {
              "internalType": "enum MassetStructs.BassetStatus",
              "name": "status",
              "type": "uint8"
            }
          ],
          "internalType": "struct MassetStructs.BassetPersonal",
          "name": "personal",
          "type": "tuple"
        },
        {
          "components": [
            {
              "internalType": "uint128",
              "name": "ratio",
              "type": "uint128"
            },
            {
              "internalType": "uint128",
              "name": "vaultBalance",
              "type": "uint128"
            }
          ],
          "internalType": "struct MassetStructs.BassetData",
          "name": "data",
          "type": "tuple"
        }
      ],
      "stateMutability": "view",
      "type": "function"
    },
    {
      "inputs": [],
      "name": "getBassets",
      "outputs": [
        {
          "components": [
            {
              "internalType": "address",
              "name": "addr",
              "type": "address"
            },
            {
              "internalType": "address",
              "name": "integrator",
              "type": "address"
            },
            {
              "internalType": "bool",
              "name": "hasTxFee",
              "type": "bool"
            },
            {
              "internalType": "enum MassetStructs.BassetStatus",
              "name": "status",
              "type": "uint8"
            }
          ],
          "internalType": "struct MassetStructs.BassetPersonal[]",
          "name": "personal",
          "type": "tuple[]"
        },
        {
          "components": [
            {
              "internalType": "uint128",
              "name": "ratio",
              "type": "uint128"
            },
            {
              "internalType": "uint128",
              "name": "vaultBalance",
              "type": "uint128"
            }
          ],
          "internalType": "struct MassetStructs.BassetData[]",
          "name": "data",
          "type": "tuple[]"
        }
      ],
      "stateMutability": "view",
      "type": "function"
    },
    {
      "inputs": [],
      "name": "getConfig",
      "outputs": [
        {
          "components": [
            {
              "internalType": "uint256",
              "name": "a",
              "type": "uint256"
            },
            {
              "components": [
                {
                  "internalType": "uint128",
                  "name": "min",
                  "type": "uint128"
                },
                {
                  "internalType": "uint128",
                  "name": "max",
                  "type": "uint128"
                }
              ],
              "internalType": "struct MassetStructs.WeightLimits",
              "name": "limits",
              "type": "tuple"
            }
          ],
          "internalType": "struct MassetStructs.InvariantConfig",
          "name": "config",
          "type": "tuple"
        }
      ],
      "stateMutability": "view",
      "type": "function"
    },
    {
      "inputs": [
        {
          "internalType": "address[]",
          "name": "_inputs",
          "type": "address[]"
        },
        {
          "internalType": "uint256[]",
          "name": "_inputQuantities",
          "type": "uint256[]"
        }
      ],
      "name": "getMintMultiOutput",
      "outputs": [
        {
          "internalType": "uint256",
          "name": "mintOutput",
          "type": "uint256"
        }
      ],
      "stateMutability": "view",
      "type": "function"
    },
    {
      "inputs": [
        {
          "internalType": "address",
          "name": "_input",
          "type": "address"
        },
        {
          "internalType": "uint256",
          "name": "_inputQuantity",
          "type": "uint256"
        }
      ],
      "name": "getMintOutput",
      "outputs": [
        {
          "internalType": "uint256",
          "name": "mintOutput",
          "type": "uint256"
        }
      ],
      "stateMutability": "view",
      "type": "function"
    },
    {
      "inputs": [
        {
          "internalType": "address[]",
          "name": "_outputs",
          "type": "address[]"
        },
        {
          "internalType": "uint256[]",
          "name": "_outputQuantities",
          "type": "uint256[]"
        }
      ],
      "name": "getRedeemExactBassetsOutput",
      "outputs": [
        {
          "internalType": "uint256",
          "name": "mAssetQuantity",
          "type": "uint256"
        }
      ],
      "stateMutability": "view",
      "type": "function"
    },
    {
      "inputs": [
        {
          "internalType": "address",
          "name": "_output",
          "type": "address"
        },
        {
          "internalType": "uint256",
          "name": "_mAssetQuantity",
          "type": "uint256"
        }
      ],
      "name": "getRedeemOutput",
      "outputs": [
        {
          "internalType": "uint256",
          "name": "bAssetOutput",
          "type": "uint256"
        }
      ],
      "stateMutability": "view",
      "type": "function"
    },
    {
      "inputs": [
        {
          "internalType": "address",
          "name": "_input",
          "type": "address"
        },
        {
          "internalType": "address",
          "name": "_output",
          "type": "address"
        },
        {
          "internalType": "uint256",
          "name": "_inputQuantity",
          "type": "uint256"
        }
      ],
      "name": "getSwapOutput",
      "outputs": [
        {
          "internalType": "uint256",
          "name": "swapOutput",
          "type": "uint256"
        }
      ],
      "stateMutability": "view",
      "type": "function"
    },
    {
      "inputs": [
        {
          "internalType": "address",
          "name": "_bAsset",
          "type": "address"
        },
        {
          "internalType": "bool",
          "name": "_belowPeg",
          "type": "bool"
        }
      ],
      "name": "handlePegLoss",
      "outputs": [],
      "stateMutability": "nonpayable",
      "type": "function"
    },
    {
      "inputs": [
        {
          "internalType": "address",
          "name": "spender",
          "type": "address"
        },
        {
          "internalType": "uint256",
          "name": "addedValue",
          "type": "uint256"
        }
      ],
      "name": "increaseAllowance",
      "outputs": [
        {
          "internalType": "bool",
          "name": "",
          "type": "bool"
        }
      ],
      "stateMutability": "nonpayable",
      "type": "function"
    },
    {
      "inputs": [
        {
          "internalType": "string",
          "name": "_nameArg",
          "type": "string"
        },
        {
          "internalType": "string",
          "name": "_symbolArg",
          "type": "string"
        },
        {
          "internalType": "address",
          "name": "_forgeValidator",
          "type": "address"
        },
        {
          "components": [
            {
              "internalType": "address",
              "name": "addr",
              "type": "address"
            },
            {
              "internalType": "address",
              "name": "integrator",
              "type": "address"
            },
            {
              "internalType": "bool",
              "name": "hasTxFee",
              "type": "bool"
            },
            {
              "internalType": "enum MassetStructs.BassetStatus",
              "name": "status",
              "type": "uint8"
            }
          ],
          "internalType": "struct MassetStructs.BassetPersonal[]",
          "name": "_bAssets",
          "type": "tuple[]"
        },
        {
          "components": [
            {
              "internalType": "uint256",
              "name": "a",
              "type": "uint256"
            },
            {
              "components": [
                {
                  "internalType": "uint128",
                  "name": "min",
                  "type": "uint128"
                },
                {
                  "internalType": "uint128",
                  "name": "max",
                  "type": "uint128"
                }
              ],
              "internalType": "struct MassetStructs.WeightLimits",
              "name": "limits",
              "type": "tuple"
            }
          ],
          "internalType": "struct MassetStructs.InvariantConfig",
          "name": "_config",
          "type": "tuple"
        }
      ],
      "name": "initialize",
      "outputs": [],
      "stateMutability": "nonpayable",
      "type": "function"
    },
    {
      "inputs": [],
      "name": "maxBassets",
      "outputs": [
        {
          "internalType": "uint8",
          "name": "",
          "type": "uint8"
        }
      ],
      "stateMutability": "view",
      "type": "function"
    },
    {
      "inputs": [
        {
          "internalType": "address[]",
          "name": "_bAssets",
          "type": "address[]"
        },
        {
          "internalType": "address",
          "name": "_newIntegration",
          "type": "address"
        }
      ],
      "name": "migrateBassets",
      "outputs": [],
      "stateMutability": "nonpayable",
      "type": "function"
    },
    {
      "inputs": [
        {
          "internalType": "address",
          "name": "_input",
          "type": "address"
        },
        {
          "internalType": "uint256",
          "name": "_inputQuantity",
          "type": "uint256"
        },
        {
          "internalType": "uint256",
          "name": "_minOutputQuantity",
          "type": "uint256"
        },
        {
          "internalType": "address",
          "name": "_recipient",
          "type": "address"
        }
      ],
      "name": "mint",
      "outputs": [
        {
          "internalType": "uint256",
          "name": "mintOutput",
          "type": "uint256"
        }
      ],
      "stateMutability": "nonpayable",
      "type": "function"
    },
    {
      "inputs": [
        {
          "internalType": "address[]",
          "name": "_inputs",
          "type": "address[]"
        },
        {
          "internalType": "uint256[]",
          "name": "_inputQuantities",
          "type": "uint256[]"
        },
        {
          "internalType": "uint256",
          "name": "_minOutputQuantity",
          "type": "uint256"
        },
        {
          "internalType": "address",
          "name": "_recipient",
          "type": "address"
        }
      ],
      "name": "mintMulti",
      "outputs": [
        {
          "internalType": "uint256",
          "name": "mintOutput",
          "type": "uint256"
        }
      ],
      "stateMutability": "nonpayable",
      "type": "function"
    },
    {
      "inputs": [],
      "name": "name",
      "outputs": [
        {
          "internalType": "string",
          "name": "",
          "type": "string"
        }
      ],
      "stateMutability": "view",
      "type": "function"
    },
    {
      "inputs": [
        {
          "internalType": "address",
          "name": "_bAsset",
          "type": "address"
        }
      ],
      "name": "negateIsolation",
      "outputs": [],
      "stateMutability": "nonpayable",
      "type": "function"
    },
    {
      "inputs": [],
      "name": "nexus",
      "outputs": [
        {
          "internalType": "contract INexus",
          "name": "",
          "type": "address"
        }
      ],
      "stateMutability": "view",
      "type": "function"
    },
    {
      "inputs": [
        {
          "internalType": "address",
          "name": "_output",
          "type": "address"
        },
        {
          "internalType": "uint256",
          "name": "_mAssetQuantity",
          "type": "uint256"
        },
        {
          "internalType": "uint256",
          "name": "_minOutputQuantity",
          "type": "uint256"
        },
        {
          "internalType": "address",
          "name": "_recipient",
          "type": "address"
        }
      ],
      "name": "redeem",
      "outputs": [
        {
          "internalType": "uint256",
          "name": "outputQuantity",
          "type": "uint256"
        }
      ],
      "stateMutability": "nonpayable",
      "type": "function"
    },
    {
      "inputs": [
        {
          "internalType": "address[]",
          "name": "_outputs",
          "type": "address[]"
        },
        {
          "internalType": "uint256[]",
          "name": "_outputQuantities",
          "type": "uint256[]"
        },
        {
          "internalType": "uint256",
          "name": "_maxMassetQuantity",
          "type": "uint256"
        },
        {
          "internalType": "address",
          "name": "_recipient",
          "type": "address"
        }
      ],
      "name": "redeemExactBassets",
      "outputs": [
        {
          "internalType": "uint256",
          "name": "mAssetQuantity",
          "type": "uint256"
        }
      ],
      "stateMutability": "nonpayable",
      "type": "function"
    },
    {
      "inputs": [
        {
          "internalType": "uint256",
          "name": "_mAssetQuantity",
          "type": "uint256"
        },
        {
          "internalType": "uint256[]",
          "name": "_minOutputQuantities",
          "type": "uint256[]"
        },
        {
          "internalType": "address",
          "name": "_recipient",
          "type": "address"
        }
      ],
      "name": "redeemMasset",
      "outputs": [
        {
          "internalType": "uint256[]",
          "name": "outputQuantities",
          "type": "uint256[]"
        }
      ],
      "stateMutability": "nonpayable",
      "type": "function"
    },
    {
      "inputs": [],
      "name": "redemptionFee",
      "outputs": [
        {
          "internalType": "uint256",
          "name": "",
          "type": "uint256"
        }
      ],
      "stateMutability": "view",
      "type": "function"
    },
    {
      "inputs": [
        {
          "internalType": "uint256",
          "name": "_cacheSize",
          "type": "uint256"
        }
      ],
      "name": "setCacheSize",
      "outputs": [],
      "stateMutability": "nonpayable",
      "type": "function"
    },
    {
      "inputs": [
        {
          "internalType": "uint256",
          "name": "_swapFee",
          "type": "uint256"
        },
        {
          "internalType": "uint256",
          "name": "_redemptionFee",
          "type": "uint256"
        }
      ],
      "name": "setFees",
      "outputs": [],
      "stateMutability": "nonpayable",
      "type": "function"
    },
    {
      "inputs": [
        {
          "internalType": "address",
          "name": "_bAsset",
          "type": "address"
        },
        {
          "internalType": "bool",
          "name": "_flag",
          "type": "bool"
        }
      ],
      "name": "setTransferFeesFlag",
      "outputs": [],
      "stateMutability": "nonpayable",
      "type": "function"
    },
    {
      "inputs": [
        {
          "internalType": "uint128",
          "name": "_min",
          "type": "uint128"
        },
        {
          "internalType": "uint128",
          "name": "_max",
          "type": "uint128"
        }
      ],
      "name": "setWeightLimits",
      "outputs": [],
      "stateMutability": "nonpayable",
      "type": "function"
    },
    {
      "inputs": [
        {
          "internalType": "uint256",
          "name": "_targetA",
          "type": "uint256"
        },
        {
          "internalType": "uint256",
          "name": "_rampEndTime",
          "type": "uint256"
        }
      ],
      "name": "startRampA",
      "outputs": [],
      "stateMutability": "nonpayable",
      "type": "function"
    },
    {
      "inputs": [],
      "name": "stopRampA",
      "outputs": [],
      "stateMutability": "nonpayable",
      "type": "function"
    },
    {
      "inputs": [],
      "name": "surplus",
      "outputs": [
        {
          "internalType": "uint256",
          "name": "",
          "type": "uint256"
        }
      ],
      "stateMutability": "view",
      "type": "function"
    },
    {
      "inputs": [
        {
          "internalType": "address",
          "name": "_input",
          "type": "address"
        },
        {
          "internalType": "address",
          "name": "_output",
          "type": "address"
        },
        {
          "internalType": "uint256",
          "name": "_inputQuantity",
          "type": "uint256"
        },
        {
          "internalType": "uint256",
          "name": "_minOutputQuantity",
          "type": "uint256"
        },
        {
          "internalType": "address",
          "name": "_recipient",
          "type": "address"
        }
      ],
      "name": "swap",
      "outputs": [
        {
          "internalType": "uint256",
          "name": "swapOutput",
          "type": "uint256"
        }
      ],
      "stateMutability": "nonpayable",
      "type": "function"
    },
    {
      "inputs": [],
      "name": "swapFee",
      "outputs": [
        {
          "internalType": "uint256",
          "name": "",
          "type": "uint256"
        }
      ],
      "stateMutability": "view",
      "type": "function"
    },
    {
      "inputs": [],
      "name": "symbol",
      "outputs": [
        {
          "internalType": "string",
          "name": "",
          "type": "string"
        }
      ],
      "stateMutability": "view",
      "type": "function"
    },
    {
      "inputs": [],
      "name": "totalSupply",
      "outputs": [
        {
          "internalType": "uint256",
          "name": "",
          "type": "uint256"
        }
      ],
      "stateMutability": "view",
      "type": "function"
    },
    {
      "inputs": [
        {
          "internalType": "address",
          "name": "recipient",
          "type": "address"
        },
        {
          "internalType": "uint256",
          "name": "amount",
          "type": "uint256"
        }
      ],
      "name": "transfer",
      "outputs": [
        {
          "internalType": "bool",
          "name": "",
          "type": "bool"
        }
      ],
      "stateMutability": "nonpayable",
      "type": "function"
    },
    {
      "inputs": [
        {
          "internalType": "address",
          "name": "sender",
          "type": "address"
        },
        {
          "internalType": "address",
          "name": "recipient",
          "type": "address"
        },
        {
          "internalType": "uint256",
          "name": "amount",
          "type": "uint256"
        }
      ],
      "name": "transferFrom",
      "outputs": [
        {
          "internalType": "bool",
          "name": "",
          "type": "bool"
        }
      ],
      "stateMutability": "nonpayable",
      "type": "function"
    },
    {
      "inputs": [
        {
          "internalType": "address",
          "name": "_newForgeValidator",
          "type": "address"
        }
      ],
      "name": "upgradeForgeValidator",
      "outputs": [],
      "stateMutability": "nonpayable",
      "type": "function"
    },
    {
      "inputs": [],
      "name": "weightLimits",
      "outputs": [
        {
          "internalType": "uint128",
          "name": "min",
          "type": "uint128"
        },
        {
          "internalType": "uint128",
          "name": "max",
          "type": "uint128"
        }
      ],
      "stateMutability": "view",
      "type": "function"
    }
  ],
  "bytecode": "0x60a06040523480156200001157600080fd5b506040516200601e3803806200601e83398101604081905262000034916200007e565b806001600160a01b038116620000675760405162461bcd60e51b81526004016200005e90620000ae565b60405180910390fd5b60601b6001600160601b03191660805250620000e5565b60006020828403121562000090578081fd5b81516001600160a01b0381168114620000a7578182fd5b9392505050565b60208082526015908201527f4e657875732061646472657373206973207a65726f0000000000000000000000604082015260600190565b60805160601c615f0c6200011260003960008181611bd60152818161431001526143b90152615f0c6000f3fe608060405234801561001057600080fd5b506004361061030c5760003560e01c80636d5d6eb11161019d578063aa5d27e9116100e9578063cd6ef2b0116100a2578063dd62ed3e1161007c578063dd62ed3e1461069c578063e5555b8f146106af578063edc832b3146106c2578063f74bfe8e146106ca5761030c565b8063cd6ef2b01461066b578063d5bcb9b514610681578063d7d52266146106945761030c565b8063aa5d27e9146105f5578063ab06346c14610608578063af290bd414610628578063bdfbe29c1461063b578063c3f909d41461064e578063c4db7fa0146106635761030c565b8063905e891411610156578063a1c2515111610130578063a1c25151146105a7578063a3f5c1d2146105ba578063a457c2d7146105cf578063a9059cbb146105e25761030c565b8063905e89141461057957806395d89b411461058c578063969642b9146105945761030c565b80636d5d6eb1146105125780636fb3e89c1461052557806370a082311461053857806372ea90761461054b57806378aa987e1461055e5780637e8901ea146105715761030c565b80632a2fab221161025c57806344e3fa3c11610215578063598362f0116101ef578063598362f0146104d7578063674a64e0146104ef5780636bef4a8c146104f75780636c36581c1461050a5761030c565b806344e3fa3c146104b4578063458f5815146104c757806354cf2aeb146104cf5761030c565b80632a2fab221461042f5780632f91a72414610445578063313ce56714610465578063395093511461046d5780633e37bcbc1461048057806343bcfab6146104a15761030c565b806313888565116102c95780631d3ce398116102a35780631d3ce398146103dd578063213c501a146103f357806323b872dd1461040957806326bbe60a1461041c5761030c565b806313888565146103ba57806318160ddd146103c25780631820783d146103ca5761030c565b80630357359c1461031157806304de5a731461033d57806306fdde031461035d578063095ea7b3146103725780630b78f9c014610392578063119849cf146103a7575b600080fd5b61032461031f366004614c1d565b6106dd565b6040516103349493929190614f95565b60405180910390f35b61035061034b366004614a02565b61072d565b60405161033491906153eb565b610365610875565b60405161033491906153f4565b61038561038036600461493a565b610908565b60405161033491906153ce565b6103a56103a0366004614d50565b610926565b005b6103506103b536600461493a565b6109ba565b610350610a84565b610350610a8a565b6103a56103d8366004614c1d565b610a90565b6103e5610b00565b604051610334929190615212565b6103fb610c5d565b604051610334929190615c8e565b610385610417366004614868565b610c77565b6103a561042a3660046147f8565b610ced565b610437610d97565b604051610334929190615bb0565b6104586104533660046147f8565b610e4e565b6040516103349190615d27565b610458610e63565b61038561047b36600461493a565b610e6c565b61049361048e3660046147f8565b610ebb565b604051610334929190615c33565b6103506104af366004614965565b611046565b6103a56104c2366004614d50565b6110a7565b61035061112b565b610350611131565b6104df611137565b6040516103349493929190615cfc565b610350611165565b6103a5610505366004614b0c565b61116b565b6104586114f0565b6103fb610520366004614c1d565b6114f9565b6103a56105333660046149ae565b61152e565b6103506105463660046147f8565b6115ac565b610350610559366004614868565b6115cb565b61035061056c36600461493a565b61175d565b61043761184a565b6103a5610587366004614906565b6119f3565b610365611a3d565b6103a56105a23660046147f8565b611a4c565b6103a56105b5366004614bf4565b611ac7565b6105c2611bd4565b6040516103349190614f81565b6103856105dd36600461493a565b611bf8565b6103856105f036600461493a565b611c47565b610350610603366004614a6a565b611c5b565b61061b610616366004614c4d565b611d23565b60405161033491906153bb565b610350610636366004614a6a565b611d6c565b6103a5610649366004614906565b611e1a565b610656611e61565b6040516103349190615c80565b6103a5611e76565b610673611ef1565b6040516103349291906153d9565b61035061068f3660046148a8565b611f04565b6105c2611f67565b6103506106aa366004614830565b611f7c565b6103506106bd366004614a02565b611fa7565b6106736120b5565b6103506106d8366004614965565b6120c7565b603f81815481106106ed57600080fd5b6000918252602090912060029091020180546001909101546001600160a01b0391821692509081169060ff600160a01b8204811691600160a81b90041684565b600081801580159061073e57508085145b6107635760405162461bcd60e51b815260040161075a90615781565b60405180910390fd5b60006107a187878080602002602001604051908101604052809392919081815260200183836020028082843760009201919091525061211092505050565b506038549091506000906201000090046001600160a01b031663d176d69460408489896107cc612326565b6040518663ffffffff1660e01b81526004016107ec959493929190615191565b60206040518083038186803b15801561080457600080fd5b505afa158015610818573d6000803e3d6000fd5b505050506040513d601f19601f8201168201806040525081019061083c9190614c35565b905061085e603a54670de0b6b3a76400006108579190615e08565b8290612378565b610869906001615d89565b98975050505050505050565b60606036805461088490615e3f565b80601f01602080910402602001604051908101604052809291908181526020018280546108b090615e3f565b80156108fd5780601f106108d2576101008083540402835291602001916108fd565b820191906000526020600020905b8154815290600101906020018083116108e057829003601f168201915b505050505090505b90565b600061091c610915612397565b848461239b565b5060015b92915050565b61092e61244f565b603b548211156109505760405162461bcd60e51b815260040161075a906154fe565b603b548111156109725760405162461bcd60e51b815260040161075a9061571d565b603a829055603c8190556040517f64f84976d9c917a44796104a59950fdbd9b3c16a5dd348b546d738301f6bd068906109ae9084908490615bb0565b60405180910390a15050565b60008082116109db5760405162461bcd60e51b815260040161075a90615a88565b60006109e684612489565b506038549091506201000090046001600160a01b0316637910213b60408386610a0d612326565b6040518563ffffffff1660e01b8152600401610a2c94939291906151ff565b60206040518083038186803b158015610a4457600080fd5b505afa158015610a58573d6000803e3d6000fd5b505050506040513d601f19601f82011682018060405250810190610a7c9190614c35565b949350505050565b603e5481565b60355490565b610a9861244f565b6702c68af0bb140000811115610ac05760405162461bcd60e51b815260040161075a90615829565b603d8190556040517f2f5a6b1defeafd30e7568ea5c176aa0702b0af5b00ba41fa20e58b2c72e8afe790610af59083906153eb565b60405180910390a150565b606080603f604081805480602002602001604051908101604052809291908181526020016000905b82821015610bdf576000848152602090819020604080516080810182526002860290920180546001600160a01b03908116845260018201549081169484019490945260ff600160a01b8504811615159284019290925291926060840191600160a81b909104166007811115610bad57634e487b7160e01b600052602160045260246000fd5b6007811115610bcc57634e487b7160e01b600052602160045260246000fd5b8152505081526020019060010190610b28565b50505050915080805480602002602001604051908101604052809291908181526020016000905b82821015610c4f57600084815260209081902060408051808201909152908401546001600160801b038082168352600160801b9091041681830152825260019092019101610c06565b505050509050915091509091565b6045546001600160801b0380821691600160801b90041682565b6000610c848484846125b3565b610ce284610c90612397565b6001600160a01b03871660009081526034602052604081208691610cb2612397565b6001600160a01b03166001600160a01b0316815260200190815260200160002054610cdd9190615e08565b61239b565b5060015b9392505050565b610cf561244f565b603854600160b01b900460ff1615610d1f5760405162461bcd60e51b815260040161075a90615447565b6001600160a01b038116610d455760405162461bcd60e51b815260040161075a90615689565b6038805462010000600160b01b031916620100006001600160a01b038416021790556040517f2e137a82d7f7fe8a4c453313f3d08557c162ad9d78219a2e937e318b41e12f7a90610af5908390614f81565b600080610da261269e565b603e546001811115610e3f57610db9600182615e08565b6001603e559250610dca33846126cd565b307f7d3ff197e9071095bd36b627028ef523ecf46fcbf17cbde745a4b65aec88b6bc33856000604051908082528060200260200182016040528015610e19578160200160208202803683370190505b5060408051600081526020810191829052610e3694939291615050565b60405180910390a25b610e47610a8a565b9150509091565b60416020526000908152604090205460ff1681565b60385460ff1690565b600061091c610e79612397565b848460346000610e87612397565b6001600160a01b03908116825260208083019390935260409182016000908120918b1681529252902054610cdd9190615d89565b610ec36145a3565b610ecb6145cb565b6001600160a01b038316600090815260416020526040902054603f805460ff9092169182908110610f0c57634e487b7160e01b600052603260045260246000fd5b600091825260209182902060408051608081018252600290930290910180546001600160a01b03908116845260018201549081169484019490945260ff600160a01b8504811615159284019290925291926060840191600160a81b909104166007811115610f8a57634e487b7160e01b600052602160045260246000fd5b6007811115610fa957634e487b7160e01b600052602160045260246000fd5b815250509250836001600160a01b031683600001516001600160a01b031614610fe45760405162461bcd60e51b815260040161075a906154d7565b60408160ff168154811061100857634e487b7160e01b600052603260045260246000fd5b6000918252602091829020604080518082019091529101546001600160801b038082168352600160801b909104169181019190915292949293505050565b603854600090610100900460ff166110705760405162461bcd60e51b815260040161075a90615aa8565b6038805461ff0019169055611083612781565b61108f858585856127c5565b6038805461ff00191661010017905595945050505050565b6110af61244f565b73__$1a38b0db2bd175b310a9a3f8697d44eb75$__63e2a5f044604484846110d5612b08565b60646040518663ffffffff1660e01b81526004016110f7959493929190615bbe565b60006040518083038186803b15801561110f57600080fd5b505af4158015611123573d6000803e3d6000fd5b505050505050565b603c5481565b603a5481565b6044546001600160401b0380821691600160401b8104821691600160801b8204811691600160c01b90041684565b603d5481565b600054610100900460ff16806111845750611184612c91565b80611192575060005460ff16155b6111ae5760405162461bcd60e51b815260040161075a90615897565b600054610100900460ff161580156111d9576000805460ff1961ff0019909116610100171660011790555b61124c89898080601f01602080910402602001604051908101604052809392919081815260200183838082843760009201919091525050604080516020601f8d018190048102820181019092528b815292508b91508a9081908401838280828437600092019190915250612c9792505050565b611254612ca7565b603880546001600160a01b038716620100000262010000600160b01b03199091161790556042805460ff1916600a17905582806112a35760405162461bcd60e51b815260040161075a906154b3565b60005b818110156113ea5760425473__$1a38b0db2bd175b310a9a3f8697d44eb75$__90637c37ca3990603f9060409060419060ff168b8b888181106112f957634e487b7160e01b600052603260045260246000fd5b61130f92602060809092020190810191506147f8565b8c8c8981811061132f57634e487b7160e01b600052603260045260246000fd5b905060800201602001602081019061134791906147f8565b6305f5e1008e8e8b81811061136c57634e487b7160e01b600052603260045260246000fd5b90506080020160400160208101906113849190614af2565b6040518963ffffffff1660e01b81526004016113a79897969594939291906152d9565b60006040518083038186803b1580156113bf57600080fd5b505af41580156113d3573d6000803e3d6000fd5b5050505080806113e290615e7a565b9150506112a6565b506000611406606485600001516114019190615dc1565b612cb8565b604080516080810182526001600160401b0392909216808352602080840182905260009284018390526060909301919091526044805467ffffffffffffffff191682176fffffffffffffffff00000000000000001916600160401b909202919091176001600160801b039081169091558582015180516045805492909401516001600160801b0319909216908316178216600160801b9190921602179055505066470de4df820000603b55660221b262dd8000603a55660110d9316ec000603c5567016345785d8a0000603d5580156114e5576000805461ff00191690555b505050505050505050565b60425460ff1681565b6040818154811061150957600080fd5b6000918252602090912001546001600160801b038082169250600160801b9091041682565b61153661244f565b60405163a5bee44b60e01b815273__$1a38b0db2bd175b310a9a3f8697d44eb75$__9063a5bee44b9061157790603f90604190889088908890600401615346565b60006040518083038186803b15801561158f57600080fd5b505af41580156115a3573d6000803e3d6000fd5b50505050505050565b6001600160a01b0381166000908152603360205260409020545b919050565b6000826001600160a01b0316846001600160a01b031614156115ff5760405162461bcd60e51b815260040161075a90615525565b6000821161161f5760405162461bcd60e51b815260040161075a90615910565b60006040805480602002602001604051908101604052809291908181526020016000905b8282101561168c57600084815260209081902060408051808201909152908401546001600160801b038082168352600160801b9091041681830152825260019092019101611643565b505050509050600061169d86612489565b50905060006116ab86612489565b509050603860029054906101000a90046001600160a01b03166001600160a01b0316630e3c01d384848489603a546116e1612326565b6040518763ffffffff1660e01b81526004016117029695949392919061514f565b604080518083038186803b15801561171957600080fd5b505afa15801561172d573d6000803e3d6000fd5b505050506040513d601f19601f820116820180604052508101906117519190614d71565b50979650505050505050565b600080821161177e5760405162461bcd60e51b815260040161075a90615a88565b600061178984612489565b50905060006117a3603a5485612ce190919063ffffffff16565b6038549091506201000090046001600160a01b03166350494dc06040846117ca8589615e08565b6117d2612326565b6040518563ffffffff1660e01b81526004016117f194939291906151ff565b60206040518083038186803b15801561180957600080fd5b505afa15801561181d573d6000803e3d6000fd5b505050506040513d601f19601f820116820180604052508101906118419190614c35565b95945050505050565b60008061185561269e565b61185d612cf6565b603854610100900460ff166118845760405162461bcd60e51b815260040161075a90615aa8565b6038805461ff0019169081905560609073__$1a38b0db2bd175b310a9a3f8697d44eb75$__90638b8029b490603f906040906201000090046001600160a01b03166118cd612326565b6040518563ffffffff1660e01b81526004016118ec9493929190615269565b60006040518083038186803b15801561190457600080fd5b505af4158015611918573d6000803e3d6000fd5b505050506040513d6000823e601f3d908101601f191682016040526119409190810190614c9e565b9093509050826119625760405162461bcd60e51b815260040161075a906157f9565b61196c33846126cd565b307f7d3ff197e9071095bd36b627028ef523ecf46fcbf17cbde745a4b65aec88b6bc338560006040519080825280602002602001820160405280156119bb578160200160208202803683370190505b50856040516119cd9493929190615050565b60405180910390a26119dd610a8a565b6038805461ff0019166101001790559293915050565b6119fb61244f565b60405163ee60ee2b60e01b815273__$1a38b0db2bd175b310a9a3f8697d44eb75$__9063ee60ee2b906110f790604390603f9060419088908890600401615c05565b60606037805461088490615e3f565b611a5461244f565b604051634c1e9da160e11b815273__$1a38b0db2bd175b310a9a3f8697d44eb75$__9063983d3b4290611a9490604390603f906041908790600401615be1565b60006040518083038186803b158015611aac57600080fd5b505af4158015611ac0573d6000803e3d6000fd5b5050505050565b611acf61244f565b604054611add906002615dc1565b611aef90670de0b6b3a7640000615da1565b826001600160801b03161115611b175760405162461bcd60e51b815260040161075a90615a1c565b604054611b2690600190615e08565b611b3890670de0b6b3a7640000615da1565b816001600160801b03161015611b605760405162461bcd60e51b815260040161075a906157ae565b6040805180820182526001600160801b038481168083528482166020909301839052604580546001600160801b031916909117909116600160801b909202919091179055517f1633022fee8dcf5a3cdeb5f1b49d5b734a3cfef7fc093e30cfdd28ddde8cd136906109ae9084908490615c8e565b7f000000000000000000000000000000000000000000000000000000000000000081565b600061091c611c05612397565b848460346000611c13612397565b6001600160a01b03908116825260208083019390935260409182016000908120918b1681529252902054610cdd9190615e08565b600061091c611c54612397565b84846125b3565b603854600090610100900460ff16611c855760405162461bcd60e51b815260040161075a90615aa8565b6038805461ff0019169055611c98612781565b611d0987878080602002602001604051908101604052809392919081815260200183836020028082843760009201919091525050604080516020808b0282810182019093528a82529093508a925089918291850190849080828437600092019190915250889250879150612d479050565b6038805461ff001916610100179055979650505050505050565b603854606090610100900460ff16611d4d5760405162461bcd60e51b815260040161075a90615aa8565b6038805461ff0019169055611d60612781565b61108f858585856131b2565b603854600090610100900460ff16611d965760405162461bcd60e51b815260040161075a90615aa8565b6038805461ff0019169055611da9612cf6565b611d0987878080602002602001604051908101604052809392919081815260200183836020028082843760009201919091525050604080516020808b0282810182019093528a82529093508a92508991829185019084908082843760009201919091525088925087915061367f9050565b611e2261244f565b604051638d18aef960e01b815273__$1a38b0db2bd175b310a9a3f8697d44eb75$__90638d18aef9906110f790603f9060419087908790600401615320565b611e696145e2565b611e71612326565b905090565b611e7e61244f565b73__$1a38b0db2bd175b310a9a3f8697d44eb75$__6318068e406044611ea2612b08565b6040518363ffffffff1660e01b8152600401611ebf929190615bb0565b60006040518083038186803b158015611ed757600080fd5b505af4158015611eeb573d6000803e3d6000fd5b50505050565b60435460ff808216916101009004169091565b603854600090610100900460ff16611f2e5760405162461bcd60e51b815260040161075a90615aa8565b6038805461ff0019169055611f41612cf6565b611f4e8686868686613aeb565b6038805461ff0019166101001790559695505050505050565b6038546201000090046001600160a01b031681565b6001600160a01b03918216600090815260346020908152604080832093909416825291909152205490565b6000818015801590611fb857508085145b611fd45760405162461bcd60e51b815260040161075a90615614565b600061201287878080602002602001604051908101604052809392919081815260200183836020028082843760009201919091525061211092505050565b506038549091506201000090046001600160a01b031663b7ecbf72604083888861203a612326565b6040518663ffffffff1660e01b815260040161205a959493929190615191565b60206040518083038186803b15801561207257600080fd5b505afa158015612086573d6000803e3d6000fd5b505050506040513d601f19601f820116820180604052508101906120aa9190614c35565b979650505050505050565b60435460ff8082169161010090041682565b603854600090610100900460ff166120f15760405162461bcd60e51b815260040161075a90615aa8565b6038805461ff0019169055612104612cf6565b61108f85858585613fe9565b80516060908190806001600160401b0381111561213d57634e487b7160e01b600052604160045260246000fd5b604051908082528060200260200182016040528015612166578160200160208202803683370190505b509250806001600160401b0381111561218f57634e487b7160e01b600052604160045260246000fd5b6040519080825280602002602001820160405280156121c857816020015b6121b56145a3565b8152602001906001900390816121ad5790505b50915060005b8181101561231f576122068582815181106121f957634e487b7160e01b600052603260045260246000fd5b6020026020010151612489565b85838151811061222657634e487b7160e01b600052603260045260246000fd5b6020026020010185848151811061224d57634e487b7160e01b600052603260045260246000fd5b602090810291909101019190915260ff9091169052600061226f826001615d89565b90505b8281101561230c5785818151811061229a57634e487b7160e01b600052603260045260246000fd5b60200260200101516001600160a01b03168683815181106122cb57634e487b7160e01b600052603260045260246000fd5b60200260200101516001600160a01b031614156122fa5760405162461bcd60e51b815260040161075a906159ae565b8061230481615e7a565b915050612272565b508061231781615e7a565b9150506121ce565b5050915091565b61232e6145e2565b6040518060400160405280612341612b08565b8152604080518082019091526045546001600160801b038082168352600160801b9091041660208281019190915290910152905090565b60008161238d670de0b6b3a764000085615dc1565b610ce69190615da1565b3390565b6001600160a01b0383166123c15760405162461bcd60e51b815260040161075a90615a44565b6001600160a01b0382166123e75760405162461bcd60e51b815260040161075a9061554b565b6001600160a01b0380841660008181526034602090815260408083209487168084529490915290819020849055517f8c5be1e5ebec7d5bd14f71427d1e84f3dd0314c0f7b2291e5b200ac8c7c3b925906124429085906153eb565b60405180910390a3505050565b61245761430c565b6001600160a01b0316336001600160a01b0316146124875760405162461bcd60e51b815260040161075a9061574a565b565b60006124936145a3565b6001600160a01b038316600090815260416020526040902054603f805460ff909216935090839081106124d657634e487b7160e01b600052603260045260246000fd5b600091825260209182902060408051608081018252600290930290910180546001600160a01b03908116845260018201549081169484019490945260ff600160a01b8504811615159284019290925291926060840191600160a81b90910416600781111561255457634e487b7160e01b600052602160045260246000fd5b600781111561257357634e487b7160e01b600052602160045260246000fd5b815250509050826001600160a01b031681600001516001600160a01b0316146125ae5760405162461bcd60e51b815260040161075a906154d7565b915091565b6001600160a01b0383166125d95760405162461bcd60e51b815260040161075a906159d7565b6001600160a01b0382166125ff5760405162461bcd60e51b815260040161075a90615470565b6001600160a01b03831660009081526033602052604081208054839290612627908490615e08565b90915550506001600160a01b03821660009081526033602052604081208054839290612654908490615d89565b92505081905550816001600160a01b0316836001600160a01b03167fddf252ad1be2c89b69c2b068fc378daa952ba7f163c4a11628f55a4df523b3ef8360405161244291906153eb565b336126a761439f565b6001600160a01b0316146124875760405162461bcd60e51b815260040161075a906156e6565b6001600160a01b0382166126f35760405162461bcd60e51b815260040161075a90615b79565b80603560008282546127059190615d89565b90915550506001600160a01b03821660009081526033602052604081208054839290612732908490615d89565b90915550506040516001600160a01b038316906000907fddf252ad1be2c89b69c2b068fc378daa952ba7f163c4a11628f55a4df523b3ef906127759085906153eb565b60405180910390a35050565b6040805180820190915260435460ff808216158015845261010090920416151560208301526127c25760405162461bcd60e51b815260040161075a906155c4565b50565b60006001600160a01b0382166127ed5760405162461bcd60e51b815260040161075a906158e5565b6000841161280d5760405162461bcd60e51b815260040161075a90615a88565b60006040805480602002602001604051908101604052809291908181526020016000905b8282101561287a57600084815260209081902060408051808201909152908401546001600160801b038082168352600160801b9091041681830152825260019092019101612831565b50505050905060008061288c88612489565b9150915060006128a7603a5489612ce190919063ffffffff16565b6038549091506201000090046001600160a01b03166350494dc085856128cd858d615e08565b6128d5612326565b6040518563ffffffff1660e01b81526004016128f4949392919061511e565b60206040518083038186803b15801561290c57600080fd5b505afa158015612920573d6000803e3d6000fd5b505050506040513d601f19601f820116820180604052508101906129449190614c35565b9450868510156129665760405162461bcd60e51b815260040161075a906155e6565b6129703389614426565b600061297a6144d0565b905073__$1a38b0db2bd175b310a9a3f8697d44eb75$__634e331a548785888860ff16815181106129bb57634e487b7160e01b600052603260045260246000fd5b60200260200101518b86602001516040518663ffffffff1660e01b81526004016129e9959493929190615ca8565b60006040518083038186803b158015612a0157600080fd5b505af4158015612a15573d6000803e3d6000fd5b50505050612a2286614527565b858560ff1681518110612a4557634e487b7160e01b600052603260045260246000fd5b602002602001015160200151612a5b9190615de0565b60408560ff1681548110612a7f57634e487b7160e01b600052603260045260246000fd5b600091825260209091200180546001600160801b03928316600160801b0292169190911790556040810151612ab5908390615d89565b603e55825160405133917f105ffcfe6c5fa767ff5a53039fdd9ba80ce97196d4daa0beb1bfbfa0ed838ad891612af3918b918e91908c90899061501c565b60405180910390a25050505050949350505050565b604080516080810182526044546001600160401b038082168352600160401b8204811660208401819052600160801b8304821694840194909452600160c01b90910416606082018190526000929042811115612c7e5782516040840151600080612b7b6001600160401b03841642615e08565b612b858487615e1f565b6001600160401b031691509150836001600160401b0316866001600160401b03161115612c1c57612bb68386615e1f565b6001600160401b0316836001600160401b031642612bd49190615e08565b612bde8689615e1f565b6001600160401b0316612bf19190615dc1565b612bfb9190615da1565b612c0e906001600160401b038616615d89565b975050505050505050610905565b612c268386615e1f565b6001600160401b0316836001600160401b031642612c449190615e08565b612c4e8887615e1f565b6001600160401b0316612c619190615dc1565b612c6b9190615da1565b612c0e906001600160401b038616615e08565b506001600160401b031691506109059050565b303b1590565b612ca38282601261454c565b5050565b6038805461ff001916610100179055565b6000600160401b8210612cdd5760405162461bcd60e51b815260040161075a90615851565b5090565b6000610ce68383670de0b6b3a764000061458c565b6040805180820190915260435460ff8082161580158085526101009093049091161515602084015290612d2b57508060200151155b6127c25760405162461bcd60e51b815260040161075a906157d6565b60006001600160a01b038216612d6f5760405162461bcd60e51b815260040161075a906158e5565b83518015801590612d805750855181145b612d9c5760405162461bcd60e51b815260040161075a90615781565b60008411612dbc5760405162461bcd60e51b815260040161075a90615a88565b600080612dc888612110565b6040805481516020808302820181018452828252949650929450600093849084015b82821015612e3357600084815260209081902060408051808201909152908401546001600160801b038082168352600160801b9091041681830152825260019092019101612dea565b50506038549293506000926201000090046001600160a01b0316915063d176d694905083868c612e61612326565b6040518563ffffffff1660e01b8152600401612e8094939291906150d5565b60206040518083038186803b158015612e9857600080fd5b505afa158015612eac573d6000803e3d6000fd5b505050506040513d601f19601f82011682018060405250810190612ed09190614c35565b9050612eeb603a54670de0b6b3a76400006108579190615e08565b95506000612ef98288615e08565b905060008711612f1b5760405162461bcd60e51b815260040161075a90615b0d565b612f26600188615d89565b965088871115612f485760405162461bcd60e51b815260040161075a90615b44565b612f523388614426565b6000612f5c6144d0565b9050818160400151612f6e9190615d89565b603e5560005b87811015613159576000878281518110612f9e57634e487b7160e01b600052603260045260246000fd5b6020026020010151905073__$1a38b0db2bd175b310a9a3f8697d44eb75$__634e331a548e8481518110612fe257634e487b7160e01b600052603260045260246000fd5b602002602001015189858151811061300a57634e487b7160e01b600052603260045260246000fd5b6020026020010151898560ff168151811061303557634e487b7160e01b600052603260045260246000fd5b60200260200101518f88602001516040518663ffffffff1660e01b8152600401613063959493929190615ca8565b60006040518083038186803b15801561307b57600080fd5b505af415801561308f573d6000803e3d6000fd5b505050506130c38d83815181106130b657634e487b7160e01b600052603260045260246000fd5b6020026020010151614527565b868260ff16815181106130e657634e487b7160e01b600052603260045260246000fd5b6020026020010151602001516130fc9190615de0565b60408260ff168154811061312057634e487b7160e01b600052603260045260246000fd5b600091825260209091200180546001600160801b03928316600160801b029216919091179055508061315181615e7a565b915050612f74565b50336001600160a01b03167fdf5bf345d5d6eedd0e8667d799d60af65d7127e3b0417e04bef4d954d2a4750e8a8a8f8f8760405161319b959493929190615089565b60405180910390a250505050505050949350505050565b60606001600160a01b0382166131da5760405162461bcd60e51b815260040161075a906158e5565b600085116131fa5760405162461bcd60e51b815260040161075a90615a88565b6000613211603c5487612ce190919063ffffffff16565b9050600061321f8288615e08565b905061322b3388614426565b60006132356144d0565b90508281604001516132479190615d89565b603e55805160009061325a908a90615d89565b905060006040805480602002602001604051908101604052809291908181526020016000905b828210156132c957600084815260209081902060408051808201909152908401546001600160801b038082168352600160801b9091041681830152825260019092019101613280565b5050505090506000815190506000816001600160401b038111156132fd57634e487b7160e01b600052604160045260246000fd5b604051908082528060200260200182016040528015613326578160200160208202803683370190505b509050816001600160401b0381111561334f57634e487b7160e01b600052604160045260246000fd5b604051908082528060200260200182016040528015613378578160200160208202803683370190505b50975060005b8281101561363d57600085888684815181106133aa57634e487b7160e01b600052603260045260246000fd5b6020026020010151602001516001600160801b03166133c99190615dc1565b6133d39190615da1565b905080156133e9576133e6600182615e08565b90505b8c8c8381811061340957634e487b7160e01b600052603260045260246000fd5b9050602002013581101561342f5760405162461bcd60e51b815260040161075a906155e6565b808a838151811061345057634e487b7160e01b600052603260045260246000fd5b602002602001018181525050603f828154811061347d57634e487b7160e01b600052603260045260246000fd5b600091825260209091206002909102015483516001600160a01b03909116908490849081106134bc57634e487b7160e01b600052603260045260246000fd5b60200260200101906001600160a01b031690816001600160a01b03168152505073__$1a38b0db2bd175b310a9a3f8697d44eb75$__634e331a5482603f858154811061351857634e487b7160e01b600052603260045260246000fd5b906000526020600020906002020188868151811061354657634e487b7160e01b600052603260045260246000fd5b60200260200101518f8c602001516040518663ffffffff1660e01b8152600401613574959493929190615ce7565b60006040518083038186803b15801561358c57600080fd5b505af41580156135a0573d6000803e3d6000fd5b505050506135ad81614527565b8583815181106135cd57634e487b7160e01b600052603260045260246000fd5b6020026020010151602001516135e39190615de0565b6040838154811061360457634e487b7160e01b600052603260045260246000fd5b600091825260209091200180546001600160801b03928316600160801b029216919091179055508061363581615e7a565b91505061337e565b50336001600160a01b03167fdf5bf345d5d6eedd0e8667d799d60af65d7127e3b0417e04bef4d954d2a4750e8a8e848c8c60405161319b959493929190615089565b60006001600160a01b0382166136a75760405162461bcd60e51b815260040161075a906158e5565b835180158015906136b85750855181145b6136d45760405162461bcd60e51b815260040161075a90615614565b6000806136e088612110565b6040805481516020808302820181018452828252949650929450600093849084015b8282101561374b57600084815260209081902060408051808201909152908401546001600160801b038082168352600160801b9091041681830152825260019092019101613702565b505050509050600061375b6144d0565b90506000856001600160401b0381111561378557634e487b7160e01b600052604160045260246000fd5b6040519080825280602002602001820160405280156137ae578160200160208202803683370190505b50905060005b868110156139b85760008b82815181106137de57634e487b7160e01b600052603260045260246000fd5b6020026020010151905060008111156139a557600087838151811061381357634e487b7160e01b600052603260045260246000fd5b602002602001015190506000868260ff168151811061384257634e487b7160e01b600052603260045260246000fd5b60200260200101519050600088858151811061386e57634e487b7160e01b600052603260045260246000fd5b60200260200101519050600073__$1a38b0db2bd175b310a9a3f8697d44eb75$__634e3d3913838560000151888c602001516040518563ffffffff1660e01b81526004016138bf9493929190615c4e565b60206040518083038186803b1580156138d757600080fd5b505af41580156138eb573d6000803e3d6000fd5b505050506040513d601f19601f8201168201806040525081019061390f9190614c35565b90508087878151811061393257634e487b7160e01b600052603260045260246000fd5b60200260200101818152505061394781614527565b83602001516139569190615d5e565b60408560ff168154811061397a57634e487b7160e01b600052603260045260246000fd5b600091825260209091200180546001600160801b03928316600160801b029216919091179055505050505b50806139b081615e7a565b9150506137b4565b506038546201000090046001600160a01b031663b7ecbf728487846139db612326565b6040518563ffffffff1660e01b81526004016139fa94939291906150d5565b60206040518083038186803b158015613a1257600080fd5b505afa158015613a26573d6000803e3d6000fd5b505050506040513d601f19601f82011682018060405250810190613a4a9190614c35565b965088871015613a6c5760405162461bcd60e51b815260040161075a9061558d565b60008711613a8c5760405162461bcd60e51b815260040161075a9061593f565b613a9688886126cd565b336001600160a01b03167f7d3ff197e9071095bd36b627028ef523ecf46fcbf17cbde745a4b65aec88b6bc89898e8e604051613ad59493929190615050565b60405180910390a2505050505050949350505050565b60006001600160a01b038216613b135760405162461bcd60e51b815260040161075a906158e5565b846001600160a01b0316866001600160a01b03161415613b455760405162461bcd60e51b815260040161075a90615525565b60008411613b655760405162461bcd60e51b815260040161075a90615910565b60006040805480602002602001604051908101604052809291908181526020016000905b82821015613bd257600084815260209081902060408051808201909152908401546001600160801b038082168352600160801b9091041681830152825260019092019101613b89565b505050509050600080613be489612489565b91509150600080613bf48a612489565b915091506000613c026144d0565b9050600073__$1a38b0db2bd175b310a9a3f8697d44eb75$__634e3d391386898960ff1681518110613c4457634e487b7160e01b600052603260045260246000fd5b6020026020010151600001518e86602001516040518563ffffffff1660e01b8152600401613c759493929190615c4e565b60206040518083038186803b158015613c8d57600080fd5b505af4158015613ca1573d6000803e3d6000fd5b505050506040513d601f19601f82011682018060405250810190613cc59190614c35565b9050613cd081614527565b878760ff1681518110613cf357634e487b7160e01b600052603260045260246000fd5b602002602001015160200151613d099190615d5e565b60408760ff1681548110613d2d57634e487b7160e01b600052603260045260246000fd5b9060005260206000200160000160106101000a8154816001600160801b0302191690836001600160801b031602179055506000603860029054906101000a90046001600160a01b03166001600160a01b0316630e3c01d389898886603a54613d93612326565b6040518763ffffffff1660e01b8152600401613db49695949392919061514f565b604080518083038186803b158015613dcb57600080fd5b505afa158015613ddf573d6000803e3d6000fd5b505050506040513d601f19601f82011682018060405250810190613e039190614d71565b90995090508a891015613e285760405162461bcd60e51b815260040161075a906156af565b60008911613e485760405162461bcd60e51b815260040161075a90615adf565b73__$1a38b0db2bd175b310a9a3f8697d44eb75$__634e331a548a868b8960ff1681518110613e8757634e487b7160e01b600052603260045260246000fd5b60200260200101518e88602001516040518663ffffffff1660e01b8152600401613eb5959493929190615ca8565b60006040518083038186803b158015613ecd57600080fd5b505af4158015613ee1573d6000803e3d6000fd5b50505050613eee89614527565b888660ff1681518110613f1157634e487b7160e01b600052603260045260246000fd5b602002602001015160200151613f279190615de0565b60408660ff1681548110613f4b57634e487b7160e01b600052603260045260246000fd5b600091825260209091200180546001600160801b03928316600160801b0292169190911790556040830151613f81908290615d89565b603e81905550336001600160a01b03167f1eeaa4acf3c225a4033105c2647625dbb298dec93b14e16253c4231e26c02b1d876000015186600001518c858f604051613fd0959493929190614fc2565b60405180910390a2505050505050505095945050505050565b60006001600160a01b0382166140115760405162461bcd60e51b815260040161075a906158e5565b600084116140315760405162461bcd60e51b815260040161075a90615a88565b60006040805480602002602001604051908101604052809291908181526020016000905b8282101561409e57600084815260209081902060408051808201909152908401546001600160801b038082168352600160801b9091041681830152825260019092019101614055565b5050505090506000806140b088612489565b9150915060006140be6144d0565b9050600073__$1a38b0db2bd175b310a9a3f8697d44eb75$__634e3d391384878760ff168151811061410057634e487b7160e01b600052603260045260246000fd5b6020026020010151600001518c86602001516040518563ffffffff1660e01b81526004016141319493929190615c4e565b60206040518083038186803b15801561414957600080fd5b505af415801561415d573d6000803e3d6000fd5b505050506040513d601f19601f820116820180604052508101906141819190614c35565b6038549091506201000090046001600160a01b0316637910213b8686846141a6612326565b6040518563ffffffff1660e01b81526004016141c5949392919061511e565b60206040518083038186803b1580156141dd57600080fd5b505afa1580156141f1573d6000803e3d6000fd5b505050506040513d601f19601f820116820180604052508101906142159190614c35565b9550878610156142375760405162461bcd60e51b815260040161075a9061558d565b61424081614527565b858560ff168151811061426357634e487b7160e01b600052603260045260246000fd5b6020026020010151602001516142799190615d5e565b60408560ff168154811061429d57634e487b7160e01b600052603260045260246000fd5b600091825260209091200180546001600160801b03928316600160801b0292169190911790556142cd87876126cd565b336001600160a01b03167f30873c596f54a2e2e09894670d7e1a48b2433c00204f81fbedf557353c36e7c788888d85604051612af39493929190614ff2565b60007f00000000000000000000000000000000000000000000000000000000000000006001600160a01b0316630c340a246040518163ffffffff1660e01b815260040160206040518083038186803b15801561436757600080fd5b505afa15801561437b573d6000803e3d6000fd5b505050506040513d601f19601f82011682018060405250810190611e719190614814565b6040516385acd64160e01b81526000906001600160a01b037f000000000000000000000000000000000000000000000000000000000000000016906385acd6419061440e907f12fe936c77a1e196473c4314f3bed8eeac1d757b319abb85bdda70df35511bf1906004016153eb565b60206040518083038186803b15801561436757600080fd5b6001600160a01b03821661444c5760405162461bcd60e51b815260040161075a9061596d565b6001600160a01b03821660009081526033602052604081208054839290614474908490615e08565b92505081905550806035600082825461448d9190615e08565b90915550506040516000906001600160a01b038416907fddf252ad1be2c89b69c2b068fc378daa952ba7f163c4a11628f55a4df523b3ef906127759085906153eb565b6144d86145fc565b603e546000816144e6610a8a565b6144f09190615d89565b90506040518060600160405280828152602001614518603d5484612ce190919063ffffffff16565b81526020019290925250905090565b6000600160801b8210612cdd5760405162461bcd60e51b815260040161075a90615642565b825161455f90603690602086019061461d565b50815161457390603790602085019061461d565b506038805460ff191660ff929092169190911790555050565b6000816145998486615dc1565b610a7c9190615da1565b604080516080810182526000808252602082018190529181018290529060608201905b905290565b604080518082019091526000808252602082015290565b6040518060400160405280600081526020016145c66145cb565b60405180606001604052806000815260200160008152602001600081525090565b82805461462990615e3f565b90600052602060002090601f01602090048101928261464b5760008555614691565b82601f1061466457805160ff1916838001178555614691565b82800160010185558215614691579182015b82811115614691578251825591602001919060010190614676565b50612cdd9291505b80821115612cdd5760008155600101614699565b60008083601f8401126146be578081fd5b5081356001600160401b038111156146d4578182fd5b60208301915083602080830285010111156146ee57600080fd5b9250929050565b803580151581146115c657600080fd5b60008083601f840112614716578182fd5b5081356001600160401b0381111561472c578182fd5b6020830191508360208285010111156146ee57600080fd5b60008183036060811215614756578182fd5b604080518181016001600160401b03828210818311171561477957614779615eab565b8184528295508635835283601f198601121561479457600080fd5b83519450838501915084821081831117156147b1576147b1615eab565b5082526147c0602086016147e1565b83526147cd8286016147e1565b602084015282602082015250505092915050565b80356001600160801b03811681146115c657600080fd5b600060208284031215614809578081fd5b8135610ce681615ec1565b600060208284031215614825578081fd5b8151610ce681615ec1565b60008060408385031215614842578081fd5b823561484d81615ec1565b9150602083013561485d81615ec1565b809150509250929050565b60008060006060848603121561487c578081fd5b833561488781615ec1565b9250602084013561489781615ec1565b929592945050506040919091013590565b600080600080600060a086880312156148bf578081fd5b85356148ca81615ec1565b945060208601356148da81615ec1565b9350604086013592506060860135915060808601356148f881615ec1565b809150509295509295909350565b60008060408385031215614918578182fd5b823561492381615ec1565b9150614931602084016146f5565b90509250929050565b6000806040838503121561494c578182fd5b823561495781615ec1565b946020939093013593505050565b6000806000806080858703121561497a578384fd5b843561498581615ec1565b9350602085013592506040850135915060608501356149a381615ec1565b939692955090935050565b6000806000604084860312156149c2578081fd5b83356001600160401b038111156149d7578182fd5b6149e3868287016146ad565b90945092505060208401356149f781615ec1565b809150509250925092565b60008060008060408587031215614a17578182fd5b84356001600160401b0380821115614a2d578384fd5b614a39888389016146ad565b90965094506020870135915080821115614a51578384fd5b50614a5e878288016146ad565b95989497509550505050565b60008060008060008060808789031215614a82578384fd5b86356001600160401b0380821115614a98578586fd5b614aa48a838b016146ad565b90985096506020890135915080821115614abc578586fd5b50614ac989828a016146ad565b909550935050604087013591506060870135614ae481615ec1565b809150509295509295509295565b600060208284031215614b03578081fd5b610ce6826146f5565b60008060008060008060008060e0898b031215614b27578586fd5b88356001600160401b0380821115614b3d578788fd5b614b498c838d01614705565b909a50985060208b0135915080821115614b61578788fd5b614b6d8c838d01614705565b909850965060408b01359150614b8282615ec1565b90945060608a01359080821115614b97578384fd5b818b0191508b601f830112614baa578384fd5b813581811115614bb8578485fd5b8c6020608083028501011115614bcc578485fd5b602083019550809450505050614be58a60808b01614744565b90509295985092959890939650565b60008060408385031215614c06578182fd5b614c0f836147e1565b9150614931602084016147e1565b600060208284031215614c2e578081fd5b5035919050565b600060208284031215614c46578081fd5b5051919050565b60008060008060608587031215614c62578182fd5b8435935060208501356001600160401b03811115614c7e578283fd5b614c8a878288016146ad565b90945092505060408501356149a381615ec1565b60008060408385031215614cb0578182fd5b825191506020808401516001600160401b0380821115614cce578384fd5b818601915086601f830112614ce1578384fd5b815181811115614cf357614cf3615eab565b8381029150614d03848301615d35565b8181528481019084860184860187018b1015614d1d578788fd5b8795505b83861015614d3f578051835260019590950194918601918601614d21565b508096505050505050509250929050565b60008060408385031215614d62578182fd5b50508035926020909101359150565b60008060408385031215614d83578182fd5b505080516020909101519092909150565b6000815180845260208085019450808401835b83811015614dcc5781516001600160a01b031687529582019590820190600101614da7565b509495945050505050565b6000815180845260208085019450808401835b83811015614dcc57614dfd878351614ed8565b6040969096019590820190600101614dea565b6000815480845260208085019450838352808320835b83811015614dcc5781546001600160801b038116885260801c8388015260409096019560019182019101614e26565b6000815180845260208085019450808401835b83811015614dcc57815187529582019590820190600101614e68565b6000815180845260208085019450808401835b83811015614dcc57815160ff1687529582019590820190600101614e97565b60088110614ed457634e487b7160e01b600052602160045260246000fd5b9052565b80516001600160801b03908116835260209182015116910152565b60018060a01b03808251168352806020830151166020840152506040810151151560408301526060810151614f2b6060840182614eb6565b505050565b60018060a01b038082541683526001820154818116602085015260ff8160a01c1615156040850152611eeb6060850160ff8360a81c16614eb6565b805182526020810151614f2b6020840182614ed8565b6001600160a01b0391909116815260200190565b6001600160a01b038581168252841660208201528215156040820152608081016118416060830184614eb6565b6001600160a01b039586168152938516602085015260408401929092526060830152909116608082015260a00190565b6001600160a01b039485168152602081019390935292166040820152606081019190915260800190565b6001600160a01b03958616815260208101949094529190931660408301526060820192909252608081019190915260a00190565b600060018060a01b0386168252846020830152608060408301526150776080830185614d94565b82810360608401526120aa8185614e55565b600060018060a01b038716825285602083015260a060408301526150b060a0830186614d94565b82810360608401526150c28186614e55565b9150508260808301529695505050505050565b600060c082526150e860c0830187614dd7565b82810360208401526150fa8187614e84565b9050828103604084015261510e8186614e55565b9150506118416060830184614f6b565b600060c0825261513160c0830187614dd7565b905060ff851660208301528360408301526118416060830184614f6b565b60006101008083526151638184018a614dd7565b91505060ff8716602083015260ff861660408301528460608301528360808301526120aa60a0830184614f6b565b600060c082526151a460c0830188614e10565b82810360208401526151b68188614e84565b838103604085015285815290506001600160fb1b038511156151d6578182fd5b6020850280876020840137016020019081526151f56060830184614f6b565b9695505050505050565b600060c0825261513160c0830187614e10565b604080825283519082018190526000906020906060840190828701845b8281101561525557615242848351614ef3565b608093909301929084019060010161522f565b505050838103828501526151f58186614dd7565b60c08082528554908201819052600086815260208120909160e0840190835b818110156152b05761529a8385614f30565b6002939093019260809290920191600101615288565b5050602084018790526001600160a01b0386166040850152915061184190506060830184614f6b565b9788526020880196909652604087019490945260ff9290921660608601526001600160a01b0390811660808601521660a084015260c0830152151560e08201526101000190565b93845260208401929092526001600160a01b031660408301521515606082015260800190565b85815260208082018690526080604083018190528201849052600090859060a08401835b8781101561539857833561537d81615ec1565b6001600160a01b03168252928201929082019060010161536a565b506001600160a01b03959095166060949094019390935250919695505050505050565b600060208252610ce66020830184614e55565b901515815260200190565b91151582521515602082015260400190565b90815260200190565b6000602080835283518082850152825b8181101561542057858101830151858201604001528201615404565b818111156154315783604083870101525b50601f01601f1916929092016040019392505050565b6020808252600f908201526e119bdc99d955985b081b1bd8dad959608a1b604082015260600190565b60208082526023908201527f45524332303a207472616e7366657220746f20746865207a65726f206164647260408201526265737360e81b606082015260800190565b6020808252600a90820152694e6f206241737365747360b01b604082015260600190565b6020808252600d908201526c125b9d985b1a5908185cdcd95d609a1b604082015260600190565b6020808252600d908201526c29bbb0b8103930ba329037b7b160991b604082015260600190565b6020808252600c908201526b24b73b30b634b2103830b4b960a11b604082015260600190565b60208082526022908201527f45524332303a20617070726f766520746f20746865207a65726f206164647265604082015261737360f01b606082015260800190565b60208082526017908201527f4d696e74207175616e74697479203c206d696e20717479000000000000000000604082015260600190565b602080825260089082015267125b881c9958dbdb60c21b604082015260600190565b60208082526014908201527362417373657420717479203c206d696e2071747960601b604082015260600190565b602080825260149082015273092dce0eae840c2e4e4c2f240dad2e6dac2e8c6d60631b604082015260600190565b60208082526027908201527f53616665436173743a2076616c756520646f65736e27742066697420696e20316040820152663238206269747360c81b606082015260800190565b6020808252600c908201526b4e756c6c206164647265737360a01b604082015260600190565b60208082526018908201527f4f757470757420717479203c206d696e696d756d207174790000000000000000604082015260600190565b60208082526017908201527f4d75737420626520736176696e6773206d616e61676572000000000000000000604082015260600190565b6020808252601390820152722932b232b6b83a34b7b7103930ba329037b7b160691b604082015260600190565b60208082526019908201527f4f6e6c7920676f7665726e6f722063616e206578656375746500000000000000604082015260600190565b602080825260139082015272125b9d985b1a5908185c9c985e481a5b9c1d5d606a1b604082015260600190565b6020808252600e908201526d26b0bc103bb2b4b3b43a1037b7b160911b604082015260600190565b602080825260099082015268556e6865616c74687960b81b604082015260600190565b6020808252601690820152754d75737420636f6c6c65637420736f6d657468696e6760501b604082015260600190565b6020808252600e908201526d4d757374206265203c3d2032302560901b604082015260600190565b60208082526026908201527f53616665436173743a2076616c756520646f65736e27742066697420696e203660408201526534206269747360d01b606082015260800190565b6020808252602e908201527f436f6e747261637420696e7374616e63652068617320616c726561647920626560408201526d195b881a5b9a5d1a585b1a5e995960921b606082015260800190565b602080825260119082015270125b9d985b1a59081c9958da5c1a595b9d607a1b604082015260600190565b602080825260159082015274496e76616c69642073776170207175616e7469747960581b604082015260600190565b6020808252601490820152735a65726f206d4173736574207175616e7469747960601b604082015260600190565b60208082526021908201527f45524332303a206275726e2066726f6d20746865207a65726f206164647265736040820152607360f81b606082015260800190565b6020808252600f908201526e111d5c1b1a58d85d1948185cdcd95d608a1b604082015260600190565b60208082526025908201527f45524332303a207472616e736665722066726f6d20746865207a65726f206164604082015264647265737360d81b606082015260800190565b6020808252600e908201526d26b4b7103bb2b4b3b43a1037b7b160911b604082015260600190565b60208082526024908201527f45524332303a20617070726f76652066726f6d20746865207a65726f206164646040820152637265737360e01b606082015260800190565b60208082526006908201526505174793d3d360d41b604082015260600190565b6020808252601f908201527f5265656e7472616e637947756172643a207265656e7472616e742063616c6c00604082015260600190565b6020808252601490820152735a65726f206f7574707574207175616e7469747960601b604082015260600190565b60208082526018908201527f4d7573742072656465656d20736f6d65206d4173736574730000000000000000604082015260600190565b6020808252818101527f52656465656d206d417373657420717479203e206d6178207175616e74697479604082015260600190565b6020808252601f908201527f45524332303a206d696e7420746f20746865207a65726f206164647265737300604082015260600190565b918252602082015260400190565b948552602085019390935260408401919091526060830152608082015260a00190565b938452602084019290925260408301526001600160a01b0316606082015260800190565b948552602085019390935260408401919091526001600160a01b031660608301521515608082015260a00190565b60c08101615c418285614ef3565b610ce66080830184614ed8565b60e08101615c5c8287614ef3565b6001600160801b03851660808301528360a08301528260c083015295945050505050565b606081016109208284614f6b565b6001600160801b0392831681529116602082015260400190565b8581526101208101615cbd6020830187614ef3565b615cca60a0830186614ed8565b6001600160a01b039390931660e082015261010001529392505050565b8581526101208101615cbd6020830187614f30565b6001600160401b03948516815292841660208401529083166040830152909116606082015260800190565b60ff91909116815260200190565b6040518181016001600160401b0381118282101715615d5657615d56615eab565b604052919050565b60006001600160801b03808316818516808303821115615d8057615d80615e95565b01949350505050565b60008219821115615d9c57615d9c615e95565b500190565b600082615dbc57634e487b7160e01b81526012600452602481fd5b500490565b6000816000190483118215151615615ddb57615ddb615e95565b500290565b60006001600160801b0383811690831681811015615e0057615e00615e95565b039392505050565b600082821015615e1a57615e1a615e95565b500390565b60006001600160401b0383811690831681811015615e0057615e00615e95565b600281046001821680615e5357607f821691505b60208210811415615e7457634e487b7160e01b600052602260045260246000fd5b50919050565b6000600019821415615e8e57615e8e615e95565b5060010190565b634e487b7160e01b600052601160045260246000fd5b634e487b7160e01b600052604160045260246000fd5b6001600160a01b03811681146127c257600080fdfea26469706673582212201d4e867e968bf6184542ab79a64b004dd3b7b46ebc9c8e78d84a41dd40fa815364736f6c63430008000033",
  "linkReferences": {
    "contracts/masset/Manager.sol": {
      "Manager": [
        {
          "length": 20,
          "start": 4547
        },
        {
          "length": 20,
          "start": 5061
        },
        {
          "length": 20,
          "start": 5719
        },
        {
          "length": 20,
          "start": 6568
        },
        {
          "length": 20,
          "start": 6940
        },
        {
          "length": 20,
          "start": 7029
        },
        {
          "length": 20,
          "start": 8003
        },
        {
          "length": 20,
          "start": 8082
        },
        {
          "length": 20,
          "start": 10896
        },
        {
          "length": 20,
          "start": 12476
        },
        {
          "length": 20,
          "start": 13808
        },
        {
          "length": 20,
          "start": 14734
        },
        {
          "length": 20,
          "start": 15642
        },
        {
          "length": 20,
          "start": 16220
        },
        {
          "length": 20,
          "start": 16854
        }
      ]
    }
  },
  "deployedLinkReferences": {
    "contracts/masset/Manager.sol": {
      "Manager": [
        {
          "length": 20,
          "start": 4273
        },
        {
          "length": 20,
          "start": 4787
        },
        {
          "length": 20,
          "start": 5445
        },
        {
          "length": 20,
          "start": 6294
        },
        {
          "length": 20,
          "start": 6666
        },
        {
          "length": 20,
          "start": 6755
        },
        {
          "length": 20,
          "start": 7729
        },
        {
          "length": 20,
          "start": 7808
        },
        {
          "length": 20,
          "start": 10622
        },
        {
          "length": 20,
          "start": 12202
        },
        {
          "length": 20,
          "start": 13534
        },
        {
          "length": 20,
          "start": 14460
        },
        {
          "length": 20,
          "start": 15368
        },
        {
          "length": 20,
          "start": 15946
        },
        {
          "length": 20,
          "start": 16580
        }
      ]
    }
  }
}