{
  "_format": "hh-sol-artifact-1",
  "contractName": "SaveWrapper",
  "sourceName": "contracts/savings/peripheral/SaveWrapper.sol",
  "abi": [
    {
      "inputs": [
        {
          "internalType": "address",
          "name": "_save",
          "type": "address"
        },
        {
          "internalType": "address",
          "name": "_vault",
          "type": "address"
        },
        {
          "internalType": "address",
          "name": "_mAsset",
          "type": "address"
        },
        {
          "internalType": "address[]",
          "name": "_bAssets",
          "type": "address[]"
        },
        {
          "internalType": "address",
          "name": "_uniswapAddress",
          "type": "address"
        }
      ],
      "stateMutability": "nonpayable",
      "type": "constructor"
    },
    {
      "inputs": [
        {
          "internalType": "uint256",
          "name": "_ethAmount",
          "type": "uint256"
        },
        {
          "internalType": "address[]",
          "name": "_path",
          "type": "address[]"
        },
        {
          "internalType": "int128",
          "name": "_curvePosition",
          "type": "int128"
        }
      ],
      "name": "estimate_saveViaUniswapETH",
      "outputs": [
        {
          "internalType": "uint256",
          "name": "out",
          "type": "uint256"
        }
      ],
      "stateMutability": "view",
      "type": "function"
    },
    {
      "inputs": [],
      "name": "mAsset",
      "outputs": [
        {
          "internalType": "address",
          "name": "",
          "type": "address"
        }
      ],
      "stateMutability": "view",
      "type": "function"
    },
    {
      "inputs": [],
      "name": "save",
      "outputs": [
        {
          "internalType": "address",
          "name": "",
          "type": "address"
        }
      ],
      "stateMutability": "view",
      "type": "function"
    },
    {
      "inputs": [
        {
          "internalType": "uint256",
          "name": "_amount",
          "type": "uint256"
        }
      ],
      "name": "saveAndStake",
      "outputs": [],
      "stateMutability": "nonpayable",
      "type": "function"
    },
    {
      "inputs": [
        {
          "internalType": "address",
          "name": "_bAsset",
          "type": "address"
        },
        {
          "internalType": "uint256",
          "name": "_amt",
          "type": "uint256"
        },
        {
          "internalType": "uint256",
          "name": "_minOut",
          "type": "uint256"
        },
        {
          "internalType": "bool",
          "name": "_stake",
          "type": "bool"
        }
      ],
      "name": "saveViaMint",
      "outputs": [],
      "stateMutability": "nonpayable",
      "type": "function"
    },
    {
      "inputs": [
        {
          "internalType": "uint256",
          "name": "_amountOutMin",
          "type": "uint256"
        },
        {
          "internalType": "address[]",
          "name": "_path",
          "type": "address[]"
        },
        {
          "internalType": "uint256",
          "name": "_minOutMStable",
          "type": "uint256"
        },
        {
          "internalType": "bool",
          "name": "_stake",
          "type": "bool"
        }
      ],
      "name": "saveViaUniswapETH",
      "outputs": [],
      "stateMutability": "payable",
      "type": "function"
    },
    {
      "inputs": [],
      "name": "uniswap",
      "outputs": [
        {
          "internalType": "contract IUniswapV2Router02",
          "name": "",
          "type": "address"
        }
      ],
      "stateMutability": "view",
      "type": "function"
    },
    {
      "inputs": [],
      "name": "vault",
      "outputs": [
        {
          "internalType": "address",
          "name": "",
          "type": "address"
        }
      ],
      "stateMutability": "view",
      "type": "function"
    }
  ],
  "bytecode": "0x6101006040523480156200001257600080fd5b5060405162001cbe38038062001cbe833981016040819052620000359162000548565b6001600160a01b038516620000675760405162461bcd60e51b81526004016200005e9062000810565b60405180910390fd5b6001600160601b0319606086901b166080526001600160a01b038416620000a25760405162461bcd60e51b81526004016200005e906200075c565b6001600160601b0319606085901b1660a0526001600160a01b038316620000dd5760405162461bcd60e51b81526004016200005e90620007d9565b6001600160601b0319606084901b1660c0526001600160a01b038116620001185760405162461bcd60e51b81526004016200005e9062000725565b606081901b6001600160601b03191660e0526200014e6001600160a01b0384168660001962000254602090811b620006fc17901c565b60405163095ea7b360e01b81526001600160a01b0386169063095ea7b3906200018090879060001990600401620006d7565b602060405180830381600087803b1580156200019b57600080fd5b505af1158015620001b0573d6000803e3d6000fd5b505050506040513d601f19601f82011682018060405250810190620001d6919062000664565b5060005b8251811015620002485762000233846000198584815181106200020d57634e487b7160e01b600052603260045260246000fd5b60200260200101516001600160a01b03166200025460201b620006fc179092919060201c565b806200023f8162000958565b915050620001da565b50505050505062000996565b801580620002e35750604051636eb1769f60e11b81526001600160a01b0384169063dd62ed3e906200028d9030908690600401620006bd565b60206040518083038186803b158015620002a657600080fd5b505afa158015620002bb573d6000803e3d6000fd5b505050506040513d601f19601f82011682018060405250810190620002e1919062000686565b155b620003025760405162461bcd60e51b81526004016200005e90620008c8565b6200035d8363095ea7b360e01b848460405160240162000324929190620006d7565b60408051808303601f190181529190526020810180516001600160e01b0319939093166001600160e01b03938416179052906200036216565b505050565b6000620003be826040518060400160405280602081526020017f5361666545524332303a206c6f772d6c6576656c2063616c6c206661696c6564815250856001600160a01b0316620003fe60201b62000804179092919060201c565b8051909150156200035d5780806020019051810190620003df919062000664565b6200035d5760405162461bcd60e51b81526004016200005e906200087e565b60606200040f848460008562000419565b90505b9392505050565b6060824710156200043e5760405162461bcd60e51b81526004016200005e9062000793565b6200044985620004e8565b620004685760405162461bcd60e51b81526004016200005e9062000847565b600080866001600160a01b031685876040516200048691906200069f565b60006040518083038185875af1925050503d8060008114620004c5576040519150601f19603f3d011682016040523d82523d6000602084013e620004ca565b606091505b509092509050620004dd828286620004f2565b979650505050505050565b803b15155b919050565b606083156200050357508162000412565b825115620005145782518084602001fd5b8160405162461bcd60e51b81526004016200005e9190620006f0565b80516001600160a01b0381168114620004ed57600080fd5b600080600080600060a0868803121562000560578081fd5b6200056b8662000530565b945060206200057c81880162000530565b94506200058c6040880162000530565b60608801519094506001600160401b0380821115620005a9578384fd5b818901915089601f830112620005bd578384fd5b815181811115620005d257620005d262000980565b83810260405185828201018181108582111715620005f457620005f462000980565b604052828152858101935084860182860187018e101562000613578788fd5b8795505b8386101562000640576200062b8162000530565b85526001959095019493860193860162000617565b50809750505050505050620006586080870162000530565b90509295509295909350565b60006020828403121562000676578081fd5b8151801515811462000412578182fd5b60006020828403121562000698578081fd5b5051919050565b60008251620006b381846020870162000925565b9190910192915050565b6001600160a01b0392831681529116602082015260400190565b6001600160a01b03929092168252602082015260400190565b60006020825282518060208401526200071181604085016020870162000925565b601f01601f19169190910160400192915050565b60208082526017908201527f496e76616c696420756e69737761702061646472657373000000000000000000604082015260600190565b60208082526015908201527f496e76616c6964207661756c7420616464726573730000000000000000000000604082015260600190565b60208082526026908201527f416464726573733a20696e73756666696369656e742062616c616e636520666f6040820152651c8818d85b1b60d21b606082015260800190565b60208082526016908201527f496e76616c6964206d4173736574206164647265737300000000000000000000604082015260600190565b60208082526014908201527f496e76616c696420736176652061646472657373000000000000000000000000604082015260600190565b6020808252601d908201527f416464726573733a2063616c6c20746f206e6f6e2d636f6e7472616374000000604082015260600190565b6020808252602a908201527f5361666545524332303a204552433230206f7065726174696f6e20646964206e6040820152691bdd081cdd58d8d9595960b21b606082015260800190565b60208082526036908201527f5361666545524332303a20617070726f76652066726f6d206e6f6e2d7a65726f60408201527f20746f206e6f6e2d7a65726f20616c6c6f77616e636500000000000000000000606082015260800190565b60005b838110156200094257818101518382015260200162000928565b8381111562000952576000848401525b50505050565b60006000198214156200097957634e487b7160e01b81526011600452602481fd5b5060010190565b634e487b7160e01b600052604160045260246000fd5b60805160601c60a05160601c60c05160601c60e05160601c6112a362000a1b600039600081816101780152818161037901526109f8015260008181610232015281816103550152818161040b015281816104fe015261062a0152600081816106da01526108e001526000818161039d0152818161083d015261096601526112a36000f3fe60806040526004361061007b5760003560e01c8063888b78651161004e578063888b7865146100ea5780639b0a9f6b14610117578063beddd92414610137578063fbfa77cf146101575761007b565b80630a5479ee14610080578063178d341f146100955780632681f7e4146100c057806342dad49e146100d5575b600080fd5b61009361008e366004610e89565b61016c565b005b3480156100a157600080fd5b506100aa610353565b6040516100b79190610f0e565b60405180910390f35b3480156100cc57600080fd5b506100aa610377565b3480156100e157600080fd5b506100aa61039b565b3480156100f657600080fd5b5061010a610105366004610e31565b6103bf565b6040516100b791906110f4565b34801561012357600080fd5b50610093610132366004610e01565b6104e7565b34801561014357600080fd5b50610093610152366004610ce4565b610598565b34801561016357600080fd5b506100aa6106d8565b60006001600160a01b037f000000000000000000000000000000000000000000000000000000000000000016637ff36ab534888888306101ae426103e86111d4565b6040518763ffffffff1660e01b81526004016101ce959493929190611114565b6000604051808303818588803b1580156101e757600080fd5b505af11580156101fb573d6000803e3d6000fd5b50505050506040513d6000823e601f3d908101601f191682016040526102249190810190610d2b565b905060006001600160a01b037f00000000000000000000000000000000000000000000000000000000000000001663f74bfe8e87876102646001826111ec565b81811061028157634e487b7160e01b600052603260045260246000fd5b90506020020160208101906102969190610cca565b84600186516102a591906111ec565b815181106102c357634e487b7160e01b600052603260045260246000fd5b602002602001015187306040518563ffffffff1660e01b81526004016102ec9493929190610f79565b602060405180830381600087803b15801561030657600080fd5b505af115801561031a573d6000803e3d6000fd5b505050506040513d601f19601f8201168201806040525081019061033e9190610e19565b905061034a818461081d565b50505050505050565b7f000000000000000000000000000000000000000000000000000000000000000081565b7f000000000000000000000000000000000000000000000000000000000000000081565b7f000000000000000000000000000000000000000000000000000000000000000081565b6000806103ff868686808060200260200160405190810160405280939291908181526020018383602002808284376000920191909152506109f392505050565b90506001600160a01b037f00000000000000000000000000000000000000000000000000000000000000001663119849cf868661043d6001826111ec565b81811061045a57634e487b7160e01b600052603260045260246000fd5b905060200201602081019061046f9190610cca565b836040518363ffffffff1660e01b815260040161048d929190610f60565b60206040518083038186803b1580156104a557600080fd5b505afa1580156104b9573d6000803e3d6000fd5b505050506040513d601f19601f820116820180604052508101906104dd9190610e19565b9695505050505050565b6040516323b872dd60e01b81526001600160a01b037f000000000000000000000000000000000000000000000000000000000000000016906323b872dd9061053790339030908690600401610f3c565b602060405180830381600087803b15801561055157600080fd5b505af1158015610565573d6000803e3d6000fd5b505050506040513d601f19601f820116820180604052508101906105899190610de5565b5061059581600161081d565b50565b6040516323b872dd60e01b81526001600160a01b038516906323b872dd906105c890339030908890600401610f3c565b602060405180830381600087803b1580156105e257600080fd5b505af11580156105f6573d6000803e3d6000fd5b505050506040513d601f19601f8201168201806040525081019061061a9190610de5565b50604051637ba5ff4760e11b81527f0000000000000000000000000000000000000000000000000000000000000000906000906001600160a01b0383169063f74bfe8e90610672908990899089903090600401610f79565b602060405180830381600087803b15801561068c57600080fd5b505af11580156106a0573d6000803e3d6000fd5b505050506040513d601f19601f820116820180604052508101906106c49190610e19565b90506106d0818461081d565b505050505050565b7f000000000000000000000000000000000000000000000000000000000000000081565b8015806107845750604051636eb1769f60e11b81526001600160a01b0384169063dd62ed3e906107329030908690600401610f22565b60206040518083038186803b15801561074a57600080fd5b505afa15801561075e573d6000803e3d6000fd5b505050506040513d601f19601f820116820180604052508101906107829190610e19565b155b6107a95760405162461bcd60e51b81526004016107a09061109e565b60405180910390fd5b6107ff8363095ea7b360e01b84846040516024016107c8929190610f60565b60408051601f198184030181529190526020810180516001600160e01b03166001600160e01b031990931692909217909152610ad8565b505050565b60606108138484600085610b67565b90505b9392505050565b801561094f5760405163590745c560e01b81526000906001600160a01b037f0000000000000000000000000000000000000000000000000000000000000000169063590745c59061087490869030906004016110fd565b602060405180830381600087803b15801561088e57600080fd5b505af11580156108a2573d6000803e3d6000fd5b505050506040513d601f19601f820116820180604052508101906108c69190610e19565b6040516356e4bb9760e11b81529091506001600160a01b037f0000000000000000000000000000000000000000000000000000000000000000169063adc9772e906109179033908590600401610f60565b600060405180830381600087803b15801561093157600080fd5b505af1158015610945573d6000803e3d6000fd5b50505050506109ef565b60405163590745c560e01b81526001600160a01b037f0000000000000000000000000000000000000000000000000000000000000000169063590745c59061099d90859033906004016110fd565b602060405180830381600087803b1580156109b757600080fd5b505af11580156109cb573d6000803e3d6000fd5b505050506040513d601f19601f820116820180604052508101906107ff9190610e19565b5050565b6000807f00000000000000000000000000000000000000000000000000000000000000006001600160a01b031663d06ca61f85856040518363ffffffff1660e01b8152600401610a4492919061117e565b60006040518083038186803b158015610a5c57600080fd5b505afa158015610a70573d6000803e3d6000fd5b505050506040513d6000823e601f3d908101601f19168201604052610a989190810190610d2b565b90508060018251610aa991906111ec565b81518110610ac757634e487b7160e01b600052603260045260246000fd5b602002602001015191505092915050565b6000610b2d826040518060400160405280602081526020017f5361666545524332303a206c6f772d6c6576656c2063616c6c206661696c6564815250856001600160a01b03166108049092919063ffffffff16565b8051909150156107ff5780806020019051810190610b4b9190610de5565b6107ff5760405162461bcd60e51b81526004016107a090611054565b606082471015610b895760405162461bcd60e51b81526004016107a090610fd7565b610b9285610c27565b610bae5760405162461bcd60e51b81526004016107a09061101d565b600080866001600160a01b03168587604051610bca9190610ef2565b60006040518083038185875af1925050503d8060008114610c07576040519150601f19603f3d011682016040523d82523d6000602084013e610c0c565b606091505b5091509150610c1c828286610c31565b979650505050505050565b803b15155b919050565b60608315610c40575081610816565b825115610c505782518084602001fd5b8160405162461bcd60e51b81526004016107a09190610fa4565b80356001600160a01b0381168114610c2c57600080fd5b60008083601f840112610c92578081fd5b50813567ffffffffffffffff811115610ca9578182fd5b6020830191508360208083028501011115610cc357600080fd5b9250929050565b600060208284031215610cdb578081fd5b61081682610c6a565b60008060008060808587031215610cf9578283fd5b610d0285610c6a565b935060208501359250604085013591506060850135610d208161125f565b939692955090935050565b60006020808385031215610d3d578182fd5b825167ffffffffffffffff80821115610d54578384fd5b818501915085601f830112610d67578384fd5b815181811115610d7957610d79611249565b83810260405185828201018181108582111715610d9857610d98611249565b604052828152858101935084860182860187018a1015610db6578788fd5b8795505b83861015610dd8578051855260019590950194938601938601610dba565b5098975050505050505050565b600060208284031215610df6578081fd5b81516108168161125f565b600060208284031215610e12578081fd5b5035919050565b600060208284031215610e2a578081fd5b5051919050565b60008060008060608587031215610e46578384fd5b84359350602085013567ffffffffffffffff811115610e63578384fd5b610e6f87828801610c81565b9094509250506040850135600f81900b8114610d20578182fd5b600080600080600060808688031215610ea0578081fd5b85359450602086013567ffffffffffffffff811115610ebd578182fd5b610ec988828901610c81565b909550935050604086013591506060860135610ee48161125f565b809150509295509295909350565b60008251610f04818460208701611203565b9190910192915050565b6001600160a01b0391909116815260200190565b6001600160a01b0392831681529116602082015260400190565b6001600160a01b039384168152919092166020820152604081019190915260600190565b6001600160a01b03929092168252602082015260400190565b6001600160a01b03948516815260208101939093526040830191909152909116606082015260800190565b6000602082528251806020840152610fc3816040850160208701611203565b601f01601f19169190910160400192915050565b60208082526026908201527f416464726573733a20696e73756666696369656e742062616c616e636520666f6040820152651c8818d85b1b60d21b606082015260800190565b6020808252601d908201527f416464726573733a2063616c6c20746f206e6f6e2d636f6e7472616374000000604082015260600190565b6020808252602a908201527f5361666545524332303a204552433230206f7065726174696f6e20646964206e6040820152691bdd081cdd58d8d9595960b21b606082015260800190565b60208082526036908201527f5361666545524332303a20617070726f76652066726f6d206e6f6e2d7a65726f60408201527520746f206e6f6e2d7a65726f20616c6c6f77616e636560501b606082015260800190565b90815260200190565b9182526001600160a01b0316602082015260400190565b85815260806020808301829052908201859052600090869060a08401835b8881101561115e576001600160a01b0361114b85610c6a565b1682529282019290820190600101611132565b506001600160a01b03969096166040850152505050606001529392505050565b60006040820184835260206040818501528185518084526060860191508287019350845b818110156111c75784516001600160a01b0316835293830193918301916001016111a2565b5090979650505050505050565b600082198211156111e7576111e7611233565b500190565b6000828210156111fe576111fe611233565b500390565b60005b8381101561121e578181015183820152602001611206565b8381111561122d576000848401525b50505050565b634e487b7160e01b600052601160045260246000fd5b634e487b7160e01b600052604160045260246000fd5b801515811461059557600080fdfea2646970667358221220dfa36eff5ba9661f102a257f270e48198ff6630ef9cc5ec6255b30b2110d4d7c64736f6c63430008000033",
  "linkReferences": {},
  "deployedLinkReferences": {}
}