{
  "_format": "hh-sol-artifact-1",
  "contractName": "SaveWrapper",
  "sourceName": "contracts/savings/peripheral/SaveWrapper.sol",
  "abi": [
    {
      "inputs": [
        {
          "internalType": "address",
          "name": "_save",
          "type": "address"
        },
        {
          "internalType": "address",
          "name": "_vault",
          "type": "address"
        },
        {
          "internalType": "address",
          "name": "_mAsset",
          "type": "address"
        },
        {
          "internalType": "address[]",
          "name": "_bAssets",
          "type": "address[]"
        },
        {
          "internalType": "address",
          "name": "_uniswapAddress",
          "type": "address"
        },
        {
          "internalType": "address",
          "name": "_curveAddress",
          "type": "address"
        },
        {
          "internalType": "address[]",
          "name": "_curveAssets",
          "type": "address[]"
        }
      ],
      "payable": false,
      "stateMutability": "nonpayable",
      "type": "constructor"
    },
    {
      "constant": true,
      "inputs": [
        {
          "internalType": "int128",
          "name": "_curvePosition",
          "type": "int128"
        },
        {
          "internalType": "uint256",
          "name": "_amountIn",
          "type": "uint256"
        }
      ],
      "name": "estimate_saveViaCurve",
      "outputs": [
        {
          "internalType": "uint256",
          "name": "out",
          "type": "uint256"
        }
      ],
      "payable": false,
      "stateMutability": "view",
      "type": "function"
    },
    {
      "constant": true,
      "inputs": [
        {
          "internalType": "uint256",
          "name": "_ethAmount",
          "type": "uint256"
        },
        {
          "internalType": "address[]",
          "name": "_path",
          "type": "address[]"
        },
        {
          "internalType": "int128",
          "name": "_curvePosition",
          "type": "int128"
        }
      ],
      "name": "estimate_saveViaUniswapETH",
      "outputs": [
        {
          "internalType": "uint256",
          "name": "out",
          "type": "uint256"
        }
      ],
      "payable": false,
      "stateMutability": "view",
      "type": "function"
    },
    {
      "constant": false,
      "inputs": [
        {
          "internalType": "uint256",
          "name": "_amount",
          "type": "uint256"
        }
      ],
      "name": "saveAndStake",
      "outputs": [],
      "payable": false,
      "stateMutability": "nonpayable",
      "type": "function"
    },
    {
      "constant": false,
      "inputs": [
        {
          "internalType": "address",
          "name": "_input",
          "type": "address"
        },
        {
          "internalType": "int128",
          "name": "_curvePosition",
          "type": "int128"
        },
        {
          "internalType": "uint256",
          "name": "_amountIn",
          "type": "uint256"
        },
        {
          "internalType": "uint256",
          "name": "_minOutCrv",
          "type": "uint256"
        },
        {
          "internalType": "bool",
          "name": "_stake",
          "type": "bool"
        }
      ],
      "name": "saveViaCurve",
      "outputs": [],
      "payable": false,
      "stateMutability": "nonpayable",
      "type": "function"
    },
    {
      "constant": false,
      "inputs": [
        {
          "internalType": "address",
          "name": "_bAsset",
          "type": "address"
        },
        {
          "internalType": "uint256",
          "name": "_amt",
          "type": "uint256"
        },
        {
          "internalType": "bool",
          "name": "_stake",
          "type": "bool"
        }
      ],
      "name": "saveViaMint",
      "outputs": [],
      "payable": false,
      "stateMutability": "nonpayable",
      "type": "function"
    },
    {
      "constant": false,
      "inputs": [
        {
          "internalType": "uint256",
          "name": "_amountOutMin",
          "type": "uint256"
        },
        {
          "internalType": "address[]",
          "name": "_path",
          "type": "address[]"
        },
        {
          "internalType": "int128",
          "name": "_curvePosition",
          "type": "int128"
        },
        {
          "internalType": "uint256",
          "name": "_minOutCrv",
          "type": "uint256"
        },
        {
          "internalType": "bool",
          "name": "_stake",
          "type": "bool"
        }
      ],
      "name": "saveViaUniswapETH",
      "outputs": [],
      "payable": true,
      "stateMutability": "payable",
      "type": "function"
    }
  ],
  "bytecode": "0x60806040523480156200001157600080fd5b506040516200191338038062001913833981810160405260e08110156200003757600080fd5b8151602083015160408085015160608601805192519496939591949391820192846401000000008211156200006b57600080fd5b9083019060208201858111156200008157600080fd5b82518660208202830111640100000000821117156200009f57600080fd5b82525081516020918201928201910280838360005b83811015620000ce578181015183820152602001620000b4565b5050505091909101604081815260208401519084015160609094018051919694959294935090846401000000008211156200010857600080fd5b9083019060208201858111156200011e57600080fd5b82518660208202830111640100000000821117156200013c57600080fd5b82525081516020918201928201910280838360005b838110156200016b57818101518382015260200162000151565b5050505091909101604052505050506001600160a01b038716620001d6576040805162461bcd60e51b815260206004820152601460248201527f496e76616c696420736176652061646472657373000000000000000000000000604482015290519081900360640190fd5b600080546001600160a01b0319166001600160a01b038981169190911790915586166200024a576040805162461bcd60e51b815260206004820152601560248201527f496e76616c6964207661756c7420616464726573730000000000000000000000604482015290519081900360640190fd5b600180546001600160a01b0319166001600160a01b03888116919091179091558516620002be576040805162461bcd60e51b815260206004820152601660248201527f496e76616c6964206d4173736574206164647265737300000000000000000000604482015290519081900360640190fd5b600280546001600160a01b0319166001600160a01b0387811691909117909155831662000332576040805162461bcd60e51b815260206004820152601760248201527f496e76616c696420756e69737761702061646472657373000000000000000000604482015290519081900360640190fd5b600380546001600160a01b0319166001600160a01b03858116919091179091558216620003a6576040805162461bcd60e51b815260206004820152601560248201527f496e76616c696420637572766520616464726573730000000000000000000000604482015290519081900360640190fd5b600480546001600160a01b0319166001600160a01b0384811691909117909155600054620003e891878116911660001962000507602090811b62000cc517901c565b6040805163095ea7b360e01b81526001600160a01b038881166004830152600019602483015291519189169163095ea7b3916044808201926020929091908290030181600087803b1580156200043d57600080fd5b505af115801562000452573d6000803e3d6000fd5b505050506040513d60208110156200046957600080fd5b50600090505b8151811015620004cd576004548251620004c4916001600160a01b031690600019908590859081106200049e57fe5b60200260200101516001600160a01b03166200050760201b62000cc5179092919060201c565b6001016200046f565b5060005b8451811015620004f957620004f0866000198784815181106200049e57fe5b600101620004d1565b50505050505050506200083d565b80158062000591575060408051636eb1769f60e11b81523060048201526001600160a01b03848116602483015291519185169163dd62ed3e91604480820192602092909190829003018186803b1580156200056157600080fd5b505afa15801562000576573d6000803e3d6000fd5b505050506040513d60208110156200058d57600080fd5b5051155b620005ce5760405162461bcd60e51b8152600401808060200182810382526036815260200180620018dd6036913960400191505060405180910390fd5b604080516001600160a01b038416602482015260448082018490528251808303909101815260649091019091526020810180516001600160e01b0390811663095ea7b360e01b17909152620006269185916200062b16565b505050565b6200064a826001600160a01b03166200080060201b62000ddd1760201c565b6200069c576040805162461bcd60e51b815260206004820152601f60248201527f5361666545524332303a2063616c6c20746f206e6f6e2d636f6e747261637400604482015290519081900360640190fd5b60006060836001600160a01b0316836040518082805190602001908083835b60208310620006dc5780518252601f199092019160209182019101620006bb565b6001836020036101000a0380198251168184511680821785525050505050509050019150506000604051808303816000865af19150503d806000811462000740576040519150601f19603f3d011682016040523d82523d6000602084013e62000745565b606091505b5091509150816200079d576040805162461bcd60e51b815260206004820181905260248201527f5361666545524332303a206c6f772d6c6576656c2063616c6c206661696c6564604482015290519081900360640190fd5b805115620007fa57808060200190516020811015620007bb57600080fd5b5051620007fa5760405162461bcd60e51b815260040180806020018281038252602a815260200180620018b3602a913960400191505060405180910390fd5b50505050565b6000813f7fc5d2460186f7233c927e7db2dcc703c0e500b653ca82273b7bfad8045d85a4708181148015906200083557508115155b949350505050565b611066806200084d6000396000f3fe6080604052600436106100555760003560e01c806311bea7a21461005a578063549c7f09146100e257806379db581914610132578063888b7865146101775780639b0a9f6b146101fc578063cbb97a8714610226575b600080fd5b6100e0600480360360a081101561007057600080fd5b81359190810190604081016020820135600160201b81111561009157600080fd5b8201836020820111156100a357600080fd5b803590602001918460208302840111600160201b831117156100c457600080fd5b91935091508035600f0b90602081013590604001351515610267565b005b3480156100ee57600080fd5b506100e0600480360360a081101561010557600080fd5b506001600160a01b03813516906020810135600f0b906040810135906060810135906080013515156104a7565b34801561013e57600080fd5b506101656004803603604081101561015557600080fd5b508035600f0b90602001356105d5565b60408051918252519081900360200190f35b34801561018357600080fd5b506101656004803603606081101561019a57600080fd5b81359190810190604081016020820135600160201b8111156101bb57600080fd5b8201836020820111156101cd57600080fd5b803590602001918460208302840111600160201b831117156101ee57600080fd5b919350915035600f0b61066d565b34801561020857600080fd5b506100e06004803603602081101561021f57600080fd5b5035610745565b34801561023257600080fd5b506100e06004803603606081101561024957600080fd5b506001600160a01b03813516906020810135906040013515156108af565b600354604051637ff36ab560e01b81526004810188815230604483018190526103e8420160648401819052608060248501908152608485018a90526060956001600160a01b031694637ff36ab59434948e948e948e949293919260a401866020870280828437600081840152601f19601f82011690508083019250505096505050505050506000604051808303818588803b15801561030557600080fd5b505af1158015610319573d6000803e3d6000fd5b50505050506040513d6000823e601f3d908101601f19168201604052602081101561034357600080fd5b8101908080516040519392919084600160201b82111561036257600080fd5b90830190602082018581111561037757600080fd5b82518660208202830111600160201b8211171561039357600080fd5b82525081516020918201928201910280838360005b838110156103c05781810151838201526020016103a8565b5050505090500160405250505090506000600460009054906101000a90046001600160a01b03166001600160a01b031663a6417ed68660008560018751038151811061040857fe5b6020026020010151886040518563ffffffff1660e01b81526004018085600f0b600f0b815260200184600f0b8152602001838152602001828152602001945050505050602060405180830381600087803b15801561046557600080fd5b505af1158015610479573d6000803e3d6000fd5b505050506040513d602081101561048f57600080fd5b5051905061049d81846109c9565b5050505050505050565b604080516323b872dd60e01b81523360048201523060248201526044810185905290516001600160a01b038716916323b872dd9160648083019260209291908290030181600087803b1580156104fc57600080fd5b505af1158015610510573d6000803e3d6000fd5b505050506040513d602081101561052657600080fd5b50506004805460408051635320bf6b60e11b8152600f88810b900b938101939093526000602484018190526044840187905260648401869052905190926001600160a01b039092169163a6417ed691608480830192602092919082900301818787803b15801561059557600080fd5b505af11580156105a9573d6000803e3d6000fd5b505050506040513d60208110156105bf57600080fd5b505190506105cd81836109c9565b505050505050565b6004805460408051635e0d443f60e01b8152600f86810b900b9381019390935260006024840181905260448401859052905190926001600160a01b0390921691635e0d443f916064808301926020929190829003018186803b15801561063a57600080fd5b505afa15801561064e573d6000803e3d6000fd5b505050506040513d602081101561066457600080fd5b50519392505050565b6000806106ad86868680806020026020016040519081016040528093929190818152602001838360200280828437600092019190915250610b4992505050565b6004805460408051635e0d443f60e01b8152600f88810b900b938101939093526000602484015260448301849052519293506001600160a01b031691635e0d443f91606480820192602092909190829003018186803b15801561070f57600080fd5b505afa158015610723573d6000803e3d6000fd5b505050506040513d602081101561073957600080fd5b50519695505050505050565b600254604080516323b872dd60e01b81523360048201523060248201526044810184905290516001600160a01b03909216916323b872dd916064808201926020929091908290030181600087803b15801561079f57600080fd5b505af11580156107b3573d6000803e3d6000fd5b505050506040513d60208110156107c957600080fd5b5050600080546040805163a453b6cf60e01b81526004810185905290516001600160a01b039092169163a453b6cf9160248082019260209290919082900301818787803b15801561081957600080fd5b505af115801561082d573d6000803e3d6000fd5b505050506040513d602081101561084357600080fd5b5051600154604080516356e4bb9760e11b81523360048201526024810184905290519293506001600160a01b039091169163adc9772e9160448082019260009290919082900301818387803b15801561089b57600080fd5b505af11580156105cd573d6000803e3d6000fd5b604080516323b872dd60e01b81523360048201523060248201526044810184905290516001600160a01b038516916323b872dd9160648083019260209291908290030181600087803b15801561090457600080fd5b505af1158015610918573d6000803e3d6000fd5b505050506040513d602081101561092e57600080fd5b5050600254604080516340c10f1960e01b81526001600160a01b038681166004830152602482018690529151919092169160009183916340c10f1991604480830192602092919082900301818787803b15801561098a57600080fd5b505af115801561099e573d6000803e3d6000fd5b505050506040513d60208110156109b457600080fd5b505190506109c281846109c9565b5050505050565b8015610ac357600080546040805163590745c560e01b81526004810186905230602482015290516001600160a01b039092169163590745c59160448082019260209290919082900301818787803b158015610a2357600080fd5b505af1158015610a37573d6000803e3d6000fd5b505050506040513d6020811015610a4d57600080fd5b5051600154604080516356e4bb9760e11b81523360048201526024810184905290519293506001600160a01b039091169163adc9772e9160448082019260009290919082900301818387803b158015610aa557600080fd5b505af1158015610ab9573d6000803e3d6000fd5b5050505050610b45565b600080546040805163590745c560e01b81526004810186905233602482015290516001600160a01b039092169263590745c5926044808401936020939083900390910190829087803b158015610b1857600080fd5b505af1158015610b2c573d6000803e3d6000fd5b505050506040513d6020811015610b4257600080fd5b50505b5050565b6003546040805163d06ca61f60e01b815260048101858152602482019283528451604483015284516000946060946001600160a01b039091169363d06ca61f9389938993919260640190602080860191028083838d5b83811015610bb7578181015183820152602001610b9f565b50505050905001935050505060006040518083038186803b158015610bdb57600080fd5b505afa158015610bef573d6000803e3d6000fd5b505050506040513d6000823e601f3d908101601f191682016040526020811015610c1857600080fd5b8101908080516040519392919084600160201b821115610c3757600080fd5b908301906020820185811115610c4c57600080fd5b82518660208202830111600160201b82111715610c6857600080fd5b82525081516020918201928201910280838360005b83811015610c95578181015183820152602001610c7d565b50505050905001604052505050905080600182510381518110610cb457fe5b602002602001015191505092915050565b801580610d4b575060408051636eb1769f60e11b81523060048201526001600160a01b03848116602483015291519185169163dd62ed3e91604480820192602092909190829003018186803b158015610d1d57600080fd5b505afa158015610d31573d6000803e3d6000fd5b505050506040513d6020811015610d4757600080fd5b5051155b610d865760405162461bcd60e51b8152600401808060200182810382526036815260200180610ffc6036913960400191505060405180910390fd5b604080516001600160a01b038416602482015260448082018490528251808303909101815260649091019091526020810180516001600160e01b031663095ea7b360e01b179052610dd8908490610e19565b505050565b6000813f7fc5d2460186f7233c927e7db2dcc703c0e500b653ca82273b7bfad8045d85a470818114801590610e1157508115155b949350505050565b610e2b826001600160a01b0316610ddd565b610e7c576040805162461bcd60e51b815260206004820152601f60248201527f5361666545524332303a2063616c6c20746f206e6f6e2d636f6e747261637400604482015290519081900360640190fd5b60006060836001600160a01b0316836040518082805190602001908083835b60208310610eba5780518252601f199092019160209182019101610e9b565b6001836020036101000a0380198251168184511680821785525050505050509050019150506000604051808303816000865af19150503d8060008114610f1c576040519150601f19603f3d011682016040523d82523d6000602084013e610f21565b606091505b509150915081610f78576040805162461bcd60e51b815260206004820181905260248201527f5361666545524332303a206c6f772d6c6576656c2063616c6c206661696c6564604482015290519081900360640190fd5b805115610b4257808060200190516020811015610f9457600080fd5b5051610b425760405162461bcd60e51b815260040180806020018281038252602a815260200180610fd2602a913960400191505060405180910390fdfe5361666545524332303a204552433230206f7065726174696f6e20646964206e6f7420737563636565645361666545524332303a20617070726f76652066726f6d206e6f6e2d7a65726f20746f206e6f6e2d7a65726f20616c6c6f77616e6365a265627a7a7231582067e987fb9a48443726c35c8a9f498ec4b8001bdaafc5db098e99af8673051abd64736f6c634300051000325361666545524332303a204552433230206f7065726174696f6e20646964206e6f7420737563636565645361666545524332303a20617070726f76652066726f6d206e6f6e2d7a65726f20746f206e6f6e2d7a65726f20616c6c6f77616e6365",
  "linkReferences": {},
  "deployedLinkReferences": {}
}