{
  "_format": "hh-sol-artifact-1",
  "contractName": "SaveWrapper",
  "sourceName": "contracts/savings/peripheral/SaveWrapper.sol",
  "abi": [
    {
      "anonymous": false,
      "inputs": [
        {
          "indexed": true,
          "internalType": "address",
          "name": "previousOwner",
          "type": "address"
        },
        {
          "indexed": true,
          "internalType": "address",
          "name": "newOwner",
          "type": "address"
        }
      ],
      "name": "OwnershipTransferred",
      "type": "event"
    },
    {
      "inputs": [
        {
          "internalType": "address[]",
          "name": "_tokens",
          "type": "address[]"
        },
        {
          "internalType": "address",
          "name": "_spender",
          "type": "address"
        }
      ],
      "name": "approve",
      "outputs": [],
      "stateMutability": "nonpayable",
      "type": "function"
    },
    {
      "inputs": [
        {
          "internalType": "address",
          "name": "_token",
          "type": "address"
        },
        {
          "internalType": "address",
          "name": "_spender",
          "type": "address"
        }
      ],
      "name": "approve",
      "outputs": [],
      "stateMutability": "nonpayable",
      "type": "function"
    },
    {
      "inputs": [
        {
          "internalType": "address",
          "name": "_mAsset",
          "type": "address"
        },
        {
          "internalType": "address",
          "name": "_save",
          "type": "address"
        },
        {
          "internalType": "address",
          "name": "_vault",
          "type": "address"
        },
        {
          "internalType": "address[]",
          "name": "_bAssets",
          "type": "address[]"
        }
      ],
      "name": "approve",
      "outputs": [],
      "stateMutability": "nonpayable",
      "type": "function"
    },
    {
      "inputs": [
        {
          "internalType": "address",
          "name": "_mAsset",
          "type": "address"
        },
        {
          "internalType": "address",
          "name": "_uniswap",
          "type": "address"
        },
        {
          "internalType": "uint256",
          "name": "_ethAmount",
          "type": "uint256"
        },
        {
          "internalType": "address[]",
          "name": "_path",
          "type": "address[]"
        }
      ],
      "name": "estimate_saveViaUniswapETH",
      "outputs": [
        {
          "internalType": "uint256",
          "name": "out",
          "type": "uint256"
        }
      ],
      "stateMutability": "view",
      "type": "function"
    },
    {
      "inputs": [],
      "name": "owner",
      "outputs": [
        {
          "internalType": "address",
          "name": "",
          "type": "address"
        }
      ],
      "stateMutability": "view",
      "type": "function"
    },
    {
      "inputs": [],
      "name": "renounceOwnership",
      "outputs": [],
      "stateMutability": "nonpayable",
      "type": "function"
    },
    {
      "inputs": [
        {
          "internalType": "address",
          "name": "_mAsset",
          "type": "address"
        },
        {
          "internalType": "address",
          "name": "_save",
          "type": "address"
        },
        {
          "internalType": "address",
          "name": "_vault",
          "type": "address"
        },
        {
          "internalType": "uint256",
          "name": "_amount",
          "type": "uint256"
        }
      ],
      "name": "saveAndStake",
      "outputs": [],
      "stateMutability": "nonpayable",
      "type": "function"
    },
    {
      "inputs": [
        {
          "internalType": "address",
          "name": "_mAsset",
          "type": "address"
        },
        {
          "internalType": "address",
          "name": "_save",
          "type": "address"
        },
        {
          "internalType": "address",
          "name": "_vault",
          "type": "address"
        },
        {
          "internalType": "address",
          "name": "_bAsset",
          "type": "address"
        },
        {
          "internalType": "uint256",
          "name": "_amount",
          "type": "uint256"
        },
        {
          "internalType": "uint256",
          "name": "_minOut",
          "type": "uint256"
        },
        {
          "internalType": "bool",
          "name": "_stake",
          "type": "bool"
        }
      ],
      "name": "saveViaMint",
      "outputs": [],
      "stateMutability": "nonpayable",
      "type": "function"
    },
    {
      "inputs": [
        {
          "internalType": "address",
          "name": "_mAsset",
          "type": "address"
        },
        {
          "internalType": "address",
          "name": "_save",
          "type": "address"
        },
        {
          "internalType": "address",
          "name": "_vault",
          "type": "address"
        },
        {
          "internalType": "address",
          "name": "_uniswap",
          "type": "address"
        },
        {
          "internalType": "uint256",
          "name": "_amountOutMin",
          "type": "uint256"
        },
        {
          "internalType": "address[]",
          "name": "_path",
          "type": "address[]"
        },
        {
          "internalType": "uint256",
          "name": "_minOutMStable",
          "type": "uint256"
        },
        {
          "internalType": "bool",
          "name": "_stake",
          "type": "bool"
        }
      ],
      "name": "saveViaUniswapETH",
      "outputs": [],
      "stateMutability": "payable",
      "type": "function"
    },
    {
      "inputs": [
        {
          "internalType": "address",
          "name": "newOwner",
          "type": "address"
        }
      ],
      "name": "transferOwnership",
      "outputs": [],
      "stateMutability": "nonpayable",
      "type": "function"
    }
  ],
  "bytecode": "0x608060405234801561001057600080fd5b50600080546001600160a01b031916339081178255604051909182917f8be0079c531659141344cd1fd0a4f28419497f9722a3daafe3b4186f6b6457e0908290a350611958806100616000396000f3fe6080604052600436106100915760003560e01c80637e5465ba116100595780637e5465ba146101205780638da5cb5b14610140578063b6623e4c1461016d578063f2fde38b1461019b578063f9a13e2e146101bb57610091565b806338111242146100965780635011fe4e146100b857806364202c9f146100cb578063715018a6146100eb57806372a9f04214610100575b600080fd5b3480156100a257600080fd5b506100b66100b13660046113e8565b6101db565b005b6100b66100c636600461133d565b6103cf565b3480156100d757600080fd5b506100b66100e6366004611571565b610651565b3480156100f757600080fd5b506100b661068b565b34801561010c57600080fd5b506100b661011b3660046114d7565b6106ff565b34801561012c57600080fd5b506100b661013b36600461130b565b61080b565b34801561014c57600080fd5b506000546040516001600160a01b0390911681526020015b60405180910390f35b34801561017957600080fd5b5061018d610188366004611521565b610843565b604051908152602001610164565b3480156101a757600080fd5b506100b66101b63660046112f1565b6109cc565b3480156101c757600080fd5b506100b66101d6366004611463565b610ab6565b6001600160a01b03871661020a5760405162461bcd60e51b815260040161020190611752565b60405180910390fd5b6001600160a01b0386166102305760405162461bcd60e51b81526004016102019061172c565b6001600160a01b0385166102565760405162461bcd60e51b815260040161020190611705565b6001600160a01b03841661029d5760405162461bcd60e51b815260206004820152600e60248201526d125b9d985b1a590818905cdcd95d60921b6044820152606401610201565b6040516323b872dd60e01b8152336004820152306024820152604481018490526001600160a01b038516906323b872dd90606401602060405180830381600087803b1580156102eb57600080fd5b505af11580156102ff573d6000803e3d6000fd5b505050506040513d601f19601f820116820180604052508101906103239190611682565b50604051637ba5ff4760e11b81526001600160a01b03858116600483015260248201859052604482018490523060648301526000919089169063f74bfe8e90608401602060405180830381600087803b15801561037f57600080fd5b505af1158015610393573d6000803e3d6000fd5b505050506040513d601f19601f820116820180604052508101906103b7919061169e565b90506103c587878385610b06565b5050505050505050565b6001600160a01b0389166103f55760405162461bcd60e51b815260040161020190611752565b6001600160a01b03881661041b5760405162461bcd60e51b81526004016102019061172c565b6001600160a01b0387166104415760405162461bcd60e51b815260040161020190611705565b6001600160a01b0386166104895760405162461bcd60e51b815260206004820152600f60248201526e0496e76616c696420756e697377617608c1b6044820152606401610201565b60006001600160a01b038716637ff36ab534888888306104ab426103e861186f565b6040518763ffffffff1660e01b81526004016104cb9594939291906117af565b6000604051808303818588803b1580156104e457600080fd5b505af11580156104f8573d6000803e3d6000fd5b50505050506040513d6000823e601f3d908101601f1916820160405261052191908101906115c3565b905060006001600160a01b038b1663f74bfe8e8787610541600182611887565b81811061055e57634e487b7160e01b600052603260045260246000fd5b905060200201602081019061057391906112f1565b84600186516105829190611887565b815181106105a057634e487b7160e01b600052603260045260246000fd5b60209081029190910101516040516001600160e01b031960e085901b1681526001600160a01b039092166004830152602482015260448101879052306064820152608401602060405180830381600087803b1580156105fe57600080fd5b505af1158015610612573d6000803e3d6000fd5b505050506040513d601f19601f82011682018060405250810190610636919061169e565b90506106448a8a8386610b06565b5050505050505050505050565b6000546001600160a01b0316331461067b5760405162461bcd60e51b81526004016102019061177a565b610686838383610c78565b505050565b6000546001600160a01b031633146106b55760405162461bcd60e51b81526004016102019061177a565b600080546040516001600160a01b03909116907f8be0079c531659141344cd1fd0a4f28419497f9722a3daafe3b4186f6b6457e0908390a3600080546001600160a01b0319169055565b6001600160a01b0384166107255760405162461bcd60e51b815260040161020190611752565b6001600160a01b03831661074b5760405162461bcd60e51b81526004016102019061172c565b6001600160a01b0382166107715760405162461bcd60e51b815260040161020190611705565b6040516323b872dd60e01b8152336004820152306024820152604481018290526001600160a01b038516906323b872dd90606401602060405180830381600087803b1580156107bf57600080fd5b505af11580156107d3573d6000803e3d6000fd5b505050506040513d601f19601f820116820180604052508101906107f79190611682565b506108058383836001610b06565b50505050565b6000546001600160a01b031633146108355760405162461bcd60e51b81526004016102019061177a565b61083f8282610da7565b5050565b60006001600160a01b03861661086b5760405162461bcd60e51b815260040161020190611752565b6001600160a01b0385166108b35760405162461bcd60e51b815260206004820152600f60248201526e0496e76616c696420756e697377617608c1b6044820152606401610201565b60006108f38686868680806020026020016040519081016040528093929190818152602001838360200280828437600092019190915250610e4b92505050565b90506001600160a01b03871663119849cf8585610911600182611887565b81811061092e57634e487b7160e01b600052603260045260246000fd5b905060200201602081019061094391906112f1565b6040516001600160e01b031960e084901b1681526001600160a01b0390911660048201526024810184905260440160206040518083038186803b15801561098957600080fd5b505afa15801561099d573d6000803e3d6000fd5b505050506040513d601f19601f820116820180604052508101906109c1919061169e565b979650505050505050565b6000546001600160a01b031633146109f65760405162461bcd60e51b81526004016102019061177a565b6001600160a01b038116610a5b5760405162461bcd60e51b815260206004820152602660248201527f4f776e61626c653a206e6577206f776e657220697320746865207a65726f206160448201526564647265737360d01b6064820152608401610201565b600080546040516001600160a01b03808516939216917f8be0079c531659141344cd1fd0a4f28419497f9722a3daafe3b4186f6b6457e091a3600080546001600160a01b0319166001600160a01b0392909216919091179055565b6000546001600160a01b03163314610ae05760405162461bcd60e51b81526004016102019061177a565b610aea8585610da7565b610af48484610da7565b610aff828287610c78565b5050505050565b8015610bf85760405163590745c560e01b8152600481018390523060248201526000906001600160a01b0386169063590745c590604401602060405180830381600087803b158015610b5757600080fd5b505af1158015610b6b573d6000803e3d6000fd5b505050506040513d601f19601f82011682018060405250810190610b8f919061169e565b6040516356e4bb9760e11b8152336004820152602481018290529091506001600160a01b0385169063adc9772e90604401600060405180830381600087803b158015610bda57600080fd5b505af1158015610bee573d6000803e3d6000fd5b5050505050610805565b60405163590745c560e01b8152600481018390523360248201526001600160a01b0385169063590745c590604401602060405180830381600087803b158015610c4057600080fd5b505af1158015610c54573d6000803e3d6000fd5b505050506040513d601f19601f82011682018060405250810190610aff919061169e565b6001600160a01b038116610cc05760405162461bcd60e51b815260206004820152600f60248201526e24b73b30b634b21039b832b73232b960891b6044820152606401610201565b60005b82811015610805576000848483818110610ced57634e487b7160e01b600052603260045260246000fd5b9050602002016020810190610d0291906112f1565b6001600160a01b03161415610d495760405162461bcd60e51b815260206004820152600d60248201526c24b73b30b634b2103a37b5b2b760991b6044820152606401610201565b610d9582600019868685818110610d7057634e487b7160e01b600052603260045260246000fd5b9050602002016020810190610d8591906112f1565b6001600160a01b03169190610f12565b80610d9f816118ca565b915050610cc3565b6001600160a01b038116610def5760405162461bcd60e51b815260206004820152600f60248201526e24b73b30b634b21039b832b73232b960891b6044820152606401610201565b6001600160a01b038216610e355760405162461bcd60e51b815260206004820152600d60248201526c24b73b30b634b2103a37b5b2b760991b6044820152606401610201565b61083f6001600160a01b03831682600019610f12565b600080846001600160a01b031663d06ca61f85856040518363ffffffff1660e01b8152600401610e7c929190611819565b60006040518083038186803b158015610e9457600080fd5b505afa158015610ea8573d6000803e3d6000fd5b505050506040513d6000823e601f3d908101601f19168201604052610ed091908101906115c3565b90508060018251610ee19190611887565b81518110610eff57634e487b7160e01b600052603260045260246000fd5b60200260200101519150505b9392505050565b801580610f9b5750604051636eb1769f60e11b81523060048201526001600160a01b03838116602483015284169063dd62ed3e9060440160206040518083038186803b158015610f6157600080fd5b505afa158015610f75573d6000803e3d6000fd5b505050506040513d601f19601f82011682018060405250810190610f99919061169e565b155b6110065760405162461bcd60e51b815260206004820152603660248201527f5361666545524332303a20617070726f76652066726f6d206e6f6e2d7a65726f60448201527520746f206e6f6e2d7a65726f20616c6c6f77616e636560501b6064820152608401610201565b604080516001600160a01b03848116602483015260448083018590528351808403909101815260649092018352602080830180516001600160e01b031663095ea7b360e01b17905283518085019094528084527f5361666545524332303a206c6f772d6c6576656c2063616c6c206661696c65649084015261068692869291600091611096918516908490611113565b80519091501561068657808060200190518101906110b49190611682565b6106865760405162461bcd60e51b815260206004820152602a60248201527f5361666545524332303a204552433230206f7065726174696f6e20646964206e6044820152691bdd081cdd58d8d9595960b21b6064820152608401610201565b6060611122848460008561112a565b949350505050565b60608247101561118b5760405162461bcd60e51b815260206004820152602660248201527f416464726573733a20696e73756666696369656e742062616c616e636520666f6044820152651c8818d85b1b60d21b6064820152608401610201565b6111948561124e565b6111e05760405162461bcd60e51b815260206004820152601d60248201527f416464726573733a2063616c6c20746f206e6f6e2d636f6e74726163740000006044820152606401610201565b600080866001600160a01b031685876040516111fc91906116b6565b60006040518083038185875af1925050503d8060008114611239576040519150601f19603f3d011682016040523d82523d6000602084013e61123e565b606091505b50915091506109c1828286611258565b803b15155b919050565b60608315611267575081610f0b565b8251156112775782518084602001fd5b8160405162461bcd60e51b815260040161020191906116d2565b80356001600160a01b038116811461125357600080fd5b60008083601f8401126112b9578081fd5b50813567ffffffffffffffff8111156112d0578182fd5b60208301915083602080830285010111156112ea57600080fd5b9250929050565b600060208284031215611302578081fd5b610f0b82611291565b6000806040838503121561131d578081fd5b61132683611291565b915061133460208401611291565b90509250929050565b60008060008060008060008060006101008a8c03121561135b578485fd5b6113648a611291565b985061137260208b01611291565b975061138060408b01611291565b965061138e60608b01611291565b955060808a0135945060a08a013567ffffffffffffffff8111156113b0578485fd5b6113bc8c828d016112a8565b90955093505060c08a0135915060e08a01356113d781611911565b809150509295985092959850929598565b600080600080600080600060e0888a031215611402578283fd5b61140b88611291565b965061141960208901611291565b955061142760408901611291565b945061143560608901611291565b93506080880135925060a0880135915060c088013561145381611911565b8091505092959891949750929550565b60008060008060006080868803121561147a578081fd5b61148386611291565b945061149160208701611291565b935061149f60408701611291565b9250606086013567ffffffffffffffff8111156114ba578182fd5b6114c6888289016112a8565b969995985093965092949392505050565b600080600080608085870312156114ec578384fd5b6114f585611291565b935061150360208601611291565b925061151160408601611291565b9396929550929360600135925050565b600080600080600060808688031215611538578081fd5b61154186611291565b945061154f60208701611291565b935060408601359250606086013567ffffffffffffffff8111156114ba578182fd5b600080600060408486031215611585578283fd5b833567ffffffffffffffff81111561159b578384fd5b6115a7868287016112a8565b90945092506115ba905060208501611291565b90509250925092565b600060208083850312156115d5578182fd5b825167ffffffffffffffff808211156115ec578384fd5b818501915085601f8301126115ff578384fd5b815181811115611611576116116118fb565b838102604051601f19603f83011681018181108582111715611635576116356118fb565b604052828152858101935084860182860187018a1015611653578788fd5b8795505b83861015611675578051855260019590950194938601938601611657565b5098975050505050505050565b600060208284031215611693578081fd5b8151610f0b81611911565b6000602082840312156116af578081fd5b5051919050565b600082516116c881846020870161189e565b9190910192915050565b60006020825282518060208401526116f181604085016020870161189e565b601f01601f19169190910160400192915050565b6020808252600d908201526c125b9d985b1a59081d985d5b1d609a1b604082015260600190565b6020808252600c908201526b496e76616c6964207361766560a01b604082015260600190565b6020808252600e908201526d125b9d985b1a59081b505cdcd95d60921b604082015260600190565b6020808252818101527f4f776e61626c653a2063616c6c6572206973206e6f7420746865206f776e6572604082015260600190565b85815260806020808301829052908201859052600090869060a08401835b888110156117f9576001600160a01b036117e685611291565b16825292820192908201906001016117cd565b506001600160a01b03969096166040850152505050606001529392505050565b60006040820184835260206040818501528185518084526060860191508287019350845b818110156118625784516001600160a01b03168352938301939183019160010161183d565b5090979650505050505050565b60008219821115611882576118826118e5565b500190565b600082821015611899576118996118e5565b500390565b60005b838110156118b95781810151838201526020016118a1565b838111156108055750506000910152565b60006000198214156118de576118de6118e5565b5060010190565b634e487b7160e01b600052601160045260246000fd5b634e487b7160e01b600052604160045260246000fd5b801515811461191f57600080fd5b5056fea264697066735822122041f8902acf27ffe8ff89ce6a7ba9aa9a5d6e95217982e5456b7a917e0bf3b42a64736f6c63430008020033",
  "linkReferences": {},
  "deployedLinkReferences": {}
}