{
  "_format": "hh-sol-artifact-1",
  "contractName": "SavingsContract",
  "sourceName": "contracts/savings/SavingsContract.sol",
  "abi": [
    {
      "anonymous": false,
      "inputs": [
        {
          "indexed": true,
          "internalType": "address",
          "name": "owner",
          "type": "address"
        },
        {
          "indexed": true,
          "internalType": "address",
          "name": "spender",
          "type": "address"
        },
        {
          "indexed": false,
          "internalType": "uint256",
          "name": "value",
          "type": "uint256"
        }
      ],
      "name": "Approval",
      "type": "event"
    },
    {
      "anonymous": false,
      "inputs": [
        {
          "indexed": false,
          "internalType": "bool",
          "name": "automationEnabled",
          "type": "bool"
        }
      ],
      "name": "AutomaticInterestCollectionSwitched",
      "type": "event"
    },
    {
      "anonymous": false,
      "inputs": [
        {
          "indexed": false,
          "internalType": "address",
          "name": "connector",
          "type": "address"
        }
      ],
      "name": "ConnectorUpdated",
      "type": "event"
    },
    {
      "anonymous": false,
      "inputs": [
        {
          "indexed": true,
          "internalType": "address",
          "name": "redeemer",
          "type": "address"
        },
        {
          "indexed": false,
          "internalType": "uint256",
          "name": "creditsRedeemed",
          "type": "uint256"
        },
        {
          "indexed": false,
          "internalType": "uint256",
          "name": "savingsCredited",
          "type": "uint256"
        }
      ],
      "name": "CreditsRedeemed",
      "type": "event"
    },
    {
      "anonymous": false,
      "inputs": [],
      "name": "EmergencyUpdate",
      "type": "event"
    },
    {
      "anonymous": false,
      "inputs": [
        {
          "indexed": false,
          "internalType": "uint256",
          "name": "newExchangeRate",
          "type": "uint256"
        },
        {
          "indexed": false,
          "internalType": "uint256",
          "name": "interestCollected",
          "type": "uint256"
        }
      ],
      "name": "ExchangeRateUpdated",
      "type": "event"
    },
    {
      "anonymous": false,
      "inputs": [
        {
          "indexed": false,
          "internalType": "uint256",
          "name": "fraction",
          "type": "uint256"
        }
      ],
      "name": "FractionUpdated",
      "type": "event"
    },
    {
      "anonymous": false,
      "inputs": [
        {
          "indexed": false,
          "internalType": "uint256",
          "name": "oldBalance",
          "type": "uint256"
        },
        {
          "indexed": false,
          "internalType": "uint256",
          "name": "newBalance",
          "type": "uint256"
        },
        {
          "indexed": false,
          "internalType": "uint256",
          "name": "interestDetected",
          "type": "uint256"
        }
      ],
      "name": "Poked",
      "type": "event"
    },
    {
      "anonymous": false,
      "inputs": [],
      "name": "PokedRaw",
      "type": "event"
    },
    {
      "anonymous": false,
      "inputs": [
        {
          "indexed": false,
          "internalType": "address",
          "name": "poker",
          "type": "address"
        }
      ],
      "name": "PokerUpdated",
      "type": "event"
    },
    {
      "anonymous": false,
      "inputs": [
        {
          "indexed": true,
          "internalType": "address",
          "name": "saver",
          "type": "address"
        },
        {
          "indexed": false,
          "internalType": "uint256",
          "name": "savingsDeposited",
          "type": "uint256"
        },
        {
          "indexed": false,
          "internalType": "uint256",
          "name": "creditsIssued",
          "type": "uint256"
        }
      ],
      "name": "SavingsDeposited",
      "type": "event"
    },
    {
      "anonymous": false,
      "inputs": [
        {
          "indexed": true,
          "internalType": "address",
          "name": "from",
          "type": "address"
        },
        {
          "indexed": true,
          "internalType": "address",
          "name": "to",
          "type": "address"
        },
        {
          "indexed": false,
          "internalType": "uint256",
          "name": "value",
          "type": "uint256"
        }
      ],
      "name": "Transfer",
      "type": "event"
    },
    {
      "constant": true,
      "inputs": [
        {
          "internalType": "address",
          "name": "owner",
          "type": "address"
        },
        {
          "internalType": "address",
          "name": "spender",
          "type": "address"
        }
      ],
      "name": "allowance",
      "outputs": [
        {
          "internalType": "uint256",
          "name": "",
          "type": "uint256"
        }
      ],
      "payable": false,
      "stateMutability": "view",
      "type": "function"
    },
    {
      "constant": false,
      "inputs": [
        {
          "internalType": "address",
          "name": "spender",
          "type": "address"
        },
        {
          "internalType": "uint256",
          "name": "amount",
          "type": "uint256"
        }
      ],
      "name": "approve",
      "outputs": [
        {
          "internalType": "bool",
          "name": "",
          "type": "bool"
        }
      ],
      "payable": false,
      "stateMutability": "nonpayable",
      "type": "function"
    },
    {
      "constant": false,
      "inputs": [
        {
          "internalType": "bool",
          "name": "_enabled",
          "type": "bool"
        }
      ],
      "name": "automateInterestCollectionFlag",
      "outputs": [],
      "payable": false,
      "stateMutability": "nonpayable",
      "type": "function"
    },
    {
      "constant": true,
      "inputs": [
        {
          "internalType": "address",
          "name": "account",
          "type": "address"
        }
      ],
      "name": "balanceOf",
      "outputs": [
        {
          "internalType": "uint256",
          "name": "",
          "type": "uint256"
        }
      ],
      "payable": false,
      "stateMutability": "view",
      "type": "function"
    },
    {
      "constant": true,
      "inputs": [
        {
          "internalType": "address",
          "name": "_user",
          "type": "address"
        }
      ],
      "name": "balanceOfUnderlying",
      "outputs": [
        {
          "internalType": "uint256",
          "name": "balance",
          "type": "uint256"
        }
      ],
      "payable": false,
      "stateMutability": "view",
      "type": "function"
    },
    {
      "constant": true,
      "inputs": [],
      "name": "connector",
      "outputs": [
        {
          "internalType": "contract IConnector",
          "name": "",
          "type": "address"
        }
      ],
      "payable": false,
      "stateMutability": "view",
      "type": "function"
    },
    {
      "constant": true,
      "inputs": [
        {
          "internalType": "address",
          "name": "_user",
          "type": "address"
        }
      ],
      "name": "creditBalances",
      "outputs": [
        {
          "internalType": "uint256",
          "name": "",
          "type": "uint256"
        }
      ],
      "payable": false,
      "stateMutability": "view",
      "type": "function"
    },
    {
      "constant": true,
      "inputs": [
        {
          "internalType": "uint256",
          "name": "_credits",
          "type": "uint256"
        }
      ],
      "name": "creditsToUnderlying",
      "outputs": [
        {
          "internalType": "uint256",
          "name": "amount",
          "type": "uint256"
        }
      ],
      "payable": false,
      "stateMutability": "view",
      "type": "function"
    },
    {
      "constant": true,
      "inputs": [],
      "name": "decimals",
      "outputs": [
        {
          "internalType": "uint8",
          "name": "",
          "type": "uint8"
        }
      ],
      "payable": false,
      "stateMutability": "view",
      "type": "function"
    },
    {
      "constant": false,
      "inputs": [
        {
          "internalType": "address",
          "name": "spender",
          "type": "address"
        },
        {
          "internalType": "uint256",
          "name": "subtractedValue",
          "type": "uint256"
        }
      ],
      "name": "decreaseAllowance",
      "outputs": [
        {
          "internalType": "bool",
          "name": "",
          "type": "bool"
        }
      ],
      "payable": false,
      "stateMutability": "nonpayable",
      "type": "function"
    },
    {
      "constant": false,
      "inputs": [
        {
          "internalType": "uint256",
          "name": "_amount",
          "type": "uint256"
        }
      ],
      "name": "depositInterest",
      "outputs": [],
      "payable": false,
      "stateMutability": "nonpayable",
      "type": "function"
    },
    {
      "constant": false,
      "inputs": [
        {
          "internalType": "uint256",
          "name": "_underlying",
          "type": "uint256"
        },
        {
          "internalType": "address",
          "name": "_beneficiary",
          "type": "address"
        }
      ],
      "name": "depositSavings",
      "outputs": [
        {
          "internalType": "uint256",
          "name": "creditsIssued",
          "type": "uint256"
        }
      ],
      "payable": false,
      "stateMutability": "nonpayable",
      "type": "function"
    },
    {
      "constant": false,
      "inputs": [
        {
          "internalType": "uint256",
          "name": "_underlying",
          "type": "uint256"
        }
      ],
      "name": "depositSavings",
      "outputs": [
        {
          "internalType": "uint256",
          "name": "creditsIssued",
          "type": "uint256"
        }
      ],
      "payable": false,
      "stateMutability": "nonpayable",
      "type": "function"
    },
    {
      "constant": false,
      "inputs": [
        {
          "internalType": "uint256",
          "name": "_withdrawAmount",
          "type": "uint256"
        }
      ],
      "name": "emergencyWithdraw",
      "outputs": [],
      "payable": false,
      "stateMutability": "nonpayable",
      "type": "function"
    },
    {
      "constant": true,
      "inputs": [],
      "name": "exchangeRate",
      "outputs": [
        {
          "internalType": "uint256",
          "name": "",
          "type": "uint256"
        }
      ],
      "payable": false,
      "stateMutability": "view",
      "type": "function"
    },
    {
      "constant": true,
      "inputs": [],
      "name": "fraction",
      "outputs": [
        {
          "internalType": "uint256",
          "name": "",
          "type": "uint256"
        }
      ],
      "payable": false,
      "stateMutability": "view",
      "type": "function"
    },
    {
      "constant": false,
      "inputs": [
        {
          "internalType": "address",
          "name": "spender",
          "type": "address"
        },
        {
          "internalType": "uint256",
          "name": "addedValue",
          "type": "uint256"
        }
      ],
      "name": "increaseAllowance",
      "outputs": [
        {
          "internalType": "bool",
          "name": "",
          "type": "bool"
        }
      ],
      "payable": false,
      "stateMutability": "nonpayable",
      "type": "function"
    },
    {
      "constant": false,
      "inputs": [
        {
          "internalType": "address",
          "name": "_nexus",
          "type": "address"
        },
        {
          "internalType": "address",
          "name": "_poker",
          "type": "address"
        },
        {
          "internalType": "contract IERC20",
          "name": "_underlying",
          "type": "address"
        },
        {
          "internalType": "string",
          "name": "_nameArg",
          "type": "string"
        },
        {
          "internalType": "string",
          "name": "_symbolArg",
          "type": "string"
        }
      ],
      "name": "initialize",
      "outputs": [],
      "payable": false,
      "stateMutability": "nonpayable",
      "type": "function"
    },
    {
      "constant": true,
      "inputs": [],
      "name": "lastBalance",
      "outputs": [
        {
          "internalType": "uint256",
          "name": "",
          "type": "uint256"
        }
      ],
      "payable": false,
      "stateMutability": "view",
      "type": "function"
    },
    {
      "constant": true,
      "inputs": [],
      "name": "lastPoke",
      "outputs": [
        {
          "internalType": "uint256",
          "name": "",
          "type": "uint256"
        }
      ],
      "payable": false,
      "stateMutability": "view",
      "type": "function"
    },
    {
      "constant": true,
      "inputs": [],
      "name": "name",
      "outputs": [
        {
          "internalType": "string",
          "name": "",
          "type": "string"
        }
      ],
      "payable": false,
      "stateMutability": "view",
      "type": "function"
    },
    {
      "constant": true,
      "inputs": [],
      "name": "nexus",
      "outputs": [
        {
          "internalType": "contract INexus",
          "name": "",
          "type": "address"
        }
      ],
      "payable": false,
      "stateMutability": "view",
      "type": "function"
    },
    {
      "constant": false,
      "inputs": [],
      "name": "poke",
      "outputs": [],
      "payable": false,
      "stateMutability": "nonpayable",
      "type": "function"
    },
    {
      "constant": true,
      "inputs": [],
      "name": "poker",
      "outputs": [
        {
          "internalType": "address",
          "name": "",
          "type": "address"
        }
      ],
      "payable": false,
      "stateMutability": "view",
      "type": "function"
    },
    {
      "constant": false,
      "inputs": [
        {
          "internalType": "uint256",
          "name": "_underlying",
          "type": "uint256"
        },
        {
          "internalType": "address",
          "name": "_beneficiary",
          "type": "address"
        }
      ],
      "name": "preDeposit",
      "outputs": [
        {
          "internalType": "uint256",
          "name": "creditsIssued",
          "type": "uint256"
        }
      ],
      "payable": false,
      "stateMutability": "nonpayable",
      "type": "function"
    },
    {
      "constant": false,
      "inputs": [
        {
          "internalType": "uint256",
          "name": "_credits",
          "type": "uint256"
        }
      ],
      "name": "redeem",
      "outputs": [
        {
          "internalType": "uint256",
          "name": "massetReturned",
          "type": "uint256"
        }
      ],
      "payable": false,
      "stateMutability": "nonpayable",
      "type": "function"
    },
    {
      "constant": false,
      "inputs": [
        {
          "internalType": "uint256",
          "name": "_credits",
          "type": "uint256"
        }
      ],
      "name": "redeemCredits",
      "outputs": [
        {
          "internalType": "uint256",
          "name": "massetReturned",
          "type": "uint256"
        }
      ],
      "payable": false,
      "stateMutability": "nonpayable",
      "type": "function"
    },
    {
      "constant": false,
      "inputs": [
        {
          "internalType": "uint256",
          "name": "_underlying",
          "type": "uint256"
        }
      ],
      "name": "redeemUnderlying",
      "outputs": [
        {
          "internalType": "uint256",
          "name": "creditsBurned",
          "type": "uint256"
        }
      ],
      "payable": false,
      "stateMutability": "nonpayable",
      "type": "function"
    },
    {
      "constant": false,
      "inputs": [
        {
          "internalType": "address",
          "name": "_newConnector",
          "type": "address"
        }
      ],
      "name": "setConnector",
      "outputs": [],
      "payable": false,
      "stateMutability": "nonpayable",
      "type": "function"
    },
    {
      "constant": false,
      "inputs": [
        {
          "internalType": "uint256",
          "name": "_fraction",
          "type": "uint256"
        }
      ],
      "name": "setFraction",
      "outputs": [],
      "payable": false,
      "stateMutability": "nonpayable",
      "type": "function"
    },
    {
      "constant": false,
      "inputs": [
        {
          "internalType": "address",
          "name": "_newPoker",
          "type": "address"
        }
      ],
      "name": "setPoker",
      "outputs": [],
      "payable": false,
      "stateMutability": "nonpayable",
      "type": "function"
    },
    {
      "constant": true,
      "inputs": [],
      "name": "symbol",
      "outputs": [
        {
          "internalType": "string",
          "name": "",
          "type": "string"
        }
      ],
      "payable": false,
      "stateMutability": "view",
      "type": "function"
    },
    {
      "constant": true,
      "inputs": [],
      "name": "totalSupply",
      "outputs": [
        {
          "internalType": "uint256",
          "name": "",
          "type": "uint256"
        }
      ],
      "payable": false,
      "stateMutability": "view",
      "type": "function"
    },
    {
      "constant": false,
      "inputs": [
        {
          "internalType": "address",
          "name": "recipient",
          "type": "address"
        },
        {
          "internalType": "uint256",
          "name": "amount",
          "type": "uint256"
        }
      ],
      "name": "transfer",
      "outputs": [
        {
          "internalType": "bool",
          "name": "",
          "type": "bool"
        }
      ],
      "payable": false,
      "stateMutability": "nonpayable",
      "type": "function"
    },
    {
      "constant": false,
      "inputs": [
        {
          "internalType": "address",
          "name": "sender",
          "type": "address"
        },
        {
          "internalType": "address",
          "name": "recipient",
          "type": "address"
        },
        {
          "internalType": "uint256",
          "name": "amount",
          "type": "uint256"
        }
      ],
      "name": "transferFrom",
      "outputs": [
        {
          "internalType": "bool",
          "name": "",
          "type": "bool"
        }
      ],
      "payable": false,
      "stateMutability": "nonpayable",
      "type": "function"
    },
    {
      "constant": true,
      "inputs": [],
      "name": "underlying",
      "outputs": [
        {
          "internalType": "contract IERC20",
          "name": "",
          "type": "address"
        }
      ],
      "payable": false,
      "stateMutability": "view",
      "type": "function"
    },
    {
      "constant": true,
      "inputs": [
        {
          "internalType": "uint256",
          "name": "_underlying",
          "type": "uint256"
        }
      ],
      "name": "underlyingToCredits",
      "outputs": [
        {
          "internalType": "uint256",
          "name": "credits",
          "type": "uint256"
        }
      ],
      "payable": false,
      "stateMutability": "view",
      "type": "function"
    }
  ],
  "bytecode": "0x6080604052612fe2806100136000396000f3fe608060405234801561001057600080fd5b50600436106102265760003560e01c80636f307dc311610130578063a453b6cf116100b8578063cbe541731161007c578063cbe54173146106fb578063d8894bb51461071a578063db006a7514610722578063dd62ed3e1461073f578063f4430dd81461076d57610226565b8063a453b6cf14610661578063a457c2d71461067e578063a9059cbb146106aa578063c4ec22ad146106d6578063c9f18ebd146106de57610226565b806383f3084f116100ff57806383f3084f14610624578063852a12e31461062c5780638f1c56bd1461064957806395d89b4114610651578063a3f5c1d21461065957610226565b80636f307dc3146104f657806370a08231146104fe5780637781b05a1461052457806383b435891461054157610226565b8063313ce567116101b357806343e38da81161018257806343e38da8146104465780634b6bdf1d146104635780635312ea8e14610487578063590745c5146104a45780636009a2d8146104d057610226565b8063313ce567146103ce57806339509351146103ec5780633af9e669146104185780633ba0b9a91461043e57610226565b806318160ddd116101fa57806318160ddd1461034e5780631817835814610356578063182815b01461035e578063220c5bbb1461037b57806323b872dd1461039857610226565b80625745991461022b57806306fdde0314610269578063095ea7b3146102e657806310188aef14610326575b600080fd5b6102576004803603604081101561024157600080fd5b50803590602001356001600160a01b0316610793565b60408051918252519081900360200190f35b6102716107f2565b6040805160208082528351818301528351919283929083019185019080838360005b838110156102ab578181015183820152602001610293565b50505050905090810190601f1680156102d85780820380516001836020036101000a031916815260200191505b509250505060405180910390f35b610312600480360360408110156102fc57600080fd5b506001600160a01b038135169060200135610889565b604080519115158252519081900360200190f35b61034c6004803603602081101561033c57600080fd5b50356001600160a01b03166108a6565b005b61025761099b565b61034c6109a1565b61034c6004803603602081101561037457600080fd5b5035610a19565b61034c6004803603602081101561039157600080fd5b5035610b2a565b610312600480360360608110156103ae57600080fd5b506001600160a01b03813581169160208101359091169060400135610d33565b6103d6610dc0565b6040805160ff9092168252519081900360200190f35b6103126004803603604081101561040257600080fd5b506001600160a01b038135169060200135610dc9565b6102576004803603602081101561042e57600080fd5b50356001600160a01b0316610e1d565b610257610e37565b6102576004803603602081101561045c57600080fd5b5035610e3d565b61046b610e48565b604080516001600160a01b039092168252519081900360200190f35b61034c6004803603602081101561049d57600080fd5b5035610e57565b610257600480360360408110156104ba57600080fd5b50803590602001356001600160a01b0316610fe7565b610257600480360360208110156104e657600080fd5b50356001600160a01b0316610ff5565b61046b611000565b6102576004803603602081101561051457600080fd5b50356001600160a01b031661100f565b6102576004803603602081101561053a57600080fd5b503561102a565b61034c600480360360a081101561055757600080fd5b6001600160a01b038235811692602081013582169260408201359092169181019060808101606082013564010000000081111561059357600080fd5b8201836020820111156105a557600080fd5b803590602001918460018302840111640100000000831117156105c757600080fd5b9193909290916020810190356401000000008111156105e557600080fd5b8201836020820111156105f757600080fd5b8035906020019184600183028401116401000000008311171561061957600080fd5b509092509050611035565b61046b611261565b6102576004803603602081101561064257600080fd5b5035611270565b610257611399565b61027161139f565b61046b611400565b6102576004803603602081101561067757600080fd5b503561140f565b6103126004803603604081101561069457600080fd5b506001600160a01b03813516906020013561141d565b610312600480360360408110156106c057600080fd5b506001600160a01b03813516906020013561148b565b61025761149f565b610257600480360360208110156106f457600080fd5b50356114a5565b61034c6004803603602081101561071157600080fd5b5035151561158c565b61025761163a565b6102576004803603602081101561073857600080fd5b5035611640565b6102576004803603604081101561075557600080fd5b506001600160a01b0381358116916020013516611729565b61034c6004803603602081101561078357600080fd5b50356001600160a01b0316611754565b600060425467016345785d8a0000146107dd5760405162461bcd60e51b8152600401808060200182810382526030815260200180612d946030913960400191505060405180910390fd5b6107e98383600161186a565b90505b92915050565b60368054604080516020601f600260001961010060018816150201909516949094049384018190048102820181019092528281526060939092909183018282801561087e5780601f106108535761010080835404028352916020019161087e565b820191906000526020600020905b81548152906001019060200180831161086157829003601f168201915b505050505090505b90565b600061089d610896611a6b565b8484611a6f565b50600192915050565b6108ae611b5b565b6001600160a01b0316336001600160a01b031614610901576040805162461bcd60e51b81526020600482015260196024820152600080516020612e5b833981519152604482015290519081900360640190fd5b610909612c9d565b610911611bd1565b600081529050610922816001611c7b565b61092a612c9d565b610932611bd1565b604880546001600160a01b0319166001600160a01b038616179055905061095a816001611c7b565b604080516001600160a01b038516815290517fa69fcd183e7a93ec06820fdd33d015efbd84f4363ecd4c0ca0405c1220888a129181900360200190a1505050565b60355490565b6044546001600160a01b031633146109f9576040805162461bcd60e51b81526020600482015260166024820152754f6e6c7920706f6b65722063616e206578656375746560501b604482015290519081900360640190fd5b610a01612c9d565b610a09611bd1565b9050610a16816000611c7b565b50565b610a21611b5b565b6001600160a01b0316336001600160a01b031614610a74576040805162461bcd60e51b81526020600482015260196024820152600080516020612e5b833981519152604482015290519081900360640190fd5b6706f05b59d3b20000811115610ad1576040805162461bcd60e51b815260206004820152601760248201527f4672616374696f6e206d757374206265203c3d20353025000000000000000000604482015290519081900360640190fd5b6047819055610ade612c9d565b610ae6611bd1565b9050610af3816001611c7b565b6040805183815290517f9e73ab667f43467c2a324114c461b2bd6fcf80f8e92918085a459d67438d62f39181900360200190a15050565b610b32612042565b6001600160a01b0316336001600160a01b031614610b97576040805162461bcd60e51b815260206004820181905260248201527f4f6e6c7920736176696e6773206d616e616765722063616e2065786563757465604482015290519081900360640190fd5b60008111610be5576040805162461bcd60e51b81526020600482015260166024820152754d757374206465706f73697420736f6d657468696e6760501b604482015290519081900360640190fd5b604354604080516323b872dd60e01b81523360048201523060248201526044810184905290516001600160a01b03909216916323b872dd916064808201926020929091908290030181600087803b158015610c3f57600080fd5b505af1158015610c53573d6000803e3d6000fd5b505050506040513d6020811015610c6957600080fd5b5051610cb2576040805162461bcd60e51b81526020600482015260136024820152724d757374207265636569766520746f6b656e7360681b604482015290519081900360640190fd5b6000610cbc61099b565b90508015610d2f576000610cd08383612091565b90506000610ce9826042546120a390919063ffffffff16565b6042819055604080518281526020810187905281519293507fc8d1043f24843c0a1c9251fdc30017d84e87498fbcf232af9f86816b5e182bde929081900390910190a150505b5050565b6000610d408484846120fd565b610db684610d4c611a6b565b610db185604051806060016040528060288152602001612e9c602891396001600160a01b038a16600090815260346020526040812090610d8a611a6b565b6001600160a01b03168152602081019190915260400160002054919063ffffffff61225b16565b611a6f565b5060019392505050565b60385460ff1690565b600061089d610dd6611a6b565b84610db18560346000610de7611a6b565b6001600160a01b03908116825260208083019390935260409182016000908120918c16815292529020549063ffffffff6120a316565b6000610e30610e2b8361100f565b6122f2565b5092915050565b60425481565b6000610e308261230f565b6044546001600160a01b031681565b610e5f611b5b565b6001600160a01b0316336001600160a01b031614610eb2576040805162461bcd60e51b81526020600482015260196024820152600080516020612e5b833981519152604482015290519081900360640190fd5b60485460408051632e1a7d4d60e01b81526004810184905290516001600160a01b0390921691632e1a7d4d9160248082019260009290919082900301818387803b158015610eff57600080fd5b505af1158015610f13573d6000803e3d6000fd5b5050604880546001600160a01b03191690555050604080516000815290517fa69fcd183e7a93ec06820fdd33d015efbd84f4363ecd4c0ca0405c1220888a129181900360200190a16000604781905560408051918252517f9e73ab667f43467c2a324114c461b2bd6fcf80f8e92918085a459d67438d62f39181900360200190a1610f9c612c9d565b610fa4611bd1565b9050610fba816020015182604001516001612336565b6040517f834278d829ecf99d9ab0d75d6bdda3ed701c4ed9675f560e8f03de69240be76490600090a15050565b60006107e98383600061186a565b60006107ec8261100f565b6043546001600160a01b031681565b6001600160a01b031660009081526033602052604090205490565b6000610e30826122f2565b600054610100900460ff168061104e575061104e6123fc565b8061105c575060005460ff16155b6110975760405162461bcd60e51b815260040180806020018281038252602e815260200180612ec4602e913960400191505060405180910390fd5b600054610100900460ff161580156110c2576000805460ff1961ff0019909116610100171660011790555b61113585858080601f01602080910402602001604051908101604052809392919081815260200183838082843760009201919091525050604080516020601f8901819004810282018101909252878152925087915086908190840183828082843760009201919091525061240292505050565b61113e8861240e565b6001600160a01b038616611192576040805162461bcd60e51b81526020600482015260166024820152756d41737365742061646472657373206973207a65726f60501b604482015290519081900360640190fd5b604380546001600160a01b0319166001600160a01b038881169190911790915587166111fd576040805162461bcd60e51b8152602060048201526015602482015274496e76616c696420706f6b6572206164647265737360581b604482015290519081900360640190fd5b604480546001600160a01b0389166001600160a01b03199091161790556702c68af0bb1400006047556043805460ff60a01b1916600160a01b17905567016345785d8a00006042558015611257576000805461ff00191690555b5050505050505050565b6048546001600160a01b031681565b60008082116112c0576040805162461bcd60e51b81526020600482015260176024820152764d75737420776974686472617720736f6d657468696e6760481b604482015290519081900360640190fd5b604354600160a01b900460ff1615611342576112da612042565b60435460408051636515eff360e11b81526001600160a01b0392831660048201529051929091169163ca2bdfe69160248082019260009290919082900301818387803b15801561132957600080fd5b505af115801561133d573d6000803e3d6000fd5b505050505b600080611350846000612484565b91509150838114610e30576040805162461bcd60e51b815260206004820152600e60248201526d125b9d985b1a59081bdd5d1c1d5d60921b604482015290519081900360640190fd5b60465481565b60378054604080516020601f600260001961010060018816150201909516949094049384018190048102820181019092528281526060939092909183018282801561087e5780601f106108535761010080835404028352916020019161087e565b6041546001600160a01b031681565b60006107ec8233600061186a565b600061089d61142a611a6b565b84610db185604051806060016040528060258152602001612f896025913960346000611454611a6b565b6001600160a01b03908116825260208083019390935260409182016000908120918d1681529252902054919063ffffffff61225b16565b600061089d611498611a6b565b84846120fd565b60455481565b60008082116114f5576040805162461bcd60e51b81526020600482015260176024820152764d75737420776974686472617720736f6d657468696e6760481b604482015290519081900360640190fd5b604354600160a01b900460ff16156115775761150f612042565b60435460408051636515eff360e11b81526001600160a01b0392831660048201529051929091169163ca2bdfe69160248082019260009290919082900301818387803b15801561155e57600080fd5b505af1158015611572573d6000803e3d6000fd5b505050505b6000611584836001612484565b949350505050565b611594611b5b565b6001600160a01b0316336001600160a01b0316146115e7576040805162461bcd60e51b81526020600482015260196024820152600080516020612e5b833981519152604482015290519081900360640190fd5b60438054821515600160a01b810260ff60a01b199092169190911790915560408051918252517fb9fdedbd8818c7929701eadc08c748a262fb39d9237b27537ae1809061e305f69181900360200190a150565b60475481565b6000808211611690576040805162461bcd60e51b81526020600482015260176024820152764d75737420776974686472617720736f6d657468696e6760481b604482015290519081900360640190fd5b600061169d836001612484565b604354909250600160a01b900460ff161590506107ec576116bc612042565b60435460408051636515eff360e11b81526001600160a01b0392831660048201529051929091169163ca2bdfe69160248082019260009290919082900301818387803b15801561170b57600080fd5b505af115801561171f573d6000803e3d6000fd5b5050505092915050565b6001600160a01b03918216600090815260346020908152604080832093909416825291909152205490565b61175c611b5b565b6001600160a01b0316336001600160a01b0316146117af576040805162461bcd60e51b81526020600482015260196024820152600080516020612e5b833981519152604482015290519081900360640190fd5b6001600160a01b038116158015906117d557506044546001600160a01b03828116911614155b611816576040805162461bcd60e51b815260206004820152600d60248201526c24b73b30b634b2103837b5b2b960991b604482015290519081900360640190fd5b604480546001600160a01b0383166001600160a01b0319909116811790915560408051918252517f4324a90fd94048b85fa5a72fb447d1313da0a602723a297a1a550e910004aef49181900360200190a150565b60008084116118b9576040805162461bcd60e51b81526020600482015260166024820152754d757374206465706f73697420736f6d657468696e6760501b604482015290519081900360640190fd5b6043546001600160a01b031682611942576118d2612042565b6001600160a01b031663ca2bdfe6826040518263ffffffff1660e01b815260040180826001600160a01b03166001600160a01b03168152602001915050600060405180830381600087803b15801561192957600080fd5b505af115801561193d573d6000803e3d6000fd5b505050505b604080516323b872dd60e01b81523360048201523060248201526044810187905290516001600160a01b038316916323b872dd9160648083019260209291908290030181600087803b15801561199757600080fd5b505af11580156119ab573d6000803e3d6000fd5b505050506040513d60208110156119c157600080fd5b5051611a0a576040805162461bcd60e51b81526020600482015260136024820152724d757374207265636569766520746f6b656e7360681b604482015290519081900360640190fd5b611a138561230f565b509150611a208483612610565b604080518681526020810184905281516001600160a01b038716927f1a96ef469e332471886959f90a71ae924792a05ad7eea4e43a1c29becdf238ed928290030190a2509392505050565b3390565b6001600160a01b038316611ab45760405162461bcd60e51b8152600401808060200182810382526024815260200180612f656024913960400191505060405180910390fd5b6001600160a01b038216611af95760405162461bcd60e51b8152600401808060200182810382526022815260200180612de66022913960400191505060405180910390fd5b6001600160a01b03808416600081815260346020908152604080832094871680845294825291829020859055815185815291517f8c5be1e5ebec7d5bd14f71427d1e84f3dd0314c0f7b2291e5b200ac8c7c3b9259281900390910190a3505050565b6041546040805163030d028960e21b815290516000926001600160a01b031691630c340a24916004808301926020929190829003018186803b158015611ba057600080fd5b505afa158015611bb4573d6000803e3d6000fd5b505050506040513d6020811015611bca57600080fd5b5051905090565b611bd9612c9d565b604354604080516370a0823160e01b815230600482015290516000926001600160a01b0316916370a08231916024808301926020929190829003018186803b158015611c2457600080fd5b505afa158015611c38573d6000803e3d6000fd5b505050506040513d6020811015611c4e57600080fd5b5051604080516060810182526047548152602081018390529192508101611c7361099b565b905291505090565b6045544290600090611c9490839063ffffffff61270216565b90508280611ca3575061384081115b611cf4576040805162461bcd60e51b815260206004820152601760248201527f4e6f7420656e6f7567682074696d6520656c6170736564000000000000000000604482015290519081900360640190fd5b60458290556048546001600160a01b03168015611ff757600060465490506000826001600160a01b031663c71daccb6040518163ffffffff1660e01b815260040160206040518083038186803b158015611d4d57600080fd5b505afa158015611d61573d6000803e3d6000fd5b505050506040513d6020811015611d7757600080fd5b5051905081811015611dc0576040805162461bcd60e51b815260206004820152600d60248201526c125b9d985b1a59081e5a595b19609a1b604482015290519081900360640190fd5b8015611de257611de082611dda838263ffffffff61270216565b86612744565b505b6020870151600090611dfa908363ffffffff6120a316565b8851909150600090611e1390839063ffffffff61284b16565b905082811115611f19576000611e2f828563ffffffff61270216565b6043546040805163095ea7b360e01b81526001600160a01b038a8116600483015260248201859052915193945091169163095ea7b3916044808201926020929091908290030181600087803b158015611e8757600080fd5b505af1158015611e9b573d6000803e3d6000fd5b505050506040513d6020811015611eb157600080fd5b50506040805163b6b55f2560e01b81526004810183905290516001600160a01b0388169163b6b55f2591602480830192600092919082900301818387803b158015611efb57600080fd5b505af1158015611f0f573d6000803e3d6000fd5b5050505050611f87565b6001600160a01b038516632e1a7d4d611f38858463ffffffff61270216565b6040518263ffffffff1660e01b815260040180828152602001915050600060405180830381600087803b158015611f6e57600080fd5b505af1158015611f82573d6000803e3d6000fd5b505050505b80604681905550611f9e828a604001516000612336565b7fd68aa1501d765a03d8e4d6897e6ad6719d0c4aef69497be7f0b3471d1fe8fcb68482611fd1868363ffffffff61270216565b60408051938452602084019290925282820152519081900360600190a15050505061203b565b600060468190556020860151604087015161201192612336565b6040517f8c27968f65a3dbc27abc3cab9653365e9789a455e5ff479fa8aad2d63881cdae90600090a15b5050505050565b6041546040805481516385acd64160e01b8152600481019190915290516000926001600160a01b0316916385acd641916024808301926020929190829003018186803b158015611ba057600080fd5b60006107e9838363ffffffff61286016565b6000828201838110156107e9576040805162461bcd60e51b815260206004820152601b60248201527f536166654d6174683a206164646974696f6e206f766572666c6f770000000000604482015290519081900360640190fd5b6001600160a01b0383166121425760405162461bcd60e51b8152600401808060200182810382526025815260200180612f406025913960400191505060405180910390fd5b6001600160a01b0382166121875760405162461bcd60e51b8152600401808060200182810382526023815260200180612d716023913960400191505060405180910390fd5b6121ca81604051806060016040528060268152602001612e08602691396001600160a01b038616600090815260336020526040902054919063ffffffff61225b16565b6001600160a01b0380851660009081526033602052604080822093909355908416815220546121ff908263ffffffff6120a316565b6001600160a01b0380841660008181526033602090815260409182902094909455805185815290519193928716927fddf252ad1be2c89b69c2b068fc378daa952ba7f163c4a11628f55a4df523b3ef92918290030190a3505050565b600081848411156122ea5760405162461bcd60e51b81526004018080602001828103825283818151815260200191508051906020019080838360005b838110156122af578181015183820152602001612297565b50505050905090810190601f1680156122dc5780820380516001836020036101000a031916815260200191505b509250505060405180910390fd5b505050900390565b604254600090612308838263ffffffff61284b16565b9150915091565b604254600090612308600161232a858463ffffffff61286016565b9063ffffffff6120a316565b6000612341836122f2565b50905081806123505750808410155b612398576040805162461bcd60e51b8152602060048201526014602482015273125b9cdd59999a58da595b9d0818d85c1a5d185b60621b604482015290519081900360640190fd5b60006123a48585612091565b604281905590507fc8d1043f24843c0a1c9251fdc30017d84e87498fbcf232af9f86816b5e182bde816123dd878563ffffffff61270216565b6040805192835260208301919091528051918290030190a15050505050565b303b1590565b610d2f8282601261288d565b6001600160a01b038116612461576040805162461bcd60e51b81526020600482015260156024820152744e657875732061646472657373206973207a65726f60581b604482015290519081900360640190fd5b604180546001600160a01b0319166001600160a01b038316179055610a166128cd565b60008080808085156124a65786925061249c876122f2565b90925090506124b8565b8691506124b28761230f565b90935090505b6124c233846129c8565b6043546040805163a9059cbb60e01b81523360048201526024810185905290516001600160a01b039092169163a9059cbb916044808201926020929091908290030181600087803b15801561251657600080fd5b505af115801561252a573d6000803e3d6000fd5b505050506040513d602081101561254057600080fd5b5051612586576040805162461bcd60e51b815260206004820152601060248201526f4d7573742073656e6420746f6b656e7360801b604482015290519081900360640190fd5b61258e612c9d565b612596611bd1565b90506125a0612cbe565b6125aa8284612ac4565b90508060000151816020015111156125c7576125c7826000611c7b565b6040805186815260208101869052815133927fa4feb388d266c39bec6f79f16c3a7dba32e12d9688ddbb14493d46ce4c1ce657928290030190a250929791965090945050505050565b6001600160a01b03821661266b576040805162461bcd60e51b815260206004820152601f60248201527f45524332303a206d696e7420746f20746865207a65726f206164647265737300604482015290519081900360640190fd5b60355461267e908263ffffffff6120a316565b6035556001600160a01b0382166000908152603360205260409020546126aa908263ffffffff6120a316565b6001600160a01b03831660008181526033602090815260408083209490945583518581529351929391927fddf252ad1be2c89b69c2b068fc378daa952ba7f163c4a11628f55a4df523b3ef9281900390910190a35050565b60006107e983836040518060400160405280601e81526020017f536166654d6174683a207375627472616374696f6e206f766572666c6f77000081525061225b565b600080612752600184612b5e565b90506000612766868663ffffffff61270216565b9050600061277a868363ffffffff61286016565b90506000612792846301e1338063ffffffff61286016565b90506127a4828263ffffffff61286016565b94506107088411156127fb57671bc16d674ec8000085106127f65760405162461bcd60e51b815260040180806020018281038252602d815260200180612ef2602d913960400191505060405180910390fd5b612840565b66038d7ea4c6800082106128405760405162461bcd60e51b815260040180806020018281038252602d815260200180612e2e602d913960400191505060405180910390fd5b505050509392505050565b60006107e98383670de0b6b3a7640000612b74565b60008061287b84670de0b6b3a764000063ffffffff612ba216565b9050611584818463ffffffff612bfb16565b82516128a0906036906020860190612cd8565b5081516128b4906037906020850190612cd8565b506038805460ff191660ff929092169190911790555050565b6040805169476f7665726e616e636560b01b8152815190819003600a9081018220603955665374616b696e6760c81b825282519182900360079081018320603a5569283937bc3ca0b236b4b760b11b83528351928390039091018220603b556827b930b1b632a43ab160b91b825282519182900360099081018320603c556626b0b730b3b2b960c91b83528351928390039091018220603d556f2932b1b7b63630ba32b930b634b9b2b960811b82528251918290036010018220603e556826b2ba30aa37b5b2b760b91b8252825191829003018120603f556d29b0bb34b733b9a6b0b730b3b2b960911b8152815190819003600e0190209055565b6001600160a01b038216612a0d5760405162461bcd60e51b8152600401808060200182810382526021815260200180612f1f6021913960400191505060405180910390fd5b612a5081604051806060016040528060228152602001612dc4602291396001600160a01b038516600090815260336020526040902054919063ffffffff61225b16565b6001600160a01b038316600090815260336020526040902055603554612a7c908263ffffffff61270216565b6035556040805182815290516000916001600160a01b038516917fddf252ad1be2c89b69c2b068fc378daa952ba7f163c4a11628f55a4df523b3ef9181900360200190a35050565b612acc612cbe565b6040830151600090612ae4908463ffffffff61284b16565b8451909150600090612b1590612b08906702c68af0bb14000063ffffffff6120a316565b839063ffffffff61284b16565b905060008286602001511015612b40576020860151612b3b90849063ffffffff61270216565b612b43565b60005b60408051808201909152928352602083015250949350505050565b6000818311612b6d57816107e9565b5090919050565b600080612b87858563ffffffff612ba216565b9050612b99818463ffffffff612bfb16565b95945050505050565b600082612bb1575060006107ec565b82820282848281612bbe57fe5b04146107e95760405162461bcd60e51b8152600401808060200182810382526021815260200180612e7b6021913960400191505060405180910390fd5b60006107e983836040518060400160405280601a81526020017f536166654d6174683a206469766973696f6e206279207a65726f00000000000081525060008183612c875760405162461bcd60e51b81526020600482018181528351602484015283519092839260449091019190850190808383600083156122af578181015183820152602001612297565b506000838581612c9357fe5b0495945050505050565b60405180606001604052806000815260200160008152602001600081525090565b604051806040016040528060008152602001600081525090565b828054600181600116156101000203166002900490600052602060002090601f016020900481019282601f10612d1957805160ff1916838001178555612d46565b82800160010185558215612d46579182015b82811115612d46578251825591602001919060010190612d2b565b50612d52929150612d56565b5090565b61088691905b80821115612d525760008155600101612d5c56fe45524332303a207472616e7366657220746f20746865207a65726f206164647265737343616e206f6e6c79207573652074686973206d6574686f64206265666f72652073747265616d696e6720626567696e7345524332303a206275726e20616d6f756e7420657863656564732062616c616e636545524332303a20617070726f766520746f20746865207a65726f206164647265737345524332303a207472616e7366657220616d6f756e7420657863656564732062616c616e6365496e7465726573742070726f7465637465642066726f6d20696e666c6174696e672070617374203130204270734f6e6c7920676f7665726e6f722063616e206578656375746500000000000000536166654d6174683a206d756c7469706c69636174696f6e206f766572666c6f7745524332303a207472616e7366657220616d6f756e74206578636565647320616c6c6f77616e6365436f6e747261637420696e7374616e63652068617320616c7265616479206265656e20696e697469616c697a6564496e7465726573742070726f7465637465642066726f6d20696e666c6174696e672070617374206d617841505945524332303a206275726e2066726f6d20746865207a65726f206164647265737345524332303a207472616e736665722066726f6d20746865207a65726f206164647265737345524332303a20617070726f76652066726f6d20746865207a65726f206164647265737345524332303a2064656372656173656420616c6c6f77616e63652062656c6f77207a65726fa265627a7a72315820272094560b66c9a8864416af8f43ffbbab8f01ebdcab466e6fcd04846204119864736f6c63430005100032",
  "linkReferences": {},
  "deployedLinkReferences": {}
}