{
  "_format": "hh-sol-artifact-1",
  "contractName": "CurvedMasset",
  "sourceName": "contracts/curved-masset/CurvedMasset.sol",
  "abi": [
    {
      "inputs": [
        {
          "internalType": "address",
          "name": "_nexus",
          "type": "address"
        }
      ],
      "stateMutability": "nonpayable",
      "type": "constructor"
    },
    {
      "anonymous": false,
      "inputs": [
        {
          "indexed": true,
          "internalType": "address",
          "name": "owner",
          "type": "address"
        },
        {
          "indexed": true,
          "internalType": "address",
          "name": "spender",
          "type": "address"
        },
        {
          "indexed": false,
          "internalType": "uint256",
          "name": "value",
          "type": "uint256"
        }
      ],
      "name": "Approval",
      "type": "event"
    },
    {
      "anonymous": false,
      "inputs": [
        {
          "indexed": false,
          "internalType": "uint256",
          "name": "cacheSize",
          "type": "uint256"
        }
      ],
      "name": "CacheSizeChanged",
      "type": "event"
    },
    {
      "anonymous": false,
      "inputs": [
        {
          "indexed": false,
          "internalType": "address",
          "name": "forgeValidator",
          "type": "address"
        }
      ],
      "name": "ForgeValidatorChanged",
      "type": "event"
    },
    {
      "anonymous": false,
      "inputs": [
        {
          "indexed": true,
          "internalType": "address",
          "name": "minter",
          "type": "address"
        },
        {
          "indexed": false,
          "internalType": "address",
          "name": "recipient",
          "type": "address"
        },
        {
          "indexed": false,
          "internalType": "uint256",
          "name": "mAssetQuantity",
          "type": "uint256"
        },
        {
          "indexed": false,
          "internalType": "address",
          "name": "input",
          "type": "address"
        },
        {
          "indexed": false,
          "internalType": "uint256",
          "name": "inputQuantity",
          "type": "uint256"
        }
      ],
      "name": "Minted",
      "type": "event"
    },
    {
      "anonymous": false,
      "inputs": [
        {
          "indexed": true,
          "internalType": "address",
          "name": "minter",
          "type": "address"
        },
        {
          "indexed": false,
          "internalType": "address",
          "name": "recipient",
          "type": "address"
        },
        {
          "indexed": false,
          "internalType": "uint256",
          "name": "mAssetQuantity",
          "type": "uint256"
        },
        {
          "indexed": false,
          "internalType": "address[]",
          "name": "inputs",
          "type": "address[]"
        },
        {
          "indexed": false,
          "internalType": "uint256[]",
          "name": "inputQuantities",
          "type": "uint256[]"
        }
      ],
      "name": "MintedMulti",
      "type": "event"
    },
    {
      "anonymous": false,
      "inputs": [
        {
          "indexed": true,
          "internalType": "address",
          "name": "redeemer",
          "type": "address"
        },
        {
          "indexed": false,
          "internalType": "address",
          "name": "recipient",
          "type": "address"
        },
        {
          "indexed": false,
          "internalType": "uint256",
          "name": "mAssetQuantity",
          "type": "uint256"
        },
        {
          "indexed": false,
          "internalType": "address",
          "name": "output",
          "type": "address"
        },
        {
          "indexed": false,
          "internalType": "uint256",
          "name": "outputQuantity",
          "type": "uint256"
        },
        {
          "indexed": false,
          "internalType": "uint256",
          "name": "scaledFee",
          "type": "uint256"
        }
      ],
      "name": "Redeemed",
      "type": "event"
    },
    {
      "anonymous": false,
      "inputs": [
        {
          "indexed": true,
          "internalType": "address",
          "name": "redeemer",
          "type": "address"
        },
        {
          "indexed": false,
          "internalType": "address",
          "name": "recipient",
          "type": "address"
        },
        {
          "indexed": false,
          "internalType": "uint256",
          "name": "mAssetQuantity",
          "type": "uint256"
        },
        {
          "indexed": false,
          "internalType": "address[]",
          "name": "outputs",
          "type": "address[]"
        },
        {
          "indexed": false,
          "internalType": "uint256[]",
          "name": "outputQuantity",
          "type": "uint256[]"
        },
        {
          "indexed": false,
          "internalType": "uint256",
          "name": "scaledFee",
          "type": "uint256"
        }
      ],
      "name": "RedeemedMulti",
      "type": "event"
    },
    {
      "anonymous": false,
      "inputs": [
        {
          "indexed": false,
          "internalType": "uint256",
          "name": "fee",
          "type": "uint256"
        }
      ],
      "name": "RedemptionFeeChanged",
      "type": "event"
    },
    {
      "anonymous": false,
      "inputs": [
        {
          "indexed": false,
          "internalType": "uint256",
          "name": "fee",
          "type": "uint256"
        }
      ],
      "name": "SwapFeeChanged",
      "type": "event"
    },
    {
      "anonymous": false,
      "inputs": [
        {
          "indexed": true,
          "internalType": "address",
          "name": "swapper",
          "type": "address"
        },
        {
          "indexed": false,
          "internalType": "address",
          "name": "input",
          "type": "address"
        },
        {
          "indexed": false,
          "internalType": "address",
          "name": "output",
          "type": "address"
        },
        {
          "indexed": false,
          "internalType": "uint256",
          "name": "outputAmount",
          "type": "uint256"
        },
        {
          "indexed": false,
          "internalType": "uint256",
          "name": "scaledFee",
          "type": "uint256"
        },
        {
          "indexed": false,
          "internalType": "address",
          "name": "recipient",
          "type": "address"
        }
      ],
      "name": "Swapped",
      "type": "event"
    },
    {
      "anonymous": false,
      "inputs": [
        {
          "indexed": true,
          "internalType": "address",
          "name": "from",
          "type": "address"
        },
        {
          "indexed": true,
          "internalType": "address",
          "name": "to",
          "type": "address"
        },
        {
          "indexed": false,
          "internalType": "uint256",
          "name": "value",
          "type": "uint256"
        }
      ],
      "name": "Transfer",
      "type": "event"
    },
    {
      "inputs": [
        {
          "internalType": "address",
          "name": "owner",
          "type": "address"
        },
        {
          "internalType": "address",
          "name": "spender",
          "type": "address"
        }
      ],
      "name": "allowance",
      "outputs": [
        {
          "internalType": "uint256",
          "name": "",
          "type": "uint256"
        }
      ],
      "stateMutability": "view",
      "type": "function"
    },
    {
      "inputs": [
        {
          "internalType": "address",
          "name": "spender",
          "type": "address"
        },
        {
          "internalType": "uint256",
          "name": "amount",
          "type": "uint256"
        }
      ],
      "name": "approve",
      "outputs": [
        {
          "internalType": "bool",
          "name": "",
          "type": "bool"
        }
      ],
      "stateMutability": "nonpayable",
      "type": "function"
    },
    {
      "inputs": [
        {
          "internalType": "uint256",
          "name": "",
          "type": "uint256"
        }
      ],
      "name": "bAssetData",
      "outputs": [
        {
          "internalType": "uint128",
          "name": "ratio",
          "type": "uint128"
        },
        {
          "internalType": "uint128",
          "name": "vaultBalance",
          "type": "uint128"
        }
      ],
      "stateMutability": "view",
      "type": "function"
    },
    {
      "inputs": [
        {
          "internalType": "address",
          "name": "",
          "type": "address"
        }
      ],
      "name": "bAssetIndexes",
      "outputs": [
        {
          "internalType": "uint8",
          "name": "",
          "type": "uint8"
        }
      ],
      "stateMutability": "view",
      "type": "function"
    },
    {
      "inputs": [
        {
          "internalType": "uint256",
          "name": "",
          "type": "uint256"
        }
      ],
      "name": "bAssetPersonal",
      "outputs": [
        {
          "internalType": "address",
          "name": "addr",
          "type": "address"
        },
        {
          "internalType": "address",
          "name": "integrator",
          "type": "address"
        },
        {
          "internalType": "bool",
          "name": "hasTxFee",
          "type": "bool"
        },
        {
          "internalType": "enum MassetStructs.BassetStatus",
          "name": "status",
          "type": "uint8"
        }
      ],
      "stateMutability": "view",
      "type": "function"
    },
    {
      "inputs": [
        {
          "internalType": "address",
          "name": "account",
          "type": "address"
        }
      ],
      "name": "balanceOf",
      "outputs": [
        {
          "internalType": "uint256",
          "name": "",
          "type": "uint256"
        }
      ],
      "stateMutability": "view",
      "type": "function"
    },
    {
      "inputs": [],
      "name": "basket",
      "outputs": [
        {
          "internalType": "bool",
          "name": "undergoingRecol",
          "type": "bool"
        },
        {
          "internalType": "bool",
          "name": "failed",
          "type": "bool"
        }
      ],
      "stateMutability": "view",
      "type": "function"
    },
    {
      "inputs": [],
      "name": "cacheSize",
      "outputs": [
        {
          "internalType": "uint256",
          "name": "",
          "type": "uint256"
        }
      ],
      "stateMutability": "view",
      "type": "function"
    },
    {
      "inputs": [],
      "name": "collectInterest",
      "outputs": [
        {
          "internalType": "uint256",
          "name": "swapFeesGained",
          "type": "uint256"
        },
        {
          "internalType": "uint256",
          "name": "newSupply",
          "type": "uint256"
        }
      ],
      "stateMutability": "nonpayable",
      "type": "function"
    },
    {
      "inputs": [],
      "name": "collectPlatformInterest",
      "outputs": [
        {
          "internalType": "uint256",
          "name": "mintAmount",
          "type": "uint256"
        },
        {
          "internalType": "uint256",
          "name": "newSupply",
          "type": "uint256"
        }
      ],
      "stateMutability": "nonpayable",
      "type": "function"
    },
    {
      "inputs": [],
      "name": "decimals",
      "outputs": [
        {
          "internalType": "uint8",
          "name": "",
          "type": "uint8"
        }
      ],
      "stateMutability": "view",
      "type": "function"
    },
    {
      "inputs": [
        {
          "internalType": "address",
          "name": "spender",
          "type": "address"
        },
        {
          "internalType": "uint256",
          "name": "subtractedValue",
          "type": "uint256"
        }
      ],
      "name": "decreaseAllowance",
      "outputs": [
        {
          "internalType": "bool",
          "name": "",
          "type": "bool"
        }
      ],
      "stateMutability": "nonpayable",
      "type": "function"
    },
    {
      "inputs": [],
      "name": "deprecated_redemptionFee",
      "outputs": [
        {
          "internalType": "uint256",
          "name": "",
          "type": "uint256"
        }
      ],
      "stateMutability": "view",
      "type": "function"
    },
    {
      "inputs": [],
      "name": "forgeValidator",
      "outputs": [
        {
          "internalType": "contract IInvariantValidator",
          "name": "",
          "type": "address"
        }
      ],
      "stateMutability": "view",
      "type": "function"
    },
    {
      "inputs": [],
      "name": "getBasket",
      "outputs": [
        {
          "internalType": "bool",
          "name": "",
          "type": "bool"
        },
        {
          "internalType": "bool",
          "name": "",
          "type": "bool"
        }
      ],
      "stateMutability": "view",
      "type": "function"
    },
    {
      "inputs": [
        {
          "internalType": "address",
          "name": "_bAsset",
          "type": "address"
        }
      ],
      "name": "getBasset",
      "outputs": [
        {
          "components": [
            {
              "internalType": "address",
              "name": "addr",
              "type": "address"
            },
            {
              "internalType": "address",
              "name": "integrator",
              "type": "address"
            },
            {
              "internalType": "bool",
              "name": "hasTxFee",
              "type": "bool"
            },
            {
              "internalType": "enum MassetStructs.BassetStatus",
              "name": "status",
              "type": "uint8"
            }
          ],
          "internalType": "struct MassetStructs.BassetPersonal",
          "name": "personal",
          "type": "tuple"
        },
        {
          "components": [
            {
              "internalType": "uint128",
              "name": "ratio",
              "type": "uint128"
            },
            {
              "internalType": "uint128",
              "name": "vaultBalance",
              "type": "uint128"
            }
          ],
          "internalType": "struct MassetStructs.BassetData",
          "name": "data",
          "type": "tuple"
        }
      ],
      "stateMutability": "view",
      "type": "function"
    },
    {
      "inputs": [],
      "name": "getBassets",
      "outputs": [
        {
          "components": [
            {
              "internalType": "address",
              "name": "addr",
              "type": "address"
            },
            {
              "internalType": "address",
              "name": "integrator",
              "type": "address"
            },
            {
              "internalType": "bool",
              "name": "hasTxFee",
              "type": "bool"
            },
            {
              "internalType": "enum MassetStructs.BassetStatus",
              "name": "status",
              "type": "uint8"
            }
          ],
          "internalType": "struct MassetStructs.BassetPersonal[]",
          "name": "personal",
          "type": "tuple[]"
        },
        {
          "components": [
            {
              "internalType": "uint128",
              "name": "ratio",
              "type": "uint128"
            },
            {
              "internalType": "uint128",
              "name": "vaultBalance",
              "type": "uint128"
            }
          ],
          "internalType": "struct MassetStructs.BassetData[]",
          "name": "data",
          "type": "tuple[]"
        }
      ],
      "stateMutability": "view",
      "type": "function"
    },
    {
      "inputs": [
        {
          "internalType": "address[]",
          "name": "_inputs",
          "type": "address[]"
        },
        {
          "internalType": "uint256[]",
          "name": "_inputQuantities",
          "type": "uint256[]"
        }
      ],
      "name": "getMintMultiOutput",
      "outputs": [
        {
          "internalType": "uint256",
          "name": "mintOutput",
          "type": "uint256"
        }
      ],
      "stateMutability": "view",
      "type": "function"
    },
    {
      "inputs": [
        {
          "internalType": "address",
          "name": "_input",
          "type": "address"
        },
        {
          "internalType": "uint256",
          "name": "_inputQuantity",
          "type": "uint256"
        }
      ],
      "name": "getMintOutput",
      "outputs": [
        {
          "internalType": "uint256",
          "name": "mintOutput",
          "type": "uint256"
        }
      ],
      "stateMutability": "view",
      "type": "function"
    },
    {
      "inputs": [
        {
          "internalType": "address[]",
          "name": "_outputs",
          "type": "address[]"
        },
        {
          "internalType": "uint256[]",
          "name": "_outputQuantities",
          "type": "uint256[]"
        }
      ],
      "name": "getRedeemExactBassetsOutput",
      "outputs": [
        {
          "internalType": "uint256",
          "name": "mAssetAmount",
          "type": "uint256"
        }
      ],
      "stateMutability": "view",
      "type": "function"
    },
    {
      "inputs": [
        {
          "internalType": "address",
          "name": "_output",
          "type": "address"
        },
        {
          "internalType": "uint256",
          "name": "_mAssetQuantity",
          "type": "uint256"
        }
      ],
      "name": "getRedeemOutput",
      "outputs": [
        {
          "internalType": "uint256",
          "name": "bAssetOutput",
          "type": "uint256"
        }
      ],
      "stateMutability": "view",
      "type": "function"
    },
    {
      "inputs": [
        {
          "internalType": "address",
          "name": "_input",
          "type": "address"
        },
        {
          "internalType": "address",
          "name": "_output",
          "type": "address"
        },
        {
          "internalType": "uint256",
          "name": "_inputQuantity",
          "type": "uint256"
        }
      ],
      "name": "getSwapOutput",
      "outputs": [
        {
          "internalType": "uint256",
          "name": "swapOutput",
          "type": "uint256"
        }
      ],
      "stateMutability": "view",
      "type": "function"
    },
    {
      "inputs": [
        {
          "internalType": "address",
          "name": "_bAsset",
          "type": "address"
        },
        {
          "internalType": "bool",
          "name": "_belowPeg",
          "type": "bool"
        }
      ],
      "name": "handlePegLoss",
      "outputs": [],
      "stateMutability": "nonpayable",
      "type": "function"
    },
    {
      "inputs": [
        {
          "internalType": "address",
          "name": "spender",
          "type": "address"
        },
        {
          "internalType": "uint256",
          "name": "addedValue",
          "type": "uint256"
        }
      ],
      "name": "increaseAllowance",
      "outputs": [
        {
          "internalType": "bool",
          "name": "",
          "type": "bool"
        }
      ],
      "stateMutability": "nonpayable",
      "type": "function"
    },
    {
      "inputs": [
        {
          "internalType": "string",
          "name": "_nameArg",
          "type": "string"
        },
        {
          "internalType": "string",
          "name": "_symbolArg",
          "type": "string"
        },
        {
          "internalType": "address",
          "name": "_forgeValidator",
          "type": "address"
        },
        {
          "internalType": "address[]",
          "name": "_bAssets",
          "type": "address[]"
        },
        {
          "internalType": "address[]",
          "name": "_integrators",
          "type": "address[]"
        },
        {
          "internalType": "bool[]",
          "name": "_hasTxFees",
          "type": "bool[]"
        }
      ],
      "name": "initialize",
      "outputs": [],
      "stateMutability": "nonpayable",
      "type": "function"
    },
    {
      "inputs": [],
      "name": "maxBassets",
      "outputs": [
        {
          "internalType": "uint8",
          "name": "",
          "type": "uint8"
        }
      ],
      "stateMutability": "view",
      "type": "function"
    },
    {
      "inputs": [
        {
          "internalType": "address[]",
          "name": "_bAssets",
          "type": "address[]"
        },
        {
          "internalType": "address",
          "name": "_newIntegration",
          "type": "address"
        }
      ],
      "name": "migrateBassets",
      "outputs": [],
      "stateMutability": "nonpayable",
      "type": "function"
    },
    {
      "inputs": [
        {
          "internalType": "address",
          "name": "_input",
          "type": "address"
        },
        {
          "internalType": "uint256",
          "name": "_inputQuantity",
          "type": "uint256"
        },
        {
          "internalType": "uint256",
          "name": "_minOutputQuantity",
          "type": "uint256"
        },
        {
          "internalType": "address",
          "name": "_recipient",
          "type": "address"
        }
      ],
      "name": "mint",
      "outputs": [
        {
          "internalType": "uint256",
          "name": "mintOutput",
          "type": "uint256"
        }
      ],
      "stateMutability": "nonpayable",
      "type": "function"
    },
    {
      "inputs": [
        {
          "internalType": "address[]",
          "name": "_inputs",
          "type": "address[]"
        },
        {
          "internalType": "uint256[]",
          "name": "_inputQuantities",
          "type": "uint256[]"
        },
        {
          "internalType": "uint256",
          "name": "_minOutputQuantity",
          "type": "uint256"
        },
        {
          "internalType": "address",
          "name": "_recipient",
          "type": "address"
        }
      ],
      "name": "mintMulti",
      "outputs": [
        {
          "internalType": "uint256",
          "name": "mintOutput",
          "type": "uint256"
        }
      ],
      "stateMutability": "nonpayable",
      "type": "function"
    },
    {
      "inputs": [],
      "name": "name",
      "outputs": [
        {
          "internalType": "string",
          "name": "",
          "type": "string"
        }
      ],
      "stateMutability": "view",
      "type": "function"
    },
    {
      "inputs": [
        {
          "internalType": "address",
          "name": "_bAsset",
          "type": "address"
        }
      ],
      "name": "negateIsolation",
      "outputs": [],
      "stateMutability": "nonpayable",
      "type": "function"
    },
    {
      "inputs": [],
      "name": "nexus",
      "outputs": [
        {
          "internalType": "contract INexus",
          "name": "",
          "type": "address"
        }
      ],
      "stateMutability": "view",
      "type": "function"
    },
    {
      "inputs": [
        {
          "internalType": "address",
          "name": "_output",
          "type": "address"
        },
        {
          "internalType": "uint256",
          "name": "_mAssetQuantity",
          "type": "uint256"
        },
        {
          "internalType": "uint256",
          "name": "_minOutputQuantity",
          "type": "uint256"
        },
        {
          "internalType": "address",
          "name": "_recipient",
          "type": "address"
        }
      ],
      "name": "redeem",
      "outputs": [
        {
          "internalType": "uint256",
          "name": "outputQuantity",
          "type": "uint256"
        }
      ],
      "stateMutability": "nonpayable",
      "type": "function"
    },
    {
      "inputs": [
        {
          "internalType": "address",
          "name": "_output",
          "type": "address"
        },
        {
          "internalType": "uint256",
          "name": "_outputQuantity",
          "type": "uint256"
        },
        {
          "internalType": "uint256",
          "name": "_maxMassetQuantity",
          "type": "uint256"
        },
        {
          "internalType": "address",
          "name": "_recipient",
          "type": "address"
        }
      ],
      "name": "redeemExactBasset",
      "outputs": [
        {
          "internalType": "uint256",
          "name": "mAssetRedeemed",
          "type": "uint256"
        }
      ],
      "stateMutability": "nonpayable",
      "type": "function"
    },
    {
      "inputs": [
        {
          "internalType": "address[]",
          "name": "_outputs",
          "type": "address[]"
        },
        {
          "internalType": "uint256[]",
          "name": "_outputQuantities",
          "type": "uint256[]"
        },
        {
          "internalType": "uint256",
          "name": "_maxMassetQuantity",
          "type": "uint256"
        },
        {
          "internalType": "address",
          "name": "_recipient",
          "type": "address"
        }
      ],
      "name": "redeemExactBassets",
      "outputs": [
        {
          "internalType": "uint256",
          "name": "mAssetRedeemed",
          "type": "uint256"
        }
      ],
      "stateMutability": "nonpayable",
      "type": "function"
    },
    {
      "inputs": [
        {
          "internalType": "uint256",
          "name": "_cacheSize",
          "type": "uint256"
        }
      ],
      "name": "setCacheSize",
      "outputs": [],
      "stateMutability": "nonpayable",
      "type": "function"
    },
    {
      "inputs": [
        {
          "internalType": "uint256",
          "name": "_swapFee",
          "type": "uint256"
        }
      ],
      "name": "setSwapFee",
      "outputs": [],
      "stateMutability": "nonpayable",
      "type": "function"
    },
    {
      "inputs": [
        {
          "internalType": "address",
          "name": "_bAsset",
          "type": "address"
        },
        {
          "internalType": "bool",
          "name": "_flag",
          "type": "bool"
        }
      ],
      "name": "setTransferFeesFlag",
      "outputs": [],
      "stateMutability": "nonpayable",
      "type": "function"
    },
    {
      "inputs": [],
      "name": "surplus",
      "outputs": [
        {
          "internalType": "uint256",
          "name": "",
          "type": "uint256"
        }
      ],
      "stateMutability": "view",
      "type": "function"
    },
    {
      "inputs": [
        {
          "internalType": "address",
          "name": "_input",
          "type": "address"
        },
        {
          "internalType": "address",
          "name": "_output",
          "type": "address"
        },
        {
          "internalType": "uint256",
          "name": "_inputQuantity",
          "type": "uint256"
        },
        {
          "internalType": "uint256",
          "name": "_minOutputQuantity",
          "type": "uint256"
        },
        {
          "internalType": "address",
          "name": "_recipient",
          "type": "address"
        }
      ],
      "name": "swap",
      "outputs": [
        {
          "internalType": "uint256",
          "name": "swapOutput",
          "type": "uint256"
        }
      ],
      "stateMutability": "nonpayable",
      "type": "function"
    },
    {
      "inputs": [],
      "name": "swapFee",
      "outputs": [
        {
          "internalType": "uint256",
          "name": "",
          "type": "uint256"
        }
      ],
      "stateMutability": "view",
      "type": "function"
    },
    {
      "inputs": [],
      "name": "symbol",
      "outputs": [
        {
          "internalType": "string",
          "name": "",
          "type": "string"
        }
      ],
      "stateMutability": "view",
      "type": "function"
    },
    {
      "inputs": [],
      "name": "totalSupply",
      "outputs": [
        {
          "internalType": "uint256",
          "name": "",
          "type": "uint256"
        }
      ],
      "stateMutability": "view",
      "type": "function"
    },
    {
      "inputs": [
        {
          "internalType": "address",
          "name": "recipient",
          "type": "address"
        },
        {
          "internalType": "uint256",
          "name": "amount",
          "type": "uint256"
        }
      ],
      "name": "transfer",
      "outputs": [
        {
          "internalType": "bool",
          "name": "",
          "type": "bool"
        }
      ],
      "stateMutability": "nonpayable",
      "type": "function"
    },
    {
      "inputs": [
        {
          "internalType": "address",
          "name": "sender",
          "type": "address"
        },
        {
          "internalType": "address",
          "name": "recipient",
          "type": "address"
        },
        {
          "internalType": "uint256",
          "name": "amount",
          "type": "uint256"
        }
      ],
      "name": "transferFrom",
      "outputs": [
        {
          "internalType": "bool",
          "name": "",
          "type": "bool"
        }
      ],
      "stateMutability": "nonpayable",
      "type": "function"
    },
    {
      "inputs": [
        {
          "internalType": "address",
          "name": "_newForgeValidator",
          "type": "address"
        }
      ],
      "name": "upgradeForgeValidator",
      "outputs": [],
      "stateMutability": "nonpayable",
      "type": "function"
    }
  ],
  "bytecode": "0x60a06040523480156200001157600080fd5b5060405162005ac038038062005ac083398101604081905262000034916200007e565b806001600160a01b038116620000675760405162461bcd60e51b81526004016200005e90620000ae565b60405180910390fd5b60601b6001600160601b03191660805250620000e5565b60006020828403121562000090578081fd5b81516001600160a01b0381168114620000a7578182fd5b9392505050565b60208082526015908201527f4e657875732061646472657373206973207a65726f0000000000000000000000604082015260600190565b60805160601c6159a762000119600039600081816111e601528181613611015281816136bf0152613b0901526159a76000f3fe608060405234801561001057600080fd5b506004361061028a5760003560e01c80636fb3e89c1161015c578063aa5d27e9116100ce578063d5bcb9b511610087578063d5bcb9b51461058f578063d7d52266146105a2578063dd62ed3e146105aa578063e5555b8f146105bd578063edc832b3146105d0578063f74bfe8e146105d85761028a565b8063aa5d27e914610525578063af290bd414610538578063b22b2b351461054b578063bd2f771f1461055e578063bdfbe29c14610566578063cd6ef2b0146105795761028a565b8063905e891411610120578063905e8914146104bc57806395d89b41146104cf578063969642b9146104d7578063a3f5c1d2146104ea578063a457c2d7146104ff578063a9059cbb146105125761028a565b80636fb3e89c1461046857806370a082311461047b57806372ea90761461048e57806378aa987e146104a15780637e8901ea146104b45761028a565b80632a2fab221161020057806343bcfab6116101b957806343bcfab61461040957806354cf2aeb1461041c578063674a64e0146104245780636c36581c1461042c5780636d5d6eb1146104345780636ea0abef146104555761028a565b80632a2fab22146103845780632f91a7241461039a578063313ce567146103ba57806334e19907146103c257806339509351146103d55780633e37bcbc146103e85761028a565b80631388856511610252578063138885651461032357806318160ddd1461032b5780631820783d146103335780631d3ce3981461034857806323b872dd1461035e57806326bbe60a146103715761028a565b80630357359c1461028f57806304de5a73146102bb57806306fdde03146102db578063095ea7b3146102f0578063119849cf14610310575b600080fd5b6102a261029d36600461465f565b6105eb565b6040516102b2949392919061494c565b60405180910390f35b6102ce6102c9366004614437565b61063b565b6040516102b29190614e2c565b6102e36106b3565b6040516102b29190614e35565b6103036102fe36600461436e565b610745565b6040516102b29190614e0f565b6102ce61031e36600461436e565b610762565b6102ce610775565b6102ce61077b565b61034661034136600461465f565b610781565b005b6103506107fa565b6040516102b2929190614c3e565b61030361036c3660046142a3565b610957565b61034661037f366004614233565b6109cc565b61038c610a76565b6040516102b29291906157c9565b6103ad6103a8366004614233565b610b2f565b6040516102b291906157d7565b6103ad610b44565b6103466103d036600461465f565b610b4d565b6103036103e336600461436e565b610bac565b6103fb6103f6366004614233565b610bfb565b6040516102b2929190615794565b6102ce610417366004614399565b610d86565b6102ce610de7565b6102ce610ded565b6103ad610df3565b61044761044236600461465f565b610dfc565b6040516102b29291906157af565b6102ce610463366004614399565b610e31565b6103466104763660046143e2565b610e7a565b6102ce610489366004614233565b610ef8565b6102ce61049c3660046142a3565b610f17565b6102ce6104af36600461436e565b610f2c565b61038c610f38565b6103466104ca366004614341565b6110dc565b6102e361115a565b6103466104e5366004614233565b611169565b6104f26111e4565b6040516102b29190614938565b61030361050d36600461436e565b611208565b61030361052036600461436e565b611257565b6102ce6105333660046144a0565b61126b565b6102ce6105463660046144a0565b611333565b610346610559366004614561565b6113e1565b6102ce6116aa565b610346610574366004614341565b6116b0565b6105816116f7565b6040516102b2929190614e1a565b6102ce61059d3660046142e3565b61170a565b6104f261176d565b6102ce6105b836600461426b565b611782565b6102ce6105cb366004614437565b6117ad565b6105816118b1565b6102ce6105e6366004614399565b6118c3565b603f81815481106105fb57600080fd5b6000918252602090912060029091020180546001909101546001600160a01b0391821692509081169060ff600160a01b8204811691600160a81b90041684565b60006106aa8585808060200260200160405190810160405280939291908181526020018383602002808284376000920191909152505060408051602080890282810182019093528882529093508892508791829185019084908082843760009201919091525061190c92505050565b95945050505050565b6060603680546106c2906158d2565b80601f01602080910402602001604051908101604052809291908181526020018280546106ee906158d2565b801561073b5780601f106107105761010080835404028352916020019161073b565b820191906000526020600020905b81548152906001019060200180831161071e57829003601f168201915b5050505050905090565b6000610759610752611a02565b8484611a06565b50600192915050565b600061076e8383611aba565b9392505050565b603e5481565b60355490565b610789611b72565b6702c68af0bb1400008111156107ba5760405162461bcd60e51b81526004016107b190615291565b60405180910390fd5b603d8190556040517f2f5a6b1defeafd30e7568ea5c176aa0702b0af5b00ba41fa20e58b2c72e8afe7906107ef908390614e2c565b60405180910390a150565b606080603f604081805480602002602001604051908101604052809291908181526020016000905b828210156108d9576000848152602090819020604080516080810182526002860290920180546001600160a01b03908116845260018201549081169484019490945260ff600160a01b8504811615159284019290925291926060840191600160a81b9091041660078111156108a757634e487b7160e01b600052602160045260246000fd5b60078111156108c657634e487b7160e01b600052602160045260246000fd5b8152505081526020019060010190610822565b50505050915080805480602002602001604051908101604052809291908181526020016000905b8282101561094957600084815260209081902060408051808201909152908401546001600160801b038082168352600160801b9091041681830152825260019092019101610900565b505050509050915091509091565b6000610964848484611bac565b6109c284610970611a02565b6001600160a01b03871660009081526034602052604081208691610992611a02565b6001600160a01b03166001600160a01b03168152602001908152602001600020546109bd919061588f565b611a06565b5060019392505050565b6109d4611b72565b603854600160b01b900460ff16156109fe5760405162461bcd60e51b81526004016107b1906152f0565b6001600160a01b038116610a245760405162461bcd60e51b81526004016107b190615223565b6038805462010000600160b01b031916620100006001600160a01b038416021790556040517f2e137a82d7f7fe8a4c453313f3d08557c162ad9d78219a2e937e318b41e12f7a906107ef908390614938565b600080610a81611c97565b6001603e541115610b21576001603e54610a9b919061588f565b6001603e559150610aac3383611cc6565b307f7d3ff197e9071095bd36b627028ef523ecf46fcbf17cbde745a4b65aec88b6bc81846000604051908082528060200260200182016040528015610afb578160200160208202803683370190505b5060408051600081526020810191829052610b1894939291614a75565b60405180910390a25b610b2961077b565b90509091565b60416020526000908152604090205460ff1681565b60385460ff1690565b610b55611b72565b603b54811115610b775760405162461bcd60e51b81526004016107b19061535e565b603a8190556040517f9cabc14d438714dbcd9292df9b3f89c42f98acd93a675ad72cd6033777e9b8e7906107ef908390614e2c565b6000610759610bb9611a02565b848460346000610bc7611a02565b6001600160a01b03908116825260208083019390935260409182016000908120918b16815292529020546109bd9190615810565b610c036140b2565b610c0b6140d7565b6001600160a01b038316600090815260416020526040902054603f805460ff9092169182908110610c4c57634e487b7160e01b600052603260045260246000fd5b600091825260209182902060408051608081018252600290930290910180546001600160a01b03908116845260018201549081169484019490945260ff600160a01b8504811615159284019290925291926060840191600160a81b909104166007811115610cca57634e487b7160e01b600052602160045260246000fd5b6007811115610ce957634e487b7160e01b600052602160045260246000fd5b815250509250836001600160a01b031683600001516001600160a01b031614610d245760405162461bcd60e51b81526004016107b190615602565b60408160ff1681548110610d4857634e487b7160e01b600052603260045260246000fd5b6000918252602091829020604080518082019091529101546001600160801b038082168352600160801b909104169181019190915292949293505050565b603854600090610100900460ff16610db05760405162461bcd60e51b81526004016107b190615631565b6038805461ff0019169055610dc3611d7a565b610dcf85858585611dbe565b6038805461ff00191661010017905595945050505050565b603a5481565b603d5481565b60425460ff1681565b60408181548110610e0c57600080fd5b6000918252602090912001546001600160801b038082169250600160801b9091041682565b603854600090610100900460ff16610e5b5760405162461bcd60e51b81526004016107b190615631565b6038805461ff0019169055610e6e611d7a565b610dcf8585858561206f565b610e82611b72565b60405163a5bee44b60e01b815273__$5b16d5998f5ade2b8429b01a34059bc31b$__9063a5bee44b90610ec390603f90604190889088908890600401614d9a565b60006040518083038186803b158015610edb57600080fd5b505af4158015610eef573d6000803e3d6000fd5b50505050505050565b6001600160a01b0381166000908152603360205260409020545b919050565b6000610f24848484612133565b949350505050565b600061076e83836122b0565b600080610f43611c97565b610f4b611d7a565b603854610100900460ff16610f725760405162461bcd60e51b81526004016107b190615631565b6038805461ff0019169081905560408051637df78e9f60e01b8152600092839273__$5b16d5998f5ade2b8429b01a34059bc31b$__92637df78e9f92610fcf92603f9290916201000090046001600160a01b031690600401614c95565b60006040518083038186803b158015610fe757600080fd5b505af4158015610ffb573d6000803e3d6000fd5b505050506040513d6000823e601f3d908101601f19168201604052611023919081019061468f565b91509150600082116110475760405162461bcd60e51b81526004016107b1906151f3565b6110513383611cc6565b307f7d3ff197e9071095bd36b627028ef523ecf46fcbf17cbde745a4b65aec88b6bc818460006040519080825280602002602001820160405280156110a0578160200160208202803683370190505b50856040516110b29493929190614a75565b60405180910390a28193506110c561077b565b6038805461ff001916610100179055939492505050565b6110e461238b565b60405163ee60ee2b60e01b815273__$5b16d5998f5ade2b8429b01a34059bc31b$__9063ee60ee2b9061112690604390603f9060419088908890600401615766565b60006040518083038186803b15801561113e57600080fd5b505af4158015611152573d6000803e3d6000fd5b505050505050565b6060603780546106c2906158d2565b61117161238b565b604051634c1e9da160e11b815273__$5b16d5998f5ade2b8429b01a34059bc31b$__9063983d3b42906111b190604390603f906041908790600401615742565b60006040518083038186803b1580156111c957600080fd5b505af41580156111dd573d6000803e3d6000fd5b5050505050565b7f000000000000000000000000000000000000000000000000000000000000000081565b6000610759611215611a02565b848460346000611223611a02565b6001600160a01b03908116825260208083019390935260409182016000908120918b16815292529020546109bd919061588f565b6000610759611264611a02565b8484611bac565b603854600090610100900460ff166112955760405162461bcd60e51b81526004016107b190615631565b6038805461ff00191690556112a8611d7a565b61131987878080602002602001604051908101604052809392919081815260200183836020028082843760009201919091525050604080516020808b0282810182019093528a82529093508a9250899182918501908490808284376000920191909152508892508791506123d49050565b6038805461ff001916610100179055979650505050505050565b603854600090610100900460ff1661135d5760405162461bcd60e51b81526004016107b190615631565b6038805461ff00191690556113706127a6565b61131987878080602002602001604051908101604052809392919081815260200183836020028082843760009201919091525050604080516020808b0282810182019093528a82529093508a9250899182918501908490808284376000920191909152508892508791506128099050565b600054610100900460ff16806113fa57506113fa612be4565b80611408575060005460ff16155b6114245760405162461bcd60e51b81526004016107b190615395565b600054610100900460ff1615801561144f576000805460ff1961ff0019909116610100171660011790555b6114d38c8c8080601f016020809104026020016040519081016040528093929190818152602001838380828437600081840152601f19601f820116905080830192505050505050508b8b8080601f016020809104026020016040519081016040528093929190818152602001838380828437600092019190915250612bea92505050565b6114db612bfa565b6038805462010000600160b01b031916620100006001600160a01b038b16021790558561151a5760405162461bcd60e51b81526004016107b190614f0f565b6042805460ff1916600a17905560005b868110156116675760425473__$5b16d5998f5ade2b8429b01a34059bc31b$__90637c37ca3990603f9060409060419060ff168d8d8881811061157d57634e487b7160e01b600052603260045260246000fd5b90506020020160208101906115929190614233565b8c8c898181106115b257634e487b7160e01b600052603260045260246000fd5b90506020020160208101906115c79190614233565b6305f5e1008c8c8b8181106115ec57634e487b7160e01b600052603260045260246000fd5b90506020020160208101906116019190614529565b6040518963ffffffff1660e01b8152600401611624989796959493929190614d2d565b60006040518083038186803b15801561163c57600080fd5b505af4158015611650573d6000803e3d6000fd5b50505050808061165f90615907565b91505061152a565b5066470de4df820000603b55660221b262dd8000603a5567016345785d8a0000603d55801561169c576000805461ff00191690555b505050505050505050505050565b603c5481565b6116b861238b565b604051638d18aef960e01b815273__$5b16d5998f5ade2b8429b01a34059bc31b$__90638d18aef99061112690603f9060419087908790600401614d74565b60435460ff808216916101009004169091565b603854600090610100900460ff166117345760405162461bcd60e51b81526004016107b190615631565b6038805461ff00191690556117476127a6565b6117548686868686612c0b565b6038805461ff0019166101001790559695505050505050565b6038546201000090046001600160a01b031681565b6001600160a01b03918216600090815260346020908152604080832093909416825291909152205490565b60008180158015906117be57508085145b6117da5760405162461bcd60e51b81526004016107b190614e95565b6000611818878780806020026020016040519081016040528093929190818152602001838360200280828437600092019190915250612ffc92505050565b50603854604080516328de483560e11b8152929350620100009091046001600160a01b0316916351bc906a916118569185908a908a90600401614bb8565b60206040518083038186803b15801561186e57600080fd5b505afa158015611882573d6000803e3d6000fd5b505050506040513d601f19601f820116820180604052508101906118a69190614677565b979650505050505050565b60435460ff8082169161010090041682565b603854600090610100900460ff166118ed5760405162461bcd60e51b81526004016107b190615631565b6038805461ff00191690556119006127a6565b610dcf85858585613214565b805160009080158015906119205750835181145b61193c5760405162461bcd60e51b81526004016107b190614e95565b600061194785612ffc565b5060385460408051630bec15dd60e41b8152929350600092620100009092046001600160a01b03169163bec15dd0916119869186908a90600401614c18565b60206040518083038186803b15801561199e57600080fd5b505afa1580156119b2573d6000803e3d6000fd5b505050506040513d601f19601f820116820180604052508101906119d69190614677565b90506119f8603a54670de0b6b3a76400006119f1919061588f565b82906134c4565b9695505050505050565b3390565b6001600160a01b038316611a2c5760405162461bcd60e51b81526004016107b1906154cf565b6001600160a01b038216611a525760405162461bcd60e51b81526004016107b190614f33565b6001600160a01b0380841660008181526034602090815260408083209487168084529490915290819020849055517f8c5be1e5ebec7d5bd14f71427d1e84f3dd0314c0f7b2291e5b200ac8c7c3b92590611aad908590614e2c565b60405180910390a3505050565b6000808211611adb5760405162461bcd60e51b81526004016107b19061515b565b6000611ae6846134e3565b50603854604080516314efeae760e01b8152929350620100009091046001600160a01b0316916314efeae791611b229185908890600401614c2b565b60206040518083038186803b158015611b3a57600080fd5b505afa158015611b4e573d6000803e3d6000fd5b505050506040513d601f19601f82011682018060405250810190610f249190614677565b611b7a61360d565b6001600160a01b0316336001600160a01b031614611baa5760405162461bcd60e51b81526004016107b190615124565b565b6001600160a01b038316611bd25760405162461bcd60e51b81526004016107b19061548a565b6001600160a01b038216611bf85760405162461bcd60e51b81526004016107b190614ecc565b6001600160a01b03831660009081526033602052604081208054839290611c2090849061588f565b90915550506001600160a01b03821660009081526033602052604081208054839290611c4d908490615810565b92505081905550816001600160a01b0316836001600160a01b03167fddf252ad1be2c89b69c2b068fc378daa952ba7f163c4a11628f55a4df523b3ef83604051611aad9190614e2c565b33611ca06136a5565b6001600160a01b031614611baa5760405162461bcd60e51b81526004016107b1906150b6565b6001600160a01b038216611cec5760405162461bcd60e51b81526004016107b19061570b565b8060356000828254611cfe9190615810565b90915550506001600160a01b03821660009081526033602052604081208054839290611d2b908490615810565b90915550506040516001600160a01b038316906000907fddf252ad1be2c89b69c2b068fc378daa952ba7f163c4a11628f55a4df523b3ef90611d6e908590614e2c565b60405180910390a35050565b6040805180820190915260435460ff80821615801584526101009092041615156020830152611dbb5760405162461bcd60e51b81526004016107b190614f75565b50565b6000808411611ddf5760405162461bcd60e51b81526004016107b190615594565b60006040805480602002602001604051908101604052809291908181526020016000905b82821015611e4c57600084815260209081902060408051808201909152908401546001600160801b038082168352600160801b9091041681830152825260019092019101611e03565b505050509050600080611e5e886134e3565b915091506000611e6c61372c565b90506000611e85603a548a61378390919063ffffffff16565b6038549091506201000090046001600160a01b0316639dbecbfe8686611eab858e61588f565b6040518463ffffffff1660e01b8152600401611ec993929190614b56565b60206040518083038186803b158015611ee157600080fd5b505afa158015611ef5573d6000803e3d6000fd5b505050506040513d601f19601f82011682018060405250810190611f199190614677565b955087861015611f3b5760405162461bcd60e51b81526004016107b190615668565b611f45338a613798565b611f808684878760ff1681518110611f6d57634e487b7160e01b600052603260045260246000fd5b60200260200101518a8660200151613842565b611f8986613ac6565b858560ff1681518110611fac57634e487b7160e01b600052603260045260246000fd5b602002602001015160200151611fc29190615867565b60408560ff1681548110611fe657634e487b7160e01b600052603260045260246000fd5b600091825260209091200180546001600160801b03928316600160801b029216919091179055604082015161201c908290615810565b603e55825160405133917f105ffcfe6c5fa767ff5a53039fdd9ba80ce97196d4daa0beb1bfbfa0ed838ad89161205a918b918e91908c908890614a41565b60405180910390a25050505050949350505050565b60408051600180825281830190925260009182919060208083019080368337505060408051600180825281830190925292935060009291506020808301908036833701905050905086826000815181106120d957634e487b7160e01b600052603260045260246000fd5b60200260200101906001600160a01b031690816001600160a01b031681525050858160008151811061211b57634e487b7160e01b600052603260045260246000fd5b6020026020010181815250506118a6828287876123d4565b6000826001600160a01b0316846001600160a01b031614156121675760405162461bcd60e51b81526004016107b1906152b9565b600082116121875760405162461bcd60e51b81526004016107b1906151c9565b60006040805480602002602001604051908101604052809291908181526020016000905b828210156121f457600084815260209081902060408051808201909152908401546001600160801b038082168352600160801b90910416818301528252600190920191016121ab565b5050505090506000612205866134e3565b5090506000612213866134e3565b50603854603a5460405163461b7ff560e01b8152929350620100009091046001600160a01b03169163461b7ff591612255918791879187918c91600401614b7e565b604080518083038186803b15801561226c57600080fd5b505afa158015612280573d6000803e3d6000fd5b505050506040513d601f19601f820116820180604052508101906122a49190614755565b50979650505050505050565b60008082116122d15760405162461bcd60e51b81526004016107b190615594565b60006122dc846134e3565b50905060006122f6603a548561378390919063ffffffff16565b6038549091506201000090046001600160a01b0316639dbecbfe60408461231d858961588f565b6040518463ffffffff1660e01b815260040161233b93929190614c2b565b60206040518083038186803b15801561235357600080fd5b505afa158015612367573d6000803e3d6000fd5b505050506040513d601f19601f820116820180604052508101906106aa9190614677565b33612394613aef565b6001600160a01b031614806123b85750336123ad61360d565b6001600160a01b0316145b611baa5760405162461bcd60e51b81526004016107b1906150ed565b60006001600160a01b0382166123fc5760405162461bcd60e51b81526004016107b1906155cb565b8351801580159061240d5750855181145b6124295760405162461bcd60e51b81526004016107b190614e95565b600084116124495760405162461bcd60e51b81526004016107b1906153e3565b60008061245588612ffc565b6040805481516020808302820181018452828252949650929450600093849084015b828210156124c057600084815260209081902060408051808201909152908401546001600160801b038082168352600160801b9091041681830152825260019092019101612477565b50505050905060006124d061372c565b603854604051630bec15dd60e41b8152919250600091620100009091046001600160a01b03169063bec15dd09061250f90869089908f90600401614b1d565b60206040518083038186803b15801561252757600080fd5b505afa15801561253b573d6000803e3d6000fd5b505050506040513d601f19601f8201168201806040525081019061255f9190614677565b905061257a603a54670de0b6b3a76400006119f1919061588f565b96506000612588828961588f565b9050600088116125aa5760405162461bcd60e51b81526004016107b1906156d4565b898811156125ca5760405162461bcd60e51b81526004016107b19061569f565b6125d43389613798565b60005b8781101561273757600087828151811061260157634e487b7160e01b600052603260045260246000fd5b602002602001015190506000868260ff168151811061263057634e487b7160e01b600052603260045260246000fd5b602002602001015190506126998e848151811061265d57634e487b7160e01b600052603260045260246000fd5b602002602001015189858151811061268557634e487b7160e01b600052603260045260246000fd5b6020026020010151838f8a60200151613842565b6126c98e84815181106126bc57634e487b7160e01b600052603260045260246000fd5b6020026020010151613ac6565b81602001516126d89190615867565b60408360ff16815481106126fc57634e487b7160e01b600052603260045260246000fd5b600091825260209091200180546001600160801b03928316600160801b0292169190911790555081905061272f81615907565b9150506125d7565b508083604001516127489190615810565b603e81905550336001600160a01b03167fdf5bf345d5d6eedd0e8667d799d60af65d7127e3b0417e04bef4d954d2a4750e8a8a8f8f8660405161278f959493929190614aae565b60405180910390a250505050505050949350505050565b6040805180820190915260435460ff808216158015845261010090920416151560208301526127e75760405162461bcd60e51b81526004016107b190614f75565b806020015115611dbb5760405162461bcd60e51b81526004016107b190614fe3565b60006001600160a01b0382166128315760405162461bcd60e51b81526004016107b1906155cb565b835180158015906128425750855181145b61285e5760405162461bcd60e51b81526004016107b190615041565b60008061286a88612ffc565b6040805481516020808302820181018452828252949650929450600093849084015b828210156128d557600084815260209081902060408051808201909152908401546001600160801b038082168352600160801b909104168183015282526001909201910161288c565b50505050905060006128e561372c565b905060008567ffffffffffffffff81111561291057634e487b7160e01b600052604160045260246000fd5b604051908082528060200260200182016040528015612939578160200160208202803683370190505b50905060005b86811015612ad95760008b828151811061296957634e487b7160e01b600052603260045260246000fd5b602002602001015190506000811115612ac657600087838151811061299e57634e487b7160e01b600052603260045260246000fd5b602002602001015190506000868260ff16815181106129cd57634e487b7160e01b600052603260045260246000fd5b6020026020010151905060008885815181106129f957634e487b7160e01b600052603260045260246000fd5b602002602001015190506000612a30826000015184600001516001600160801b031684602001518560400151898d60200151613b5e565b905080878781518110612a5357634e487b7160e01b600052603260045260246000fd5b602002602001018181525050612a6881613ac6565b8360200151612a7791906157e5565b60408560ff1681548110612a9b57634e487b7160e01b600052603260045260246000fd5b600091825260209091200180546001600160801b03928316600160801b029216919091179055505050505b5080612ad181615907565b91505061293f565b506038546040516328de483560e11b8152620100009091046001600160a01b0316906351bc906a90612b1390869089908690600401614b1d565b60206040518083038186803b158015612b2b57600080fd5b505afa158015612b3f573d6000803e3d6000fd5b505050506040513d601f19601f82011682018060405250810190612b639190614677565b965088871015612b855760405162461bcd60e51b81526004016107b19061500a565b612b8f8888611cc6565b336001600160a01b03167f7d3ff197e9071095bd36b627028ef523ecf46fcbf17cbde745a4b65aec88b6bc89898e8e604051612bce9493929190614a75565b60405180910390a2505050505050949350505050565b303b1590565b612bf682826012613d1b565b5050565b6038805461ff001916610100179055565b6000846001600160a01b0316866001600160a01b03161415612c3f5760405162461bcd60e51b81526004016107b1906152b9565b60008411612c5f5760405162461bcd60e51b81526004016107b19061541a565b6001600160a01b038216612c855760405162461bcd60e51b81526004016107b190615192565b60006040805480602002602001604051908101604052809291908181526020016000905b82821015612cf257600084815260209081902060408051808201909152908401546001600160801b038082168352600160801b9091041681830152825260019092019101612ca9565b505050509050600080612d04896134e3565b91509150600080612d148a6134e3565b915091506000612d2261372c565b90506000612d7b8560000151888860ff1681518110612d5157634e487b7160e01b600052603260045260246000fd5b6020026020010151600001516001600160801b0316876020015188604001518f8760200151613b5e565b9050612d8681613ac6565b878760ff1681518110612da957634e487b7160e01b600052603260045260246000fd5b602002602001015160200151612dbf91906157e5565b60408760ff1681548110612de357634e487b7160e01b600052603260045260246000fd5b6000918252602082200180546001600160801b03938416600160801b02931692909217909155603854603a5460405163461b7ff560e01b81526001600160a01b0362010000909304929092169163461b7ff591612e4a918c918c918b918991600401614b7e565b604080518083038186803b158015612e6157600080fd5b505afa158015612e75573d6000803e3d6000fd5b505050506040513d601f19601f82011682018060405250810190612e999190614755565b90995090508a8911612ebd5760405162461bcd60e51b81526004016107b190614fac565b612ef889858a8860ff1681518110612ee557634e487b7160e01b600052603260045260246000fd5b60200260200101518d8760200151613842565b612f0189613ac6565b888660ff1681518110612f2457634e487b7160e01b600052603260045260246000fd5b602002602001015160200151612f3a9190615867565b60408660ff1681548110612f5e57634e487b7160e01b600052603260045260246000fd5b600091825260209091200180546001600160801b03928316600160801b0292169190911790556040830151612f94908290615810565b603e81905550336001600160a01b03167f1eeaa4acf3c225a4033105c2647625dbb298dec93b14e16253c4231e26c02b1d876000015186600001518c858f604051612fe395949392919061499d565b60405180910390a2505050505050505095945050505050565b805160609081908067ffffffffffffffff81111561302a57634e487b7160e01b600052604160045260246000fd5b604051908082528060200260200182016040528015613053578160200160208202803683370190505b5092508067ffffffffffffffff81111561307d57634e487b7160e01b600052604160045260246000fd5b6040519080825280602002602001820160405280156130b657816020015b6130a36140b2565b81526020019060019003908161309b5790505b50915060005b8181101561320d576130f48582815181106130e757634e487b7160e01b600052603260045260246000fd5b60200260200101516134e3565b85838151811061311457634e487b7160e01b600052603260045260246000fd5b6020026020010185848151811061313b57634e487b7160e01b600052603260045260246000fd5b602090810291909101019190915260ff9091169052600061315d826001615810565b90505b828110156131fa5785818151811061318857634e487b7160e01b600052603260045260246000fd5b60200260200101516001600160a01b03168683815181106131b957634e487b7160e01b600052603260045260246000fd5b60200260200101516001600160a01b031614156131e85760405162461bcd60e51b81526004016107b190615327565b806131f281615907565b915050613160565b508061320581615907565b9150506130bc565b5050915091565b60006001600160a01b03821661323c5760405162461bcd60e51b81526004016107b1906155cb565b6000841161325c5760405162461bcd60e51b81526004016107b19061515b565b60006040805480602002602001604051908101604052809291908181526020016000905b828210156132c957600084815260209081902060408051808201909152908401546001600160801b038082168352600160801b9091041681830152825260019092019101613280565b5050505090506000806132db886134e3565b9150915060006132e961372c565b905060006133428360000151868660ff168151811061331857634e487b7160e01b600052603260045260246000fd5b6020026020010151600001516001600160801b0316856020015186604001518d8760200151613b5e565b6038546040516314efeae760e01b81529192506201000090046001600160a01b0316906314efeae79061337d90889088908690600401614b56565b60206040518083038186803b15801561339557600080fd5b505afa1580156133a9573d6000803e3d6000fd5b505050506040513d601f19601f820116820180604052508101906133cd9190614677565b9550878610156133ef5760405162461bcd60e51b81526004016107b19061500a565b6133f881613ac6565b858560ff168151811061341b57634e487b7160e01b600052603260045260246000fd5b60200260200101516020015161343191906157e5565b60408560ff168154811061345557634e487b7160e01b600052603260045260246000fd5b600091825260209091200180546001600160801b03928316600160801b0292169190911790556134858787611cc6565b336001600160a01b03167f30873c596f54a2e2e09894670d7e1a48b2433c00204f81fbedf557353c36e7c788888d8560405161205a9493929190614a17565b6000816134d9670de0b6b3a764000085615848565b61076e9190615828565b60006134ed6140b2565b6001600160a01b038316600090815260416020526040902054603f805460ff9092169350908390811061353057634e487b7160e01b600052603260045260246000fd5b600091825260209182902060408051608081018252600290930290910180546001600160a01b03908116845260018201549081169484019490945260ff600160a01b8504811615159284019290925291926060840191600160a81b9091041660078111156135ae57634e487b7160e01b600052602160045260246000fd5b60078111156135cd57634e487b7160e01b600052602160045260246000fd5b815250509050826001600160a01b031681600001516001600160a01b0316146136085760405162461bcd60e51b81526004016107b190614e68565b915091565b60007f00000000000000000000000000000000000000000000000000000000000000006001600160a01b0316630c340a246040518163ffffffff1660e01b815260040160206040518083038186803b15801561366857600080fd5b505afa15801561367c573d6000803e3d6000fd5b505050506040513d601f19601f820116820180604052508101906136a0919061424f565b905090565b6040516385acd64160e01b81526000906001600160a01b037f000000000000000000000000000000000000000000000000000000000000000016906385acd64190613714907f12fe936c77a1e196473c4314f3bed8eeac1d757b319abb85bdda70df35511bf190600401614e2c565b60206040518083038186803b15801561366857600080fd5b6137346140ee565b603e5460008161374261077b565b61374c9190615810565b90506040518060600160405280828152602001613774603d548461378390919063ffffffff16565b81526020019290925250905090565b600061076e8383670de0b6b3a7640000613d5b565b6001600160a01b0382166137be5760405162461bcd60e51b81526004016107b190615449565b6001600160a01b038216600090815260336020526040812080548392906137e690849061588f565b9250508190555080603560008282546137ff919061588f565b90915550506040516000906001600160a01b038416907fddf252ad1be2c89b69c2b068fc378daa952ba7f163c4a11628f55a4df523b3ef90611d6e908590614e2c565b8461384c576111dd565b60208401516001600160a01b0316613879578351613874906001600160a01b03168387613d72565b6111dd565b8360400151156138f6576020840151845160405163c89fc72f60e01b81526001600160a01b039092169163c89fc72f916138bf918691908a9081906001906004016149cd565b600060405180830381600087803b1580156138d957600080fd5b505af11580156138ed573d6000803e3d6000fd5b505050506111dd565b835160208501516040516370a0823160e01b81526000926001600160a01b0316916370a082319161392a9190600401614938565b60206040518083038186803b15801561394257600080fd5b505afa158015613956573d6000803e3d6000fd5b505050506040513d601f19601f8201168201806040525081019061397a9190614677565b90508581106139f1576020850151855160405163a4e2859560e01b81526001600160a01b039092169163a4e28595916139ba918791908b90600401614979565b600060405180830381600087803b1580156139d457600080fd5b505af11580156139e8573d6000803e3d6000fd5b50505050611152565b8351600090600290613a0d9085906001600160801b0316613dcd565b613a179190615828565b90506000613a5983613a298a85615810565b613a33919061588f565b613a3c85613ac6565b8860200151613a4b9190615867565b6001600160801b0316613dde565b6020880151885160405163c89fc72f60e01b81529293506001600160a01b039091169163c89fc72f91613a98918991908d9087906000906004016149cd565b600060405180830381600087803b158015613ab257600080fd5b505af115801561169c573d6000803e3d6000fd5b6000600160801b8210613aeb5760405162461bcd60e51b81526004016107b19061506f565b5090565b6040516385acd64160e01b81526000906001600160a01b037f000000000000000000000000000000000000000000000000000000000000000016906385acd64190613714907f6d439300980e333f0256d64be2c9f67e86f4493ce25f82498d6db7f4be3d9e6f90600401614e2c565b60006001600160a01b038516613b86576000613b7c33308a87613df3565b5091506119f89050565b6000613b9433878a87613df3565b90925090508415613c3a576040516307dba22560e31b81526000906001600160a01b03881690633edd112890613bd3908c908790600190600401614afa565b602060405180830381600087803b158015613bed57600080fd5b505af1158015613c01573d6000803e3d6000fd5b505050506040513d601f19601f82011682018060405250810190613c259190614677565b9050613c318186613dde565b925050506119f8565b838214613c595760405162461bcd60e51b81526004016107b19061525a565b6000613c658489613dcd565b905080821115613d0f576000613c7c600283615828565b613c86908461588f565b6040516307dba22560e31b81529091506001600160a01b03891690633edd112890613cba908d908590600090600401614afa565b602060405180830381600087803b158015613cd457600080fd5b505af1158015613ce8573d6000803e3d6000fd5b505050506040513d601f19601f82011682018060405250810190613d0c9190614677565b50505b50509695505050505050565b8251613d2e90603690602086019061410f565b508151613d4290603790602085019061410f565b506038805460ff191660ff929092169190911790555050565b600081613d688486615848565b610f249190615828565b613dc88363a9059cbb60e01b8484604051602401613d919291906149fe565b60408051601f198184030181529190526020810180516001600160e01b03166001600160e01b031990931692909217909152613f1f565b505050565b6000816134d96305f5e10085615848565b6000818311613ded578261076e565b50919050565b6000806000846001600160a01b03166370a08231876040518263ffffffff1660e01b8152600401613e249190614938565b60206040518083038186803b158015613e3c57600080fd5b505afa158015613e50573d6000803e3d6000fd5b505050506040513d601f19601f82011682018060405250810190613e749190614677565b9050613e8b6001600160a01b038616888887613fae565b6040516370a0823160e01b81526001600160a01b038616906370a0823190613eb7908990600401614938565b60206040518083038186803b158015613ecf57600080fd5b505afa158015613ee3573d6000803e3d6000fd5b505050506040513d601f19601f82011682018060405250810190613f079190614677565b9150613f13818361588f565b92505094509492505050565b6000613f74826040518060400160405280602081526020017f5361666545524332303a206c6f772d6c6576656c2063616c6c206661696c6564815250856001600160a01b0316613fd59092919063ffffffff16565b805190915015613dc85780806020019051810190613f929190614545565b613dc85760405162461bcd60e51b81526004016107b19061554a565b613fcf846323b872dd60e01b858585604051602401613d9193929190614979565b50505050565b6060610f24848460008585613fe985614073565b6140055760405162461bcd60e51b81526004016107b190615513565b600080866001600160a01b03168587604051614021919061491c565b60006040518083038185875af1925050503d806000811461405e576040519150601f19603f3d011682016040523d82523d6000602084013e614063565b606091505b50915091506118a6828286614079565b3b151590565b6060831561408857508161076e565b8251156140985782518084602001fd5b8160405162461bcd60e51b81526004016107b19190614e35565b6040805160808101825260008082526020820181905291810182905290606082015290565b604080518082019091526000808252602082015290565b60405180606001604052806000815260200160008152602001600081525090565b82805461411b906158d2565b90600052602060002090601f01602090048101928261413d5760008555614183565b82601f1061415657805160ff1916838001178555614183565b82800160010185558215614183579182015b82811115614183578251825591602001919060010190614168565b50613aeb9291505b80821115613aeb576000815560010161418b565b8035610f128161594e565b60008083601f8401126141bb578081fd5b50813567ffffffffffffffff8111156141d2578182fd5b60208301915083602080830285010111156141ec57600080fd5b9250929050565b60008083601f840112614204578182fd5b50813567ffffffffffffffff81111561421b578182fd5b6020830191508360208285010111156141ec57600080fd5b600060208284031215614244578081fd5b813561076e8161594e565b600060208284031215614260578081fd5b815161076e8161594e565b6000806040838503121561427d578081fd5b82356142888161594e565b915060208301356142988161594e565b809150509250929050565b6000806000606084860312156142b7578081fd5b83356142c28161594e565b925060208401356142d28161594e565b929592945050506040919091013590565b600080600080600060a086880312156142fa578081fd5b85356143058161594e565b945060208601356143158161594e565b9350604086013592506060860135915060808601356143338161594e565b809150509295509295909350565b60008060408385031215614353578182fd5b823561435e8161594e565b9150602083013561429881615963565b60008060408385031215614380578182fd5b823561438b8161594e565b946020939093013593505050565b600080600080608085870312156143ae578384fd5b84356143b98161594e565b9350602085013592506040850135915060608501356143d78161594e565b939692955090935050565b6000806000604084860312156143f6578283fd5b833567ffffffffffffffff81111561440c578384fd5b614418868287016141aa565b909450925050602084013561442c8161594e565b809150509250925092565b6000806000806040858703121561444c578384fd5b843567ffffffffffffffff80821115614463578586fd5b61446f888389016141aa565b90965094506020870135915080821115614487578384fd5b50614494878288016141aa565b95989497509550505050565b600080600080600080608087890312156144b8578384fd5b863567ffffffffffffffff808211156144cf578586fd5b6144db8a838b016141aa565b909850965060208901359150808211156144f3578586fd5b5061450089828a016141aa565b90955093505060408701359150606087013561451b8161594e565b809150509295509295509295565b60006020828403121561453a578081fd5b813561076e81615963565b600060208284031215614556578081fd5b815161076e81615963565b600080600080600080600080600080600060c08c8e031215614581578889fd5b67ffffffffffffffff808d35111561459757898afd5b6145a48e8e358f016141f3565b909c509a5060208d01358110156145b957898afd5b6145c98e60208f01358f016141f3565b909a5098506145da60408e0161419f565b97508060608e013511156145ec578586fd5b6145fc8e60608f01358f016141aa565b909750955060808d0135811015614611578485fd5b6146218e60808f01358f016141aa565b909550935060a08d0135811015614636578283fd5b506146478d60a08e01358e016141aa565b81935080925050509295989b509295989b9093969950565b600060208284031215614670578081fd5b5035919050565b600060208284031215614688578081fd5b5051919050565b600080604083850312156146a1578182fd5b8251915060208084015167ffffffffffffffff808211156146c0578384fd5b818601915086601f8301126146d3578384fd5b8151818111156146e5576146e5615938565b8381026040518582820101818110858211171561470457614704615938565b604052828152858101935084860182860187018b1015614722578788fd5b8795505b83861015614744578051855260019590950194938601938601614726565b508096505050505050509250929050565b60008060408385031215614767578182fd5b505080516020909101519092909150565b6000815180845260208085019450808401835b838110156147b05781516001600160a01b03168752958201959082019060010161478b565b509495945050505050565b6000815180845260208085019450808401835b838110156147b0576147e18783516148c9565b60409690960195908201906001016147ce565b6000815480845260208085019450838352808320835b838110156147b05781546001600160801b038116885260801c838801526040909601956001918201910161480a565b6000815180845260208085019450808401835b838110156147b05781518752958201959082019060010161484c565b6000815180845260208085019450808401835b838110156147b057815160ff168752958201959082019060010161487b565b6001600160a01b03169052565b600881106148c557634e487b7160e01b600052602160045260246000fd5b9052565b80516001600160801b03908116835260209182015116910152565b60018060a01b03808251168352806020830151166020840152506040810151151560408301526060810151613dc860608401826148a7565b6000825161492e8184602087016158a6565b9190910192915050565b6001600160a01b0391909116815260200190565b6001600160a01b038581168252841660208201528215156040820152608081016106aa60608301846148a7565b6001600160a01b039384168152919092166020820152604081019190915260600190565b6001600160a01b039586168152938516602085015260408401929092526060830152909116608082015260a00190565b6001600160a01b03958616815293909416602084015260408301919091526060820152901515608082015260a00190565b6001600160a01b03929092168252602082015260400190565b6001600160a01b039485168152602081019390935292166040820152606081019190915260800190565b6001600160a01b03958616815260208101949094529190931660408301526060820192909252608081019190915260a00190565b600060018060a01b038616825284602083015260806040830152614a9c6080830185614778565b82810360608401526118a68185614839565b600060018060a01b038716825285602083015260a06040830152614ad560a0830186614778565b8281036060840152614ae78186614839565b9150508260808301529695505050505050565b6001600160a01b0393909316835260208301919091521515604082015260600190565b600060608252614b3060608301866147bb565b8281036020840152614b428186614868565b905082810360408401526119f88185614839565b600060608252614b6960608301866147bb565b60ff9490941660208301525060400152919050565b600060a08252614b9160a08301886147bb565b60ff9687166020840152949095166040820152606081019290925260809091015292915050565b600060608252614bcb60608301876147f4565b8281036020840152614bdd8187614868565b838103604085015284815290506001600160fb1b03841115614bfd578182fd5b60208402808660208401370160200190815295945050505050565b600060608252614b3060608301866147f4565b600060608252614b6960608301866147f4565b604080825283519082018190526000906020906060840190828701845b82811015614c8157614c6e8483516148e4565b6080939093019290840190600101614c5b565b505050838103828501526119f881866147bb565b600060608083018184528087548083526080925082860191508885526020808620865b83811015614d135781546001600160a01b03908116865260018301549081168487015260ff60a082901c81161515604088015290614cfe89880160a883901c84166148a7565b50509385019360029190910190600101614cb8565b50508601889052509250610f24915050604083018461489a565b9788526020880196909652604087019490945260ff9290921660608601526001600160a01b0390811660808601521660a084015260c0830152151560e08201526101000190565b93845260208401929092526001600160a01b031660408301521515606082015260800190565b85815260208082018690526080604083018190528201849052600090859060a08401835b87811015614dec578335614dd18161594e565b6001600160a01b031682529282019290820190600101614dbe565b506001600160a01b03959095166060949094019390935250919695505050505050565b901515815260200190565b91151582521515602082015260400190565b90815260200190565b6000602082528251806020840152614e548160408501602087016158a6565b601f01601f19169190910160400192915050565b602080825260139082015272125b9d985b1a5908185cdcd95d081a5b9c1d5d606a1b604082015260600190565b6020808252601b908201527f496e707574206172726179206c656e677468206d69736d617463680000000000604082015260600190565b60208082526023908201527f45524332303a207472616e7366657220746f20746865207a65726f206164647260408201526265737360e81b606082015260800190565b6020808252600a90820152694e6f206241737365747360b01b604082015260600190565b60208082526022908201527f45524332303a20617070726f766520746f20746865207a65726f206164647265604082015261737360f01b606082015260800190565b6020808252601b908201527f6241737365742072652d636f6c6c61746572616c69736174696f6e0000000000604082015260600190565b6020808252601d908201527f53776170206f757470757420717479203c206d696e696d756d20717479000000604082015260600190565b6020808252600d908201526c18985cdad95d0819985a5b1959609a1b604082015260600190565b6020808252601e908201527f4d696e74206d4173736574207175616e74697479203c206d696e207174790000604082015260600190565b602080825260149082015273092dce0eae840c2e4e4c2f240dad2e6dac2e8c6d60631b604082015260600190565b60208082526027908201527f53616665436173743a2076616c756520646f65736e27742066697420696e20316040820152663238206269747360c81b606082015260800190565b60208082526017908201527f4d75737420626520736176696e6773206d616e61676572000000000000000000604082015260600190565b6020808252601b908201527f4d757374206265206d616e61676572206f7220676f7665726e6f720000000000604082015260600190565b60208082526019908201527f4f6e6c7920676f7665726e6f722063616e206578656375746500000000000000604082015260600190565b60208082526019908201527f5175616e74697479206d757374206e6f74206265207a65726f00000000000000604082015260600190565b6020808252601e908201527f4d697373696e67207377617020726563697069656e7420616464726573730000604082015260600190565b60208082526010908201526f496e76616c6964207175616e7469747960801b604082015260600190565b6020808252601690820152754d75737420636f6c6c65637420736f6d657468696e6760501b604082015260600190565b60208082526018908201527f4d757374206265206e6f6e206e756c6c20616464726573730000000000000000604082015260600190565b6020808252601b908201527f4173736574206e6f742066756c6c79207472616e736665727265640000000000604082015260600190565b6020808252600e908201526d4d757374206265203c3d2032302560901b604082015260600190565b6020808252601d908201527f43616e206e6f742073776170207468652073616d652062417373657473000000604082015260600190565b6020808252601a908201527f4d75737420626520616c6c6f77656420746f2075706772616465000000000000604082015260600190565b6020808252601b908201527f4e6f206475706c69636174652061737365747320616c6c6f7765640000000000604082015260600190565b6020808252601a908201527f52617465206d7573742062652077697468696e20626f756e6473000000000000604082015260600190565b6020808252602e908201527f436f6e747261637420696e7374616e63652068617320616c726561647920626560408201526d195b881a5b9a5d1a585b1a5e995960921b606082015260800190565b6020808252601b908201527f4d6178206d4173736574207175616e74697479206973207a65726f0000000000604082015260600190565b602080825260159082015274496e76616c69642073776170207175616e7469747960581b604082015260600190565b60208082526021908201527f45524332303a206275726e2066726f6d20746865207a65726f206164647265736040820152607360f81b606082015260800190565b60208082526025908201527f45524332303a207472616e736665722066726f6d20746865207a65726f206164604082015264647265737360d81b606082015260800190565b60208082526024908201527f45524332303a20617070726f76652066726f6d20746865207a65726f206164646040820152637265737360e01b606082015260800190565b6020808252601d908201527f416464726573733a2063616c6c20746f206e6f6e2d636f6e7472616374000000604082015260600190565b6020808252602a908201527f5361666545524332303a204552433230206f7065726174696f6e20646964206e6040820152691bdd081cdd58d8d9595960b21b606082015260800190565b6020808252601b908201527f496e76616c696420726564656d7074696f6e207175616e746974790000000000604082015260600190565b60208082526019908201527f4d75737420626520612076616c696420726563697069656e7400000000000000604082015260600190565b60208082526015908201527418905cdcd95d08191bd95cc81b9bdd08195e1a5cdd605a1b604082015260600190565b6020808252601f908201527f5265656e7472616e637947756172643a207265656e7472616e742063616c6c00604082015260600190565b6020808252601b908201527f62417373657420717479203c206d696e20624173736574207174790000000000604082015260600190565b6020808252818101527f72656465656d206d417373657420717479203e206d6178207175616e74697479604082015260600190565b60208082526018908201527f4d7573742072656465656d20736f6d65206d4173736574730000000000000000604082015260600190565b6020808252601f908201527f45524332303a206d696e7420746f20746865207a65726f206164647265737300604082015260600190565b938452602084019290925260408301526001600160a01b0316606082015260800190565b948552602085019390935260408401919091526001600160a01b031660608301521515608082015260a00190565b60c081016157a282856148e4565b61076e60808301846148c9565b6001600160801b0392831681529116602082015260400190565b918252602082015260400190565b60ff91909116815260200190565b60006001600160801b0380831681851680830382111561580757615807615922565b01949350505050565b6000821982111561582357615823615922565b500190565b60008261584357634e487b7160e01b81526012600452602481fd5b500490565b600081600019048311821515161561586257615862615922565b500290565b60006001600160801b038381169083168181101561588757615887615922565b039392505050565b6000828210156158a1576158a1615922565b500390565b60005b838110156158c15781810151838201526020016158a9565b83811115613fcf5750506000910152565b6002810460018216806158e657607f821691505b60208210811415613ded57634e487b7160e01b600052602260045260246000fd5b600060001982141561591b5761591b615922565b5060010190565b634e487b7160e01b600052601160045260246000fd5b634e487b7160e01b600052604160045260246000fd5b6001600160a01b0381168114611dbb57600080fd5b8015158114611dbb57600080fdfea26469706673582212201e1a93348412c23e2fccef82b31d41b741fd75fcba6a526347c868e740ea572564736f6c63430008000033",
  "linkReferences": {
    "contracts/curved-masset/Manager.sol": {
      "Manager": [
        {
          "length": 20,
          "start": 4010
        },
        {
          "length": 20,
          "start": 4269
        },
        {
          "length": 20,
          "start": 4620
        },
        {
          "length": 20,
          "start": 4761
        },
        {
          "length": 20,
          "start": 5712
        },
        {
          "length": 20,
          "start": 6112
        }
      ]
    }
  },
  "deployedLinkReferences": {
    "contracts/curved-masset/Manager.sol": {
      "Manager": [
        {
          "length": 20,
          "start": 3729
        },
        {
          "length": 20,
          "start": 3988
        },
        {
          "length": 20,
          "start": 4339
        },
        {
          "length": 20,
          "start": 4480
        },
        {
          "length": 20,
          "start": 5431
        },
        {
          "length": 20,
          "start": 5831
        }
      ]
    }
  }
}