{
  "_format": "hh-sol-artifact-1",
  "contractName": "StakingRewardsDualV5",
  "sourceName": "contracts/Staking/StakingRewardsDualV5.sol",
  "abi": [
    {
      "inputs": [
        {
          "internalType": "address",
          "name": "_owner",
          "type": "address"
        },
        {
          "internalType": "address",
          "name": "_rewardsToken0",
          "type": "address"
        },
        {
          "internalType": "address",
          "name": "_rewardsToken1",
          "type": "address"
        },
        {
          "internalType": "address",
          "name": "_stakingToken",
          "type": "address"
        },
        {
          "internalType": "address",
          "name": "_frax_address",
          "type": "address"
        },
        {
          "internalType": "address",
          "name": "_timelock_address",
          "type": "address"
        },
        {
          "internalType": "address",
          "name": "_veFXS_address",
          "type": "address"
        }
      ],
      "stateMutability": "nonpayable",
      "type": "constructor"
    },
    {
      "anonymous": false,
      "inputs": [],
      "name": "DefaultInitialization",
      "type": "event"
    },
    {
      "anonymous": false,
      "inputs": [
        {
          "indexed": false,
          "internalType": "uint256",
          "name": "multiplier",
          "type": "uint256"
        }
      ],
      "name": "LockedStakeMaxMultiplierUpdated",
      "type": "event"
    },
    {
      "anonymous": false,
      "inputs": [
        {
          "indexed": false,
          "internalType": "uint256",
          "name": "secs",
          "type": "uint256"
        }
      ],
      "name": "LockedStakeMinTime",
      "type": "event"
    },
    {
      "anonymous": false,
      "inputs": [
        {
          "indexed": false,
          "internalType": "uint256",
          "name": "secs",
          "type": "uint256"
        }
      ],
      "name": "LockedStakeTimeForMaxMultiplier",
      "type": "event"
    },
    {
      "anonymous": false,
      "inputs": [
        {
          "indexed": false,
          "internalType": "uint256",
          "name": "multiplier",
          "type": "uint256"
        }
      ],
      "name": "MaxVeFXSMultiplier",
      "type": "event"
    },
    {
      "anonymous": false,
      "inputs": [
        {
          "indexed": false,
          "internalType": "address",
          "name": "oldOwner",
          "type": "address"
        },
        {
          "indexed": false,
          "internalType": "address",
          "name": "newOwner",
          "type": "address"
        }
      ],
      "name": "OwnerChanged",
      "type": "event"
    },
    {
      "anonymous": false,
      "inputs": [
        {
          "indexed": false,
          "internalType": "address",
          "name": "newOwner",
          "type": "address"
        }
      ],
      "name": "OwnerNominated",
      "type": "event"
    },
    {
      "anonymous": false,
      "inputs": [
        {
          "indexed": false,
          "internalType": "address",
          "name": "token",
          "type": "address"
        },
        {
          "indexed": false,
          "internalType": "uint256",
          "name": "amount",
          "type": "uint256"
        }
      ],
      "name": "Recovered",
      "type": "event"
    },
    {
      "anonymous": false,
      "inputs": [
        {
          "indexed": false,
          "internalType": "uint256",
          "name": "reward",
          "type": "uint256"
        }
      ],
      "name": "RewardAdded",
      "type": "event"
    },
    {
      "anonymous": false,
      "inputs": [
        {
          "indexed": true,
          "internalType": "address",
          "name": "user",
          "type": "address"
        },
        {
          "indexed": false,
          "internalType": "uint256",
          "name": "reward",
          "type": "uint256"
        },
        {
          "indexed": false,
          "internalType": "address",
          "name": "token_address",
          "type": "address"
        },
        {
          "indexed": false,
          "internalType": "address",
          "name": "destination_address",
          "type": "address"
        }
      ],
      "name": "RewardPaid",
      "type": "event"
    },
    {
      "anonymous": false,
      "inputs": [
        {
          "indexed": false,
          "internalType": "uint256",
          "name": "newDuration",
          "type": "uint256"
        }
      ],
      "name": "RewardsDurationUpdated",
      "type": "event"
    },
    {
      "anonymous": false,
      "inputs": [
        {
          "indexed": false,
          "internalType": "address",
          "name": "token",
          "type": "address"
        }
      ],
      "name": "RewardsPeriodRenewed",
      "type": "event"
    },
    {
      "anonymous": false,
      "inputs": [
        {
          "indexed": true,
          "internalType": "address",
          "name": "user",
          "type": "address"
        },
        {
          "indexed": false,
          "internalType": "uint256",
          "name": "amount",
          "type": "uint256"
        },
        {
          "indexed": false,
          "internalType": "uint256",
          "name": "secs",
          "type": "uint256"
        },
        {
          "indexed": false,
          "internalType": "bytes32",
          "name": "kek_id",
          "type": "bytes32"
        },
        {
          "indexed": false,
          "internalType": "address",
          "name": "source_address",
          "type": "address"
        }
      ],
      "name": "StakeLocked",
      "type": "event"
    },
    {
      "anonymous": false,
      "inputs": [
        {
          "indexed": true,
          "internalType": "address",
          "name": "user",
          "type": "address"
        },
        {
          "indexed": false,
          "internalType": "uint256",
          "name": "amount",
          "type": "uint256"
        },
        {
          "indexed": false,
          "internalType": "bytes32",
          "name": "kek_id",
          "type": "bytes32"
        },
        {
          "indexed": false,
          "internalType": "address",
          "name": "destination_address",
          "type": "address"
        }
      ],
      "name": "WithdrawLocked",
      "type": "event"
    },
    {
      "anonymous": false,
      "inputs": [
        {
          "indexed": false,
          "internalType": "uint256",
          "name": "scale_factor",
          "type": "uint256"
        }
      ],
      "name": "veFXSPerFraxForMaxBoostUpdated",
      "type": "event"
    },
    {
      "inputs": [],
      "name": "acceptOwnership",
      "outputs": [],
      "stateMutability": "nonpayable",
      "type": "function"
    },
    {
      "inputs": [
        {
          "internalType": "address",
          "name": "migrator_address",
          "type": "address"
        }
      ],
      "name": "addMigrator",
      "outputs": [],
      "stateMutability": "nonpayable",
      "type": "function"
    },
    {
      "inputs": [
        {
          "internalType": "address",
          "name": "account",
          "type": "address"
        }
      ],
      "name": "calcCurCombinedWeight",
      "outputs": [
        {
          "internalType": "uint256",
          "name": "old_combined_weight",
          "type": "uint256"
        },
        {
          "internalType": "uint256",
          "name": "new_vefxs_multiplier",
          "type": "uint256"
        },
        {
          "internalType": "uint256",
          "name": "new_combined_weight",
          "type": "uint256"
        }
      ],
      "stateMutability": "view",
      "type": "function"
    },
    {
      "inputs": [
        {
          "internalType": "address",
          "name": "account",
          "type": "address"
        }
      ],
      "name": "combinedWeightOf",
      "outputs": [
        {
          "internalType": "uint256",
          "name": "",
          "type": "uint256"
        }
      ],
      "stateMutability": "view",
      "type": "function"
    },
    {
      "inputs": [
        {
          "internalType": "address",
          "name": "account",
          "type": "address"
        }
      ],
      "name": "earned",
      "outputs": [
        {
          "internalType": "uint256",
          "name": "",
          "type": "uint256"
        },
        {
          "internalType": "uint256",
          "name": "",
          "type": "uint256"
        }
      ],
      "stateMutability": "view",
      "type": "function"
    },
    {
      "inputs": [],
      "name": "fraxPerLPToken",
      "outputs": [
        {
          "internalType": "uint256",
          "name": "",
          "type": "uint256"
        }
      ],
      "stateMutability": "view",
      "type": "function"
    },
    {
      "inputs": [],
      "name": "getReward",
      "outputs": [
        {
          "internalType": "uint256",
          "name": "",
          "type": "uint256"
        },
        {
          "internalType": "uint256",
          "name": "",
          "type": "uint256"
        }
      ],
      "stateMutability": "nonpayable",
      "type": "function"
    },
    {
      "inputs": [],
      "name": "getRewardForDuration",
      "outputs": [
        {
          "internalType": "uint256",
          "name": "",
          "type": "uint256"
        },
        {
          "internalType": "uint256",
          "name": "",
          "type": "uint256"
        }
      ],
      "stateMutability": "view",
      "type": "function"
    },
    {
      "inputs": [
        {
          "internalType": "address",
          "name": "",
          "type": "address"
        }
      ],
      "name": "greylist",
      "outputs": [
        {
          "internalType": "bool",
          "name": "",
          "type": "bool"
        }
      ],
      "stateMutability": "view",
      "type": "function"
    },
    {
      "inputs": [
        {
          "internalType": "address",
          "name": "_address",
          "type": "address"
        }
      ],
      "name": "greylistAddress",
      "outputs": [],
      "stateMutability": "nonpayable",
      "type": "function"
    },
    {
      "inputs": [],
      "name": "initializeDefault",
      "outputs": [],
      "stateMutability": "nonpayable",
      "type": "function"
    },
    {
      "inputs": [],
      "name": "lastTimeRewardApplicable",
      "outputs": [
        {
          "internalType": "uint256",
          "name": "",
          "type": "uint256"
        }
      ],
      "stateMutability": "view",
      "type": "function"
    },
    {
      "inputs": [],
      "name": "lastUpdateTime",
      "outputs": [
        {
          "internalType": "uint256",
          "name": "",
          "type": "uint256"
        }
      ],
      "stateMutability": "view",
      "type": "function"
    },
    {
      "inputs": [
        {
          "internalType": "uint256",
          "name": "secs",
          "type": "uint256"
        }
      ],
      "name": "lockMultiplier",
      "outputs": [
        {
          "internalType": "uint256",
          "name": "",
          "type": "uint256"
        }
      ],
      "stateMutability": "view",
      "type": "function"
    },
    {
      "inputs": [],
      "name": "lock_max_multiplier",
      "outputs": [
        {
          "internalType": "uint256",
          "name": "",
          "type": "uint256"
        }
      ],
      "stateMutability": "view",
      "type": "function"
    },
    {
      "inputs": [],
      "name": "lock_time_for_max_multiplier",
      "outputs": [
        {
          "internalType": "uint256",
          "name": "",
          "type": "uint256"
        }
      ],
      "stateMutability": "view",
      "type": "function"
    },
    {
      "inputs": [],
      "name": "lock_time_min",
      "outputs": [
        {
          "internalType": "uint256",
          "name": "",
          "type": "uint256"
        }
      ],
      "stateMutability": "view",
      "type": "function"
    },
    {
      "inputs": [
        {
          "internalType": "address",
          "name": "account",
          "type": "address"
        }
      ],
      "name": "lockedLiquidityOf",
      "outputs": [
        {
          "internalType": "uint256",
          "name": "",
          "type": "uint256"
        }
      ],
      "stateMutability": "view",
      "type": "function"
    },
    {
      "inputs": [
        {
          "internalType": "address",
          "name": "account",
          "type": "address"
        }
      ],
      "name": "lockedStakesOf",
      "outputs": [
        {
          "components": [
            {
              "internalType": "bytes32",
              "name": "kek_id",
              "type": "bytes32"
            },
            {
              "internalType": "uint256",
              "name": "start_timestamp",
              "type": "uint256"
            },
            {
              "internalType": "uint256",
              "name": "liquidity",
              "type": "uint256"
            },
            {
              "internalType": "uint256",
              "name": "ending_timestamp",
              "type": "uint256"
            },
            {
              "internalType": "uint256",
              "name": "lock_multiplier",
              "type": "uint256"
            }
          ],
          "internalType": "struct StakingRewardsDualV5.LockedStake[]",
          "name": "",
          "type": "tuple[]"
        }
      ],
      "stateMutability": "view",
      "type": "function"
    },
    {
      "inputs": [],
      "name": "migrationsOn",
      "outputs": [
        {
          "internalType": "bool",
          "name": "",
          "type": "bool"
        }
      ],
      "stateMutability": "view",
      "type": "function"
    },
    {
      "inputs": [
        {
          "internalType": "address",
          "name": "staker_address",
          "type": "address"
        },
        {
          "internalType": "address",
          "name": "migrator_address",
          "type": "address"
        }
      ],
      "name": "migratorApprovedForStaker",
      "outputs": [
        {
          "internalType": "bool",
          "name": "",
          "type": "bool"
        }
      ],
      "stateMutability": "view",
      "type": "function"
    },
    {
      "inputs": [
        {
          "internalType": "address",
          "name": "staker_address",
          "type": "address"
        },
        {
          "internalType": "uint256",
          "name": "amount",
          "type": "uint256"
        },
        {
          "internalType": "uint256",
          "name": "secs",
          "type": "uint256"
        },
        {
          "internalType": "uint256",
          "name": "start_timestamp",
          "type": "uint256"
        }
      ],
      "name": "migrator_stakeLocked_for",
      "outputs": [],
      "stateMutability": "nonpayable",
      "type": "function"
    },
    {
      "inputs": [
        {
          "internalType": "address",
          "name": "staker_address",
          "type": "address"
        },
        {
          "internalType": "bytes32",
          "name": "kek_id",
          "type": "bytes32"
        }
      ],
      "name": "migrator_withdraw_locked",
      "outputs": [],
      "stateMutability": "nonpayable",
      "type": "function"
    },
    {
      "inputs": [
        {
          "internalType": "address",
          "name": "account",
          "type": "address"
        }
      ],
      "name": "minVeFXSForMaxBoost",
      "outputs": [
        {
          "internalType": "uint256",
          "name": "",
          "type": "uint256"
        }
      ],
      "stateMutability": "view",
      "type": "function"
    },
    {
      "inputs": [
        {
          "internalType": "address",
          "name": "_owner",
          "type": "address"
        }
      ],
      "name": "nominateNewOwner",
      "outputs": [],
      "stateMutability": "nonpayable",
      "type": "function"
    },
    {
      "inputs": [],
      "name": "nominatedOwner",
      "outputs": [
        {
          "internalType": "address",
          "name": "",
          "type": "address"
        }
      ],
      "stateMutability": "view",
      "type": "function"
    },
    {
      "inputs": [],
      "name": "owner",
      "outputs": [
        {
          "internalType": "address",
          "name": "",
          "type": "address"
        }
      ],
      "stateMutability": "view",
      "type": "function"
    },
    {
      "inputs": [],
      "name": "periodFinish",
      "outputs": [
        {
          "internalType": "uint256",
          "name": "",
          "type": "uint256"
        }
      ],
      "stateMutability": "view",
      "type": "function"
    },
    {
      "inputs": [
        {
          "internalType": "address",
          "name": "tokenAddress",
          "type": "address"
        },
        {
          "internalType": "uint256",
          "name": "tokenAmount",
          "type": "uint256"
        }
      ],
      "name": "recoverERC20",
      "outputs": [],
      "stateMutability": "nonpayable",
      "type": "function"
    },
    {
      "inputs": [
        {
          "internalType": "address",
          "name": "migrator_address",
          "type": "address"
        }
      ],
      "name": "removeMigrator",
      "outputs": [],
      "stateMutability": "nonpayable",
      "type": "function"
    },
    {
      "inputs": [],
      "name": "renewIfApplicable",
      "outputs": [],
      "stateMutability": "nonpayable",
      "type": "function"
    },
    {
      "inputs": [],
      "name": "rewardPerToken",
      "outputs": [
        {
          "internalType": "uint256",
          "name": "",
          "type": "uint256"
        },
        {
          "internalType": "uint256",
          "name": "",
          "type": "uint256"
        }
      ],
      "stateMutability": "view",
      "type": "function"
    },
    {
      "inputs": [],
      "name": "rewardPerTokenStored0",
      "outputs": [
        {
          "internalType": "uint256",
          "name": "",
          "type": "uint256"
        }
      ],
      "stateMutability": "view",
      "type": "function"
    },
    {
      "inputs": [],
      "name": "rewardPerTokenStored1",
      "outputs": [
        {
          "internalType": "uint256",
          "name": "",
          "type": "uint256"
        }
      ],
      "stateMutability": "view",
      "type": "function"
    },
    {
      "inputs": [],
      "name": "rewardRate0",
      "outputs": [
        {
          "internalType": "uint256",
          "name": "",
          "type": "uint256"
        }
      ],
      "stateMutability": "view",
      "type": "function"
    },
    {
      "inputs": [],
      "name": "rewardRate1",
      "outputs": [
        {
          "internalType": "uint256",
          "name": "",
          "type": "uint256"
        }
      ],
      "stateMutability": "view",
      "type": "function"
    },
    {
      "inputs": [
        {
          "internalType": "address",
          "name": "",
          "type": "address"
        }
      ],
      "name": "rewards0",
      "outputs": [
        {
          "internalType": "uint256",
          "name": "",
          "type": "uint256"
        }
      ],
      "stateMutability": "view",
      "type": "function"
    },
    {
      "inputs": [
        {
          "internalType": "address",
          "name": "",
          "type": "address"
        }
      ],
      "name": "rewards1",
      "outputs": [
        {
          "internalType": "uint256",
          "name": "",
          "type": "uint256"
        }
      ],
      "stateMutability": "view",
      "type": "function"
    },
    {
      "inputs": [],
      "name": "rewardsCollectionPaused",
      "outputs": [
        {
          "internalType": "bool",
          "name": "",
          "type": "bool"
        }
      ],
      "stateMutability": "view",
      "type": "function"
    },
    {
      "inputs": [],
      "name": "rewardsDuration",
      "outputs": [
        {
          "internalType": "uint256",
          "name": "",
          "type": "uint256"
        }
      ],
      "stateMutability": "view",
      "type": "function"
    },
    {
      "inputs": [
        {
          "internalType": "uint256",
          "name": "_lock_time_for_max_multiplier",
          "type": "uint256"
        },
        {
          "internalType": "uint256",
          "name": "_lock_time_min",
          "type": "uint256"
        }
      ],
      "name": "setLockedStakeTimeForMinAndMaxMultiplier",
      "outputs": [],
      "stateMutability": "nonpayable",
      "type": "function"
    },
    {
      "inputs": [
        {
          "internalType": "uint256",
          "name": "_lock_max_multiplier",
          "type": "uint256"
        },
        {
          "internalType": "uint256",
          "name": "_vefxs_max_multiplier",
          "type": "uint256"
        },
        {
          "internalType": "uint256",
          "name": "_vefxs_per_frax_for_max_boost",
          "type": "uint256"
        }
      ],
      "name": "setMultipliers",
      "outputs": [],
      "stateMutability": "nonpayable",
      "type": "function"
    },
    {
      "inputs": [
        {
          "internalType": "uint256",
          "name": "_new_rate0",
          "type": "uint256"
        },
        {
          "internalType": "uint256",
          "name": "_new_rate1",
          "type": "uint256"
        },
        {
          "internalType": "bool",
          "name": "sync_too",
          "type": "bool"
        }
      ],
      "name": "setRewardRates",
      "outputs": [],
      "stateMutability": "nonpayable",
      "type": "function"
    },
    {
      "inputs": [
        {
          "internalType": "uint256",
          "name": "_rewardsDuration",
          "type": "uint256"
        }
      ],
      "name": "setRewardsDuration",
      "outputs": [],
      "stateMutability": "nonpayable",
      "type": "function"
    },
    {
      "inputs": [
        {
          "internalType": "address",
          "name": "_new_timelock",
          "type": "address"
        }
      ],
      "name": "setTimelock",
      "outputs": [],
      "stateMutability": "nonpayable",
      "type": "function"
    },
    {
      "inputs": [
        {
          "internalType": "uint256",
          "name": "liquidity",
          "type": "uint256"
        },
        {
          "internalType": "uint256",
          "name": "secs",
          "type": "uint256"
        }
      ],
      "name": "stakeLocked",
      "outputs": [],
      "stateMutability": "nonpayable",
      "type": "function"
    },
    {
      "inputs": [
        {
          "internalType": "address",
          "name": "migrator_address",
          "type": "address"
        }
      ],
      "name": "stakerAllowMigrator",
      "outputs": [],
      "stateMutability": "nonpayable",
      "type": "function"
    },
    {
      "inputs": [
        {
          "internalType": "address",
          "name": "migrator_address",
          "type": "address"
        }
      ],
      "name": "stakerDisallowMigrator",
      "outputs": [],
      "stateMutability": "nonpayable",
      "type": "function"
    },
    {
      "inputs": [
        {
          "internalType": "address",
          "name": "",
          "type": "address"
        },
        {
          "internalType": "address",
          "name": "",
          "type": "address"
        }
      ],
      "name": "staker_allowed_migrators",
      "outputs": [
        {
          "internalType": "bool",
          "name": "",
          "type": "bool"
        }
      ],
      "stateMutability": "view",
      "type": "function"
    },
    {
      "inputs": [],
      "name": "stakesUnlocked",
      "outputs": [
        {
          "internalType": "bool",
          "name": "",
          "type": "bool"
        }
      ],
      "stateMutability": "view",
      "type": "function"
    },
    {
      "inputs": [],
      "name": "stakingPaused",
      "outputs": [
        {
          "internalType": "bool",
          "name": "",
          "type": "bool"
        }
      ],
      "stateMutability": "view",
      "type": "function"
    },
    {
      "inputs": [],
      "name": "sync",
      "outputs": [],
      "stateMutability": "nonpayable",
      "type": "function"
    },
    {
      "inputs": [],
      "name": "timelock_address",
      "outputs": [
        {
          "internalType": "address",
          "name": "",
          "type": "address"
        }
      ],
      "stateMutability": "view",
      "type": "function"
    },
    {
      "inputs": [],
      "name": "toggleMigrations",
      "outputs": [],
      "stateMutability": "nonpayable",
      "type": "function"
    },
    {
      "inputs": [],
      "name": "toggleRewardsCollection",
      "outputs": [],
      "stateMutability": "nonpayable",
      "type": "function"
    },
    {
      "inputs": [],
      "name": "toggleStaking",
      "outputs": [],
      "stateMutability": "nonpayable",
      "type": "function"
    },
    {
      "inputs": [],
      "name": "toggleToken1Rewards",
      "outputs": [],
      "stateMutability": "nonpayable",
      "type": "function"
    },
    {
      "inputs": [],
      "name": "toggleWithdrawals",
      "outputs": [],
      "stateMutability": "nonpayable",
      "type": "function"
    },
    {
      "inputs": [],
      "name": "token1_rewards_on",
      "outputs": [
        {
          "internalType": "bool",
          "name": "",
          "type": "bool"
        }
      ],
      "stateMutability": "view",
      "type": "function"
    },
    {
      "inputs": [],
      "name": "totalCombinedWeight",
      "outputs": [
        {
          "internalType": "uint256",
          "name": "",
          "type": "uint256"
        }
      ],
      "stateMutability": "view",
      "type": "function"
    },
    {
      "inputs": [],
      "name": "totalLiquidityLocked",
      "outputs": [
        {
          "internalType": "uint256",
          "name": "",
          "type": "uint256"
        }
      ],
      "stateMutability": "view",
      "type": "function"
    },
    {
      "inputs": [],
      "name": "unlockStakes",
      "outputs": [],
      "stateMutability": "nonpayable",
      "type": "function"
    },
    {
      "inputs": [
        {
          "internalType": "address",
          "name": "",
          "type": "address"
        }
      ],
      "name": "userRewardPerTokenPaid0",
      "outputs": [
        {
          "internalType": "uint256",
          "name": "",
          "type": "uint256"
        }
      ],
      "stateMutability": "view",
      "type": "function"
    },
    {
      "inputs": [
        {
          "internalType": "address",
          "name": "",
          "type": "address"
        }
      ],
      "name": "userRewardPerTokenPaid1",
      "outputs": [
        {
          "internalType": "uint256",
          "name": "",
          "type": "uint256"
        }
      ],
      "stateMutability": "view",
      "type": "function"
    },
    {
      "inputs": [
        {
          "internalType": "address",
          "name": "account",
          "type": "address"
        }
      ],
      "name": "userStakedFrax",
      "outputs": [
        {
          "internalType": "uint256",
          "name": "",
          "type": "uint256"
        }
      ],
      "stateMutability": "view",
      "type": "function"
    },
    {
      "inputs": [
        {
          "internalType": "address",
          "name": "",
          "type": "address"
        }
      ],
      "name": "valid_migrators",
      "outputs": [
        {
          "internalType": "bool",
          "name": "",
          "type": "bool"
        }
      ],
      "stateMutability": "view",
      "type": "function"
    },
    {
      "inputs": [
        {
          "internalType": "uint256",
          "name": "",
          "type": "uint256"
        }
      ],
      "name": "valid_migrators_array",
      "outputs": [
        {
          "internalType": "address",
          "name": "",
          "type": "address"
        }
      ],
      "stateMutability": "view",
      "type": "function"
    },
    {
      "inputs": [
        {
          "internalType": "address",
          "name": "account",
          "type": "address"
        }
      ],
      "name": "veFXSMultiplier",
      "outputs": [
        {
          "internalType": "uint256",
          "name": "",
          "type": "uint256"
        }
      ],
      "stateMutability": "view",
      "type": "function"
    },
    {
      "inputs": [],
      "name": "vefxs_max_multiplier",
      "outputs": [
        {
          "internalType": "uint256",
          "name": "",
          "type": "uint256"
        }
      ],
      "stateMutability": "view",
      "type": "function"
    },
    {
      "inputs": [],
      "name": "vefxs_per_frax_for_max_boost",
      "outputs": [
        {
          "internalType": "uint256",
          "name": "",
          "type": "uint256"
        }
      ],
      "stateMutability": "view",
      "type": "function"
    },
    {
      "inputs": [
        {
          "internalType": "bytes32",
          "name": "kek_id",
          "type": "bytes32"
        }
      ],
      "name": "withdrawLocked",
      "outputs": [],
      "stateMutability": "nonpayable",
      "type": "function"
    },
    {
      "inputs": [],
      "name": "withdrawalsPaused",
      "outputs": [
        {
          "internalType": "bool",
          "name": "",
          "type": "bool"
        }
      ],
      "stateMutability": "view",
      "type": "function"
    }
  ],
  "bytecode": "0x60806040526729a2241af62c0000600a556305a39a80600b5562015180600c55673782dace9d900000600d55671bc16d674ec80000600e5562093a806012556000601381905560148190556019819055601a556023805465ffffffffffff191660011790553480156200007157600080fd5b506040516200546e3803806200546e833981016040819052620000949162000396565b866001600160a01b038116620000f15760405162461bcd60e51b815260206004820152601960248201527f4f776e657220616464726573732063616e6e6f7420626520300000000000000060448201526064015b60405180910390fd5b600080546001600160a01b0319166001600160a01b03831690811782556040805192835260208301919091527fb532073b38c83145e3e5135377a08bf9aab55bc0fd7c1179cd4fb995d2a5159c910160405180910390a1506001600255600480546001600160a01b03199081166001600160a01b03898116919091179092556005805482168884161790556006805482168784161790556003805482168484161790554260095560078054909116918416919091179055620001cd68c5ddeced789fc800006301e13380620002cf602090811b620033b117901c565b601055620001f56813c9647e25a99400006301e13380620002cf602090811b620033b117901c565b60115560065460408051630dfe168160e01b815290516000926001600160a01b031691630dfe1681916004808301926020929190829003018186803b1580156200023e57600080fd5b505afa15801562000253573d6000803e3d6000fd5b505050506040513d601f19601f8201168201806040525081019062000279919062000379565b9050836001600160a01b0316816001600160a01b03161415620002a957601d805460ff19166001179055620002b4565b601d805460ff191690555b50506023805462ffff001916905550620004a1945050505050565b60006200031983836040518060400160405280601a81526020017f536166654d6174683a206469766973696f6e206279207a65726f0000000000008152506200032060201b60201c565b9392505050565b60008183620003445760405162461bcd60e51b8152600401620000e891906200042a565b50600062000353848662000480565b95945050505050565b80516001600160a01b03811681146200037457600080fd5b919050565b6000602082840312156200038b578081fd5b62000319826200035c565b600080600080600080600060e0888a031215620003b1578283fd5b620003bc886200035c565b9650620003cc602089016200035c565b9550620003dc604089016200035c565b9450620003ec606089016200035c565b9350620003fc608089016200035c565b92506200040c60a089016200035c565b91506200041c60c089016200035c565b905092959891949750929550565b6000602080835283518082850152825b8181101562000458578581018301518582016040015282016200043a565b818111156200046a5783604083870101525b50601f01601f1916929092016040019392505050565b6000826200049c57634e487b7160e01b81526012600452602481fd5b500490565b614fbd80620004b16000396000f3fe608060405234801561001057600080fd5b50600436106104a75760003560e01c8063941d9f651161026b578063d9f96e8d11610150578063ed48f6f7116100c8578063f2a8d34911610097578063fe271f5f1161007c578063fe271f5f14610a03578063fee2eae614610a23578063fff6cae914610a2b57600080fd5b8063f2a8d349146109e8578063fce6fd13146109f157600080fd5b8063ed48f6f7146109a1578063ee89e02f146109a9578063f12f1447146109cc578063f288baf6146109df57600080fd5b8063e01f62bf1161011f578063e9f2838e11610104578063e9f2838e14610971578063eb3c209e14610985578063ebe2b12b1461099857600080fd5b8063e01f62bf14610961578063e1ba95d21461096957600080fd5b8063d9f96e8d146108ef578063dbf0b3fe14610925578063dc6663c71461092e578063de9853ad1461094e57600080fd5b8063bbb781cc116101e3578063cc1a378f116101b2578063cdc82e8011610197578063cdc82e80146108cb578063d239f003146108d4578063d42fc9b4146108dc57600080fd5b8063cc1a378f146108b0578063cd3daf9d146108c357600080fd5b8063bbb781cc1461085e578063bdacb30314610874578063c126d1aa14610887578063c8f33c91146108a757600080fd5b8063a1ec508a1161023a578063a8d598a41161021f578063a8d598a414610839578063af00f4e214610842578063b94c4dcb1461085557600080fd5b8063a1ec508a14610828578063a2217bc51461083157600080fd5b8063941d9f65146107c15780639637927f146107d45780639b8c15a8146107e75780639c5303eb1461081557600080fd5b80634fd2b536116103915780636ce46bc3116103095780637b31c19a116102d85780638980f11f116102bd5780638980f11f146107605780638bad86a7146107735780638da5cb5b146107a157600080fd5b80637b31c19a1461075057806380faa57d1461075857600080fd5b80636ce46bc3146107195780636e27cef91461072c578063721eb9c51461073557806379ba50971461074857600080fd5b80635bfd92581161036057806364f2c0601161034557806364f2c060146106de578063666b9cb8146106e65780636a231b03146106f957600080fd5b80635bfd9258146106c957806364350467146106d157600080fd5b80634fd2b5361461064b57806351e3fc171461065e57806352732bc81461067157806353a47bb71461068457600080fd5b806328ef934e11610424578063323331ca116103f3578063386a9525116103d8578063386a9525146106325780633b8105b31461063b5780633d18b9121461064357600080fd5b8063323331ca146105e757806336f89af2146105fc57600080fd5b806328ef934e146105855780632c0c2a0a146105985780632ca1a895146105ab57806331ca208c146105b457600080fd5b8063169d27ef1161047b5780631b3e870a116104605780631b3e870a1461054a5780631c1f78eb1461055d5780631e090f011461056557600080fd5b8063169d27ef1461052f57806317b18c891461053757600080fd5b80628cc262146104ac5780630d7bac4f146104d9578063144e8034146104fa5780631627540c1461051a575b600080fd5b6104bf6104ba366004614ba5565b610a33565b604080519283526020830191909152015b60405180910390f35b6104ec6104e7366004614c6e565b610b94565b6040519081526020016104d0565b6104ec610508366004614ba5565b60156020526000908152604090205481565b61052d610528366004614ba5565b610bed565b005b61052d610d13565b61052d610545366004614cec565b610e1d565b61052d610558366004614ba5565b610e2e565b6104bf6110f4565b610578610573366004614ba5565b611125565b6040516104d09190614d81565b61052d610593366004614c1a565b6111d9565b6104ec6105a6366004614ba5565b61131f565b6104ec60105481565b6105d76105c2366004614ba5565b60226020526000908152604090205460ff1681565b60405190151581526020016104d0565b6023546105d790640100000000900460ff1681565b6104ec61060a366004614ba5565b73ffffffffffffffffffffffffffffffffffffffff166000908152601c602052604090205490565b6104ec60125481565b61052d611439565b6104bf611540565b6104ec610659366004614ba5565b6115ca565b61052d61066c366004614c6e565b6115e7565b61052d61067f366004614ba5565b6115f5565b6001546106a49073ffffffffffffffffffffffffffffffffffffffff1681565b60405173ffffffffffffffffffffffffffffffffffffffff90911681526020016104d0565b6104ec6116ed565b6023546105d79060ff1681565b601a546104ec565b6106a46106f4366004614c6e565b611884565b6104ec610707366004614ba5565b60186020526000908152604090205481565b61052d610727366004614d3a565b6118bb565b6104ec600c5481565b6105d7610743366004614bbf565b611b64565b61052d611be1565b61052d611d2c565b6104ec611e32565b61052d61076e366004614bf1565b611e45565b610786610781366004614ba5565b6120c9565b604080519384526020840192909252908201526060016104d0565b6000546106a49073ffffffffffffffffffffffffffffffffffffffff1681565b61052d6107cf366004614ba5565b61228b565b6023546105d79062010000900460ff1681565b6105d76107f5366004614bbf565b602160209081526000928352604080842090915290825290205460ff1681565b61052d610823366004614ba5565b6123a8565b6104ec60115481565b61052d6125a9565b6104ec60145481565b61052d610850366004614cec565b6126ac565b6104ec600b5481565b6023546105d79065010000000000900460ff1681565b61052d610882366004614ba5565b612904565b6104ec610895366004614ba5565b60176020526000908152604090205481565b6104ec60095481565b61052d6108be366004614c6e565b612a14565b6104bf612bd4565b6104ec600a5481565b61052d612c63565b6104ec6108ea366004614ba5565b612d68565b6104ec6108fd366004614ba5565b73ffffffffffffffffffffffffffffffffffffffff166000908152601b602052604090205490565b6104ec60135481565b6007546106a49073ffffffffffffffffffffffffffffffffffffffff1681565b61052d61095c366004614d0d565b612da8565b6019546104ec565b61052d612e8e565b6023546105d7906301000000900460ff1681565b61052d610993366004614bf1565b612f92565b6104ec60085481565b61052d6130d0565b6105d76109b7366004614ba5565b601f6020526000908152604090205460ff1681565b61052d6109da366004614ba5565b6131dc565b6104ec600e5481565b6104ec600d5481565b6023546105d790610100900460ff1681565b6104ec610a11366004614ba5565b60166020526000908152604090205481565b61052d613362565b61052d613376565b600080600080610a41612bd4565b73ffffffffffffffffffffffffffffffffffffffff87166000908152601c60205260409020549193509150610a7d575060009485945092505050565b73ffffffffffffffffffffffffffffffffffffffff8516600090815260176020908152604080832054601590925290912054610b099190610b0390670de0b6b3a764000090610afd90610ad19088906133fa565b73ffffffffffffffffffffffffffffffffffffffff8b166000908152601c60205260409020549061343c565b906133b1565b906134f1565b73ffffffffffffffffffffffffffffffffffffffff8616600090815260186020908152604080832054601690925290912054610b899190610b0390670de0b6b3a764000090610afd90610b5d9088906133fa565b73ffffffffffffffffffffffffffffffffffffffff8c166000908152601c60205260409020549061343c565b935093505050915091565b600080610bd6610bc7600b54610afd610bc0670de0b6b3a7640000600a546133fa90919063ffffffff16565b879061343c565b670de0b6b3a7640000906134f1565b9050600a54811115610be75750600a545b92915050565b60005473ffffffffffffffffffffffffffffffffffffffff163314610c99576040517f08c379a000000000000000000000000000000000000000000000000000000000815260206004820152602f60248201527f4f6e6c792074686520636f6e7472616374206f776e6572206d6179207065726660448201527f6f726d207468697320616374696f6e000000000000000000000000000000000060648201526084015b60405180910390fd5b600180547fffffffffffffffffffffffff00000000000000000000000000000000000000001673ffffffffffffffffffffffffffffffffffffffff83169081179091556040519081527f906a1c6bd7e3091ea86693dd029a831c19049ce77f1dce2ce0bab1cacbabce22906020015b60405180910390a150565b60005473ffffffffffffffffffffffffffffffffffffffff16331480610d50575060075473ffffffffffffffffffffffffffffffffffffffff1633145b610ddc576040517f08c379a000000000000000000000000000000000000000000000000000000000815260206004820152603060248201527f596f7520617265206e6f7420746865206f776e6572206f722074686520676f7660448201527f65726e616e63652074696d656c6f636b000000000000000000000000000000006064820152608401610c90565b426009819055601254610def91906134f1565b6008556040517fb5cfe3ccd03847076864f081609024cbc2eb98c38da4d8b2cebe9479a9a1ef3790600090a1565b610e2a333384844261356a565b5050565b60005473ffffffffffffffffffffffffffffffffffffffff16331480610e6b575060075473ffffffffffffffffffffffffffffffffffffffff1633145b610ef7576040517f08c379a000000000000000000000000000000000000000000000000000000000815260206004820152603060248201527f596f7520617265206e6f7420746865206f776e6572206f722074686520676f7660448201527f65726e616e63652074696d656c6f636b000000000000000000000000000000006064820152608401610c90565b73ffffffffffffffffffffffffffffffffffffffff81166000908152601f602052604090205460ff161515600114610f8b576040517f08c379a000000000000000000000000000000000000000000000000000000000815260206004820152601d60248201527f6164647265737320646f65736e277420657869737420616c72656164790000006044820152606401610c90565b73ffffffffffffffffffffffffffffffffffffffff81166000908152601f6020526040812080547fffffffffffffffffffffffffffffffffffffffffffffffffffffffffffffff001690555b602054811015610e2a578173ffffffffffffffffffffffffffffffffffffffff1660208281548110611032577f4e487b7100000000000000000000000000000000000000000000000000000000600052603260045260246000fd5b60009182526020909120015473ffffffffffffffffffffffffffffffffffffffff1614156110e257600060208281548110611096577f4e487b7100000000000000000000000000000000000000000000000000000000600052603260045260246000fd5b9060005260206000200160006101000a81548173ffffffffffffffffffffffffffffffffffffffff021916908373ffffffffffffffffffffffffffffffffffffffff1602179055505050565b806110ec81614f11565b915050610fd7565b60008061110e60125460105461343c90919063ffffffff16565b60125460115461111d9161343c565b915091509091565b73ffffffffffffffffffffffffffffffffffffffff81166000908152601e60209081526040808320805482518185028101850190935280835260609492939192909184015b828210156111ce57838290600052602060002090600502016040518060a0016040529081600082015481526020016001820154815260200160028201548152602001600382015481526020016004820154815250508152602001906001019061116a565b505050509050919050565b60235460ff610100909104161515600114611250576040517f08c379a000000000000000000000000000000000000000000000000000000000815260206004820152601c60248201527f436f6e7472616374206973206e6f7420696e206d6967726174696f6e000000006044820152606401610c90565b61125a8433611b64565b61130c576040517f08c379a000000000000000000000000000000000000000000000000000000000815260206004820152604c60248201527f6d73672e73656e6465722069732065697468657220616e20696e76616c69642060448201527f6d69677261746f72206f7220746865207374616b657220686173206e6f74206160648201527f7070726f766564207468656d0000000000000000000000000000000000000000608482015260a401610c90565b611319843385858561356a565b50505050565b60008061132b836115ca565b90508015611430576003546040517f70a0823100000000000000000000000000000000000000000000000000000000815273ffffffffffffffffffffffffffffffffffffffff85811660048301526000926113f2928592610afd92670de0b6b3a7640000929116906370a082319060240160206040518083038186803b1580156113b457600080fd5b505afa1580156113c8573d6000803e3d6000fd5b505050506040513d601f19601f820116820180604052508101906113ec9190614cd4565b9061343c565b90506000611417670de0b6b3a7640000610afd600e548561343c90919063ffffffff16565b9050600e548111156114285750600e545b949350505050565b50600092915050565b60005473ffffffffffffffffffffffffffffffffffffffff16331480611476575060075473ffffffffffffffffffffffffffffffffffffffff1633145b611502576040517f08c379a000000000000000000000000000000000000000000000000000000000815260206004820152603060248201527f596f7520617265206e6f7420746865206f776e6572206f722074686520676f7660448201527f65726e616e63652074696d656c6f636b000000000000000000000000000000006064820152608401610c90565b602380547fffffffffffffffffffffffffffffffffffffffffffffffffffff00ffffffffff8116650100000000009182900460ff1615909102179055565b6000806002805414156115af576040517f08c379a000000000000000000000000000000000000000000000000000000000815260206004820152601f60248201527f5265656e7472616e637947756172643a207265656e7472616e742063616c6c006044820152606401610c90565b600280556115bd3380613ad9565b9150915060016002559091565b6000610be7670de0b6b3a7640000610afd600d546113ec86612d68565b6115f2333383613def565b50565b33600090815260216020908152604080832073ffffffffffffffffffffffffffffffffffffffff8516845290915290205460ff161515600114611694576040517f08c379a000000000000000000000000000000000000000000000000000000000815260206004820152601d60248201527f4164647265737320646f65736e277420657869737420616c72656164790000006044820152606401610c90565b33600090815260216020908152604080832073ffffffffffffffffffffffffffffffffffffffff9490941683529290522080547fffffffffffffffffffffffffffffffffffffffffffffffffffffffffffffff00169055565b6000806000806000600660009054906101000a900473ffffffffffffffffffffffffffffffffffffffff1673ffffffffffffffffffffffffffffffffffffffff16630902f1ac6040518163ffffffff1660e01b815260040160606040518083038186803b15801561175d57600080fd5b505afa158015611771573d6000803e3d6000fd5b505050506040513d601f19601f820116820180604052508101906117959190614c86565b50601d546dffffffffffffffffffffffffffff92831694509116915060ff16156117c1578192506117c5565b8092505b600654604080517f18160ddd000000000000000000000000000000000000000000000000000000008152905161187b9273ffffffffffffffffffffffffffffffffffffffff16916318160ddd916004808301926020929190829003018186803b15801561183157600080fd5b505afa158015611845573d6000803e3d6000fd5b505050506040513d601f19601f820116820180604052508101906118699190614cd4565b610afd85670de0b6b3a764000061343c565b95945050505050565b6020818154811061189457600080fd5b60009182526020909120015473ffffffffffffffffffffffffffffffffffffffff16905081565b60005473ffffffffffffffffffffffffffffffffffffffff163314806118f8575060075473ffffffffffffffffffffffffffffffffffffffff1633145b611984576040517f08c379a000000000000000000000000000000000000000000000000000000000815260206004820152603060248201527f596f7520617265206e6f7420746865206f776e6572206f722074686520676f7660448201527f65726e616e63652074696d656c6f636b000000000000000000000000000000006064820152608401610c90565b620f4240831015611a17576040517f08c379a000000000000000000000000000000000000000000000000000000000815260206004820152602f60248201527f4d756c7469706c696572206d7573742062652067726561746572207468616e2060448201527f6f7220657175616c20746f2031653600000000000000000000000000000000006064820152608401610c90565b60008111611aa7576040517f08c379a000000000000000000000000000000000000000000000000000000000815260206004820152602560248201527f7665465853207065722046524158206d7573742062652067726561746572207460448201527f68616e20300000000000000000000000000000000000000000000000000000006064820152608401610c90565b600a839055600e829055600d8190556040518281527fc9d56ccdd6b954d8d74700db074cc667054f8e33c1b8d23e97021d4c588a87619060200160405180910390a17fa1676084a9eea08c6f205b60799323b364a1bd8e10aba89f0fbd94cfbf68b5dd600a54604051611b1c91815260200190565b60405180910390a17f58c7ececaeb4704a0039e0d22c1b618367f7a7b9a4e191ab9baed34898f63f2e600d54604051611b5791815260200190565b60405180910390a1505050565b73ffffffffffffffffffffffffffffffffffffffff81166000908152601f602052604081205460ff16611b9957506000610be7565b73ffffffffffffffffffffffffffffffffffffffff80841660009081526021602090815260408083209386168352929052205460ff1615156001141561143057506001610be7565b60015473ffffffffffffffffffffffffffffffffffffffff163314611c88576040517f08c379a000000000000000000000000000000000000000000000000000000000815260206004820152603560248201527f596f75206d757374206265206e6f6d696e61746564206265666f726520796f7560448201527f2063616e20616363657074206f776e65727368697000000000000000000000006064820152608401610c90565b6000546001546040805173ffffffffffffffffffffffffffffffffffffffff93841681529290911660208301527fb532073b38c83145e3e5135377a08bf9aab55bc0fd7c1179cd4fb995d2a5159c910160405180910390a160018054600080547fffffffffffffffffffffffff000000000000000000000000000000000000000090811673ffffffffffffffffffffffffffffffffffffffff841617909155169055565b60005473ffffffffffffffffffffffffffffffffffffffff16331480611d69575060075473ffffffffffffffffffffffffffffffffffffffff1633145b611df5576040517f08c379a000000000000000000000000000000000000000000000000000000000815260206004820152603060248201527f596f7520617265206e6f7420746865206f776e6572206f722074686520676f7660448201527f65726e616e63652074696d656c6f636b000000000000000000000000000000006064820152608401610c90565b602380547fffffffffffffffffffffffffffffffffffffffffffffffffffffff00ffffffff81166401000000009182900460ff1615909102179055565b6000611e404260085461439a565b905090565b60005473ffffffffffffffffffffffffffffffffffffffff16331480611e82575060075473ffffffffffffffffffffffffffffffffffffffff1633145b611f0e576040517f08c379a000000000000000000000000000000000000000000000000000000000815260206004820152603060248201527f596f7520617265206e6f7420746865206f776e6572206f722074686520676f7660448201527f65726e616e63652074696d656c6f636b000000000000000000000000000000006064820152608401610c90565b602354610100900460ff16611fc85760065473ffffffffffffffffffffffffffffffffffffffff83811691161415611fc8576040517f08c379a000000000000000000000000000000000000000000000000000000000815260206004820152603560248201527f43616e6e6f74207769746864726177207374616b696e6720746f6b656e73207560448201527f6e6c657373206d6967726174696f6e206973206f6e00000000000000000000006064820152608401610c90565b6000546040517fa9059cbb00000000000000000000000000000000000000000000000000000000815273ffffffffffffffffffffffffffffffffffffffff9182166004820152602481018390529083169063a9059cbb90604401602060405180830381600087803b15801561203c57600080fd5b505af1158015612050573d6000803e3d6000fd5b505050506040513d601f19601f820116820180604052508101906120749190614c52565b506040805173ffffffffffffffffffffffffffffffffffffffff84168152602081018390527f8c1256b8896378cd5044f80c202f9772b9d77dc85c8a6eb51967210b09bfaa2891015b60405180910390a15050565b73ffffffffffffffffffffffffffffffffffffffff81166000908152601c602052604081205490806120fa8461131f565b73ffffffffffffffffffffffffffffffffffffffff85166000908152600f60205260408120549193509061213690600290610afd9086906134f1565b90506000915060005b73ffffffffffffffffffffffffffffffffffffffff86166000908152601e60205260409020548110156122825773ffffffffffffffffffffffffffffffffffffffff86166000908152601e602052604081208054839081106121ca577f4e487b7100000000000000000000000000000000000000000000000000000000600052603260045260246000fd5b90600052602060002090600502016040518060a0016040529081600082015481526020016001820154815260200160028201548152602001600382015481526020016004820154815250509050600081608001519050428260600151116122365750670de0b6b3a76400005b6040820151600061225d670de0b6b3a7640000610afd612256868a6134f1565b859061343c565b905061226987826134f1565b965050505050808061227a90614f11565b91505061213f565b50509193909250565b60005473ffffffffffffffffffffffffffffffffffffffff163314806122c8575060075473ffffffffffffffffffffffffffffffffffffffff1633145b612354576040517f08c379a000000000000000000000000000000000000000000000000000000000815260206004820152603060248201527f596f7520617265206e6f7420746865206f776e6572206f722074686520676f7660448201527f65726e616e63652074696d656c6f636b000000000000000000000000000000006064820152608401610c90565b73ffffffffffffffffffffffffffffffffffffffff16600090815260226020526040902080547fffffffffffffffffffffffffffffffffffffffffffffffffffffffffffffff00811660ff90911615179055565b60005473ffffffffffffffffffffffffffffffffffffffff163314806123e5575060075473ffffffffffffffffffffffffffffffffffffffff1633145b612471576040517f08c379a000000000000000000000000000000000000000000000000000000000815260206004820152603060248201527f596f7520617265206e6f7420746865206f776e6572206f722074686520676f7660448201527f65726e616e63652074696d656c6f636b000000000000000000000000000000006064820152608401610c90565b73ffffffffffffffffffffffffffffffffffffffff81166000908152601f602052604090205460ff1615612501576040517f08c379a000000000000000000000000000000000000000000000000000000000815260206004820152601660248201527f6164647265737320616c726561647920657869737473000000000000000000006044820152606401610c90565b73ffffffffffffffffffffffffffffffffffffffff166000818152601f60209081526040822080547fffffffffffffffffffffffffffffffffffffffffffffffffffffffffffffff001660019081179091558154908101825591527fc97bfaf2f8ee708c303a06d134f5ecd8389ae0432af62dc132a24118292866bb0180547fffffffffffffffffffffffff0000000000000000000000000000000000000000169091179055565b60005473ffffffffffffffffffffffffffffffffffffffff163314806125e6575060075473ffffffffffffffffffffffffffffffffffffffff1633145b612672576040517f08c379a000000000000000000000000000000000000000000000000000000000815260206004820152603060248201527f596f7520617265206e6f7420746865206f776e6572206f722074686520676f7660448201527f65726e616e63652074696d656c6f636b000000000000000000000000000000006064820152608401610c90565b602380547fffffffffffffffffffffffffffffffffffffffffffffffffffffffffffff00ff81166101009182900460ff1615909102179055565b60005473ffffffffffffffffffffffffffffffffffffffff163314806126e9575060075473ffffffffffffffffffffffffffffffffffffffff1633145b612775576040517f08c379a000000000000000000000000000000000000000000000000000000000815260206004820152603060248201527f596f7520617265206e6f7420746865206f776e6572206f722074686520676f7660448201527f65726e616e63652074696d656c6f636b000000000000000000000000000000006064820152608401610c90565b6001821015612806576040517f08c379a000000000000000000000000000000000000000000000000000000000815260206004820152603660248201527f4d756c7469706c696572204d61782054696d65206d757374206265206772656160448201527f746572207468616e206f7220657175616c20746f2031000000000000000000006064820152608401610c90565b6001811015612897576040517f08c379a000000000000000000000000000000000000000000000000000000000815260206004820152603660248201527f4d756c7469706c696572204d696e2054696d65206d757374206265206772656160448201527f746572207468616e206f7220657175616c20746f2031000000000000000000006064820152608401610c90565b600b829055600c8190556040518281527f0e3e3fae480c6f92291358a02bc83f04ee1971d5488596bffda7929d57ab470f9060200160405180910390a16040518181527f0534d208d75dfdbfacc1204745dd9b3c4c37e8cfc05eb5e8e3ae538aedb0a9fa906020016120bd565b60005473ffffffffffffffffffffffffffffffffffffffff16331480612941575060075473ffffffffffffffffffffffffffffffffffffffff1633145b6129cd576040517f08c379a000000000000000000000000000000000000000000000000000000000815260206004820152603060248201527f596f7520617265206e6f7420746865206f776e6572206f722074686520676f7660448201527f65726e616e63652074696d656c6f636b000000000000000000000000000000006064820152608401610c90565b600780547fffffffffffffffffffffffff00000000000000000000000000000000000000001673ffffffffffffffffffffffffffffffffffffffff92909216919091179055565b60005473ffffffffffffffffffffffffffffffffffffffff16331480612a51575060075473ffffffffffffffffffffffffffffffffffffffff1633145b612add576040517f08c379a000000000000000000000000000000000000000000000000000000000815260206004820152603060248201527f596f7520617265206e6f7420746865206f776e6572206f722074686520676f7660448201527f65726e616e63652074696d656c6f636b000000000000000000000000000000006064820152608401610c90565b6008541580612aed575060085442115b612b9f576040517f08c379a000000000000000000000000000000000000000000000000000000000815260206004820152605860248201527f50726576696f7573207265776172647320706572696f64206d7573742062652060448201527f636f6d706c657465206265666f7265206368616e67696e67207468652064757260648201527f6174696f6e20666f7220746865206e657720706572696f640000000000000000608482015260a401610c90565b60128190556040518181527ffb46ca5a5e06d4540d6387b930a7c978bce0db5f449ec6b3f5d07c6e1d44f2d390602001610d08565b60008060195460001480612be85750601a54155b15612bf95750506013546014549091565b612c31612c28601a54610afd670de0b6b3a76400006113ec6010546113ec600954612c22611e32565b906133fa565b601354906134f1565b61111d612c5a601a54610afd670de0b6b3a76400006113ec6011546113ec600954612c22611e32565b601454906134f1565b60005473ffffffffffffffffffffffffffffffffffffffff16331480612ca0575060075473ffffffffffffffffffffffffffffffffffffffff1633145b612d2c576040517f08c379a000000000000000000000000000000000000000000000000000000000815260206004820152603060248201527f596f7520617265206e6f7420746865206f776e6572206f722074686520676f7660448201527f65726e616e63652074696d656c6f636b000000000000000000000000000000006064820152608401610c90565b602380547fffffffffffffffffffffffffffffffffffffffffffffffffffffffff00ffffff811663010000009182900460ff1615909102179055565b73ffffffffffffffffffffffffffffffffffffffff81166000908152601b6020526040812054610be790670de0b6b3a764000090610afd906113ec6116ed565b60005473ffffffffffffffffffffffffffffffffffffffff16331480612de5575060075473ffffffffffffffffffffffffffffffffffffffff1633145b612e71576040517f08c379a000000000000000000000000000000000000000000000000000000000815260206004820152603060248201527f596f7520617265206e6f7420746865206f776e6572206f722074686520676f7660448201527f65726e616e63652074696d656c6f636b000000000000000000000000000000006064820152608401610c90565b601083905560118290558015612e8957612e89613376565b505050565b60005473ffffffffffffffffffffffffffffffffffffffff16331480612ecb575060075473ffffffffffffffffffffffffffffffffffffffff1633145b612f57576040517f08c379a000000000000000000000000000000000000000000000000000000000815260206004820152603060248201527f596f7520617265206e6f7420746865206f776e6572206f722074686520676f7660448201527f65726e616e63652074696d656c6f636b000000000000000000000000000000006064820152608401610c90565b602380547fffffffffffffffffffffffffffffffffffffffffffffffffffffffffff00ffff8116620100009182900460ff1615909102179055565b60235460ff610100909104161515600114613009576040517f08c379a000000000000000000000000000000000000000000000000000000000815260206004820152601c60248201527f436f6e7472616374206973206e6f7420696e206d6967726174696f6e000000006044820152606401610c90565b6130138233611b64565b6130c5576040517f08c379a000000000000000000000000000000000000000000000000000000000815260206004820152604c60248201527f6d73672e73656e6465722069732065697468657220616e20696e76616c69642060448201527f6d69677261746f72206f7220746865207374616b657220686173206e6f74206160648201527f7070726f766564207468656d0000000000000000000000000000000000000000608482015260a401610c90565b610e2a823383613def565b60005473ffffffffffffffffffffffffffffffffffffffff1633148061310d575060075473ffffffffffffffffffffffffffffffffffffffff1633145b613199576040517f08c379a000000000000000000000000000000000000000000000000000000000815260206004820152603060248201527f596f7520617265206e6f7420746865206f776e6572206f722074686520676f7660448201527f65726e616e63652074696d656c6f636b000000000000000000000000000000006064820152608401610c90565b60235460ff16156131aa5760006011555b602380547fffffffffffffffffffffffffffffffffffffffffffffffffffffffffffffff00811660ff90911615179055565b33600090815260216020908152604080832073ffffffffffffffffffffffffffffffffffffffff8516845290915290205460ff1615613277576040517f08c379a000000000000000000000000000000000000000000000000000000000815260206004820152601660248201527f4164647265737320616c726561647920657869737473000000000000000000006044820152606401610c90565b73ffffffffffffffffffffffffffffffffffffffff81166000908152601f602052604090205460ff16613306576040517f08c379a000000000000000000000000000000000000000000000000000000000815260206004820152601860248201527f496e76616c6964206d69677261746f72206164647265737300000000000000006044820152606401610c90565b33600090815260216020908152604080832073ffffffffffffffffffffffffffffffffffffffff9490941683529290522080547fffffffffffffffffffffffffffffffffffffffffffffffffffffffffffffff00166001179055565b600854421115613374576133746143b0565b565b600854421115613388576133746143b0565b600080613393612bd4565b6013829055601481905590925090506133aa611e32565b6009555050565b60006133f383836040518060400160405280601a81526020017f536166654d6174683a206469766973696f6e206279207a65726f00000000000081525061478e565b9392505050565b60006133f383836040518060400160405280601e81526020017f536166654d6174683a207375627472616374696f6e206f766572666c6f7700008152506147d6565b60008261344b57506000610be7565b60006134578385614e91565b9050826134648583614e58565b146133f3576040517f08c379a000000000000000000000000000000000000000000000000000000000815260206004820152602160248201527f536166654d6174683a206d756c7469706c69636174696f6e206f766572666c6f60448201527f77000000000000000000000000000000000000000000000000000000000000006064820152608401610c90565b6000806134fe8385614e40565b9050838110156133f3576040517f08c379a000000000000000000000000000000000000000000000000000000000815260206004820152601b60248201527f536166654d6174683a206164646974696f6e206f766572666c6f7700000000006044820152606401610c90565b6002805414156135d6576040517f08c379a000000000000000000000000000000000000000000000000000000000815260206004820152601f60248201527f5265656e7472616e637947756172643a207265656e7472616e742063616c6c006044820152606401610c90565b600280558460016135e78282614821565b60235465010000000000900460ff1615801561360b5750602354610100900460ff16155b8061362a5750336000908152601f602052604090205460ff1615156001145b6136b6576040517f08c379a000000000000000000000000000000000000000000000000000000000815260206004820152602c60248201527f5374616b696e67206973207061757365642c206f72206d6967726174696f6e2060448201527f69732068617070656e696e6700000000000000000000000000000000000000006064820152608401610c90565b60008511613720576040517f08c379a000000000000000000000000000000000000000000000000000000000815260206004820152601960248201527f4d757374207374616b65206d6f7265207468616e207a65726f000000000000006044820152606401610c90565b73ffffffffffffffffffffffffffffffffffffffff871660009081526022602052604090205460ff16156137b0576040517f08c379a000000000000000000000000000000000000000000000000000000000815260206004820152601b60248201527f4164647265737320686173206265656e20677265796c697374656400000000006044820152606401610c90565b600c5484101561381c576040517f08c379a000000000000000000000000000000000000000000000000000000000815260206004820152601a60248201527f4d696e696d756d207374616b652074696d65206e6f74206d65740000000000006044820152606401610c90565b600b548411156138ae576040517f08c379a000000000000000000000000000000000000000000000000000000000815260206004820152602360248201527f596f752061726520747279696e6720746f206c6f636b20666f7220746f6f206c60448201527f6f6e6700000000000000000000000000000000000000000000000000000000006064820152608401610c90565b60006138b985610b94565b6040517fffffffffffffffffffffffffffffffffffffffff00000000000000000000000060608b901b1660208201526034810186905260548101889052909150600090607401604080517fffffffffffffffffffffffffffffffffffffffffffffffffffffffffffffffe0818403018152828252805160209182012073ffffffffffffffffffffffffffffffffffffffff8d166000908152601e835283902060a0850184528185529184018990529183018a9052909250906060810161397f888a6134f1565b81526020908101859052825460018181018555600094855293829020835160059092020190815590820151928101929092556040810151600283015560608101516003830155608001516004909101556006546139f49073ffffffffffffffffffffffffffffffffffffffff1689308a614944565b601954613a0190886134f1565b60195573ffffffffffffffffffffffffffffffffffffffff89166000908152601b6020526040902054613a3490886134f1565b73ffffffffffffffffffffffffffffffffffffffff8a166000908152601b6020526040812091909155613a68908a90614821565b604080518881526020810188905290810182905273ffffffffffffffffffffffffffffffffffffffff89811660608301528a16907ff400e72e69ef4402819dfc57eeddc66f5eb69bf405e0e8098b1946ec1ac14a229060800160405180910390a25050600160025550505050505050565b6023546000908190640100000000900460ff1615613b53576040517f08c379a000000000000000000000000000000000000000000000000000000000815260206004820152601c60248201527f5265776172647320636f6c6c656374696f6e20697320706175736564000000006044820152606401610c90565b836001613b608282614821565b73ffffffffffffffffffffffffffffffffffffffff861660009081526017602090815260408083205460189092529091205490945092508315613cc05773ffffffffffffffffffffffffffffffffffffffff868116600090815260176020526040808220919091556004805491517fa9059cbb000000000000000000000000000000000000000000000000000000008152888416918101919091526024810187905291169063a9059cbb90604401602060405180830381600087803b158015613c2857600080fd5b505af1158015613c3c573d6000803e3d6000fd5b505050506040513d601f19601f82011682018060405250810190613c609190614c52565b506004546040805186815273ffffffffffffffffffffffffffffffffffffffff9283166020820152878316818301529051918816917f1d2f2ca53af5d2f333bd32fdd45f9c52ad8ebe31414f7792912077fcb3876dff9181900360600190a25b8215613de65773ffffffffffffffffffffffffffffffffffffffff8681166000908152601860205260408082209190915560055490517fa9059cbb00000000000000000000000000000000000000000000000000000000815287831660048201526024810186905291169063a9059cbb90604401602060405180830381600087803b158015613d4e57600080fd5b505af1158015613d62573d6000803e3d6000fd5b505050506040513d601f19601f82011682018060405250810190613d869190614c52565b506005546040805185815273ffffffffffffffffffffffffffffffffffffffff9283166020820152878316818301529051918816917f1d2f2ca53af5d2f333bd32fdd45f9c52ad8ebe31414f7792912077fcb3876dff9181900360600190a25b50509250929050565b600280541415613e5b576040517f08c379a000000000000000000000000000000000000000000000000000000000815260206004820152601f60248201527f5265656e7472616e637947756172643a207265656e7472616e742063616c6c006044820152606401610c90565b600280556023546301000000900460ff1615613ed3576040517f08c379a000000000000000000000000000000000000000000000000000000000815260206004820152601660248201527f5769746864726177616c732061726520706175736564000000000000000000006044820152606401610c90565b613edd8383613ad9565b5050613f146040518060a0016040528060008019168152602001600081526020016000815260200160008152602001600081525090565b600060408201819052805b73ffffffffffffffffffffffffffffffffffffffff86166000908152601e60205260409020548110156140885773ffffffffffffffffffffffffffffffffffffffff86166000908152601e60205260409020805482908110613faa577f4e487b7100000000000000000000000000000000000000000000000000000000600052603260045260246000fd5b9060005260206000209060050201600001548414156140765773ffffffffffffffffffffffffffffffffffffffff86166000908152601e60205260409020805482908110614021577f4e487b7100000000000000000000000000000000000000000000000000000000600052603260045260246000fd5b90600052602060002090600502016040518060a0016040529081600082015481526020016001820154815260200160028201548152602001600382015481526020016004820154815250509250809150614088565b8061408081614f11565b915050613f1f565b50815183146140f3576040517f08c379a000000000000000000000000000000000000000000000000000000000815260206004820152600f60248201527f5374616b65206e6f7420666f756e6400000000000000000000000000000000006044820152606401610c90565b816060015142101580614113575060235462010000900460ff1615156001145b806141325750336000908152601f602052604090205460ff1615156001145b614198576040517f08c379a000000000000000000000000000000000000000000000000000000000815260206004820152601660248201527f5374616b65206973207374696c6c206c6f636b656421000000000000000000006044820152606401610c90565b6040820151801561438d576019546141b090826133fa565b60195573ffffffffffffffffffffffffffffffffffffffff86166000908152601b60205260409020546141e390826133fa565b73ffffffffffffffffffffffffffffffffffffffff87166000908152601b6020908152604080832093909355601e90522080548390811061424d577f4e487b7100000000000000000000000000000000000000000000000000000000600052603260045260246000fd5b600091825260208220600590910201818155600181018290556002810182905560038101829055600401819055614285908790614821565b6006546040517fa9059cbb00000000000000000000000000000000000000000000000000000000815273ffffffffffffffffffffffffffffffffffffffff8781166004830152602482018490529091169063a9059cbb90604401602060405180830381600087803b1580156142f957600080fd5b505af115801561430d573d6000803e3d6000fd5b505050506040513d601f19601f820116820180604052508101906143319190614c52565b50604080518281526020810186905273ffffffffffffffffffffffffffffffffffffffff878116828401529151918816917f1d9308f6b22a2754a1c622bb30889e8f8f956c83e524d039e9d65d5f052eb9089181900360600190a25b5050600160025550505050565b60008183106143a957816133f3565b5090919050565b600854421161441b576040517f08c379a000000000000000000000000000000000000000000000000000000000815260206004820152601b60248201527f506572696f6420686173206e6f742065787069726564207965742100000000006044820152606401610c90565b6000601254614435600854426133fa90919063ffffffff16565b61443f9190614e58565b600480546040517f70a08231000000000000000000000000000000000000000000000000000000008152309281019290925291925060009173ffffffffffffffffffffffffffffffffffffffff16906370a082319060240160206040518083038186803b1580156144af57600080fd5b505afa1580156144c3573d6000803e3d6000fd5b505050506040513d601f19601f820116820180604052508101906144e79190614cd4565b6005546040517f70a0823100000000000000000000000000000000000000000000000000000000815230600482015291925060009173ffffffffffffffffffffffffffffffffffffffff909116906370a082319060240160206040518083038186803b15801561455657600080fd5b505afa15801561456a573d6000803e3d6000fd5b505050506040513d601f19601f8201168201806040525081019061458e9190614cd4565b9050816145ae61459f856001614e40565b6012546010546113ec9161343c565b111561463c576040517f08c379a000000000000000000000000000000000000000000000000000000000815260206004820152602560248201527f4e6f7420656e6f7567682046585320617661696c61626c6520666f722072657760448201527f61726473210000000000000000000000000000000000000000000000000000006064820152608401610c90565b60235460ff16156146f35780614665614656856001614e40565b6012546011546113ec9161343c565b11156146f3576040517f08c379a000000000000000000000000000000000000000000000000000000000815260206004820152602860248201527f4e6f7420656e6f75676820746f6b656e3120617661696c61626c6520666f722060448201527f72657761726473210000000000000000000000000000000000000000000000006064820152608401610c90565b60125461471290614709906113ec8660016134f1565b600854906134f1565b600855600080614720612bd4565b601382905560148190559092509050614737611e32565b60095560065460405173ffffffffffffffffffffffffffffffffffffffff90911681527f6f2b3b3aaf1881d69a5d40565500f93ea73df36e7b6a29bf48b21479a9237fe99060200160405180910390a15050505050565b600081836147c9576040517f08c379a0000000000000000000000000000000000000000000000000000000008152600401610c909190614def565b50600061187b8486614e58565b60008184841115614814576040517f08c379a0000000000000000000000000000000000000000000000000000000008152600401610c909190614def565b50600061187b8486614ece565b801561482f5761482f613376565b73ffffffffffffffffffffffffffffffffffffffff821615610e2a576000806000614859856120c9565b92509250925061486885614ae2565b73ffffffffffffffffffffffffffffffffffffffff85166000908152600f602052604090208290558281106148ec5760006148a382856133fa565b601a549091506148b390826134f1565b601a556148c084826134f1565b73ffffffffffffffffffffffffffffffffffffffff87166000908152601c60205260409020555061493d565b60006148f884836133fa565b601a5490915061490890826133fa565b601a5561491584826133fa565b73ffffffffffffffffffffffffffffffffffffffff87166000908152601c6020526040902055505b5050505050565b6040805173ffffffffffffffffffffffffffffffffffffffff85811660248301528481166044830152606480830185905283518084039091018152608490920183526020820180517bffffffffffffffffffffffffffffffffffffffffffffffffffffffff167f23b872dd0000000000000000000000000000000000000000000000000000000017905291516000928392908816916149e39190614d65565b6000604051808303816000865af19150503d8060008114614a20576040519150601f19603f3d011682016040523d82523d6000602084013e614a25565b606091505b5091509150818015614a4f575080511580614a4f575080806020019051810190614a4f9190614c52565b614ada576040517f08c379a0000000000000000000000000000000000000000000000000000000008152602060048201526024808201527f5472616e7366657248656c7065723a205452414e534645525f46524f4d5f464160448201527f494c4544000000000000000000000000000000000000000000000000000000006064820152608401610c90565b505050505050565b73ffffffffffffffffffffffffffffffffffffffff8116156115f257600080614b0a83610a33565b73ffffffffffffffffffffffffffffffffffffffff85166000908152601760209081526040808320949094556018815283822092909255601354601583528382205560145460169092529190912055505050565b803573ffffffffffffffffffffffffffffffffffffffff81168114614b8257600080fd5b919050565b80516dffffffffffffffffffffffffffff81168114614b8257600080fd5b600060208284031215614bb6578081fd5b6133f382614b5e565b60008060408385031215614bd1578081fd5b614bda83614b5e565b9150614be860208401614b5e565b90509250929050565b60008060408385031215614c03578182fd5b614c0c83614b5e565b946020939093013593505050565b60008060008060808587031215614c2f578182fd5b614c3885614b5e565b966020860135965060408601359560600135945092505050565b600060208284031215614c63578081fd5b81516133f381614f79565b600060208284031215614c7f578081fd5b5035919050565b600080600060608486031215614c9a578283fd5b614ca384614b87565b9250614cb160208501614b87565b9150604084015163ffffffff81168114614cc9578182fd5b809150509250925092565b600060208284031215614ce5578081fd5b5051919050565b60008060408385031215614cfe578182fd5b50508035926020909101359150565b600080600060608486031215614d21578283fd5b83359250602084013591506040840135614cc981614f79565b600080600060608486031215614d4e578283fd5b505081359360208301359350604090920135919050565b60008251614d77818460208701614ee5565b9190910192915050565b602080825282518282018190526000919060409081850190868401855b82811015614de25781518051855286810151878601528581015186860152606080820151908601526080908101519085015260a09093019290850190600101614d9e565b5091979650505050505050565b6020815260008251806020840152614e0e816040850160208701614ee5565b601f017fffffffffffffffffffffffffffffffffffffffffffffffffffffffffffffffe0169190910160400192915050565b60008219821115614e5357614e53614f4a565b500190565b600082614e8c577f4e487b710000000000000000000000000000000000000000000000000000000081526012600452602481fd5b500490565b6000817fffffffffffffffffffffffffffffffffffffffffffffffffffffffffffffffff0483118215151615614ec957614ec9614f4a565b500290565b600082821015614ee057614ee0614f4a565b500390565b60005b83811015614f00578181015183820152602001614ee8565b838111156113195750506000910152565b60007fffffffffffffffffffffffffffffffffffffffffffffffffffffffffffffffff821415614f4357614f43614f4a565b5060010190565b7f4e487b7100000000000000000000000000000000000000000000000000000000600052601160045260246000fd5b80151581146115f257600080fdfea26469706673582212200b9bcd2eb9351c191faf60e5e3ce6bb7723fd1a13a23e0b3f036f91c74583c4864736f6c63430008040033",
  "linkReferences": {},
  "deployedLinkReferences": {}
}