{
  "_format": "hh-sol-artifact-1",
  "contractName": "StakingRewardsDualV3_FRAX_IQ",
  "sourceName": "contracts/Staking/Variants/StakingRewardsDualV3_FRAX_IQ.sol",
  "abi": [
    {
      "inputs": [
        {
          "internalType": "address",
          "name": "_owner",
          "type": "address"
        },
        {
          "internalType": "address",
          "name": "_rewardsToken0",
          "type": "address"
        },
        {
          "internalType": "address",
          "name": "_rewardsToken1",
          "type": "address"
        },
        {
          "internalType": "address",
          "name": "_stakingToken",
          "type": "address"
        },
        {
          "internalType": "address",
          "name": "_frax_address",
          "type": "address"
        },
        {
          "internalType": "address",
          "name": "_timelock_address",
          "type": "address"
        },
        {
          "internalType": "address",
          "name": "_veFXS_address",
          "type": "address"
        }
      ],
      "stateMutability": "nonpayable",
      "type": "constructor"
    },
    {
      "anonymous": false,
      "inputs": [],
      "name": "DefaultInitialization",
      "type": "event"
    },
    {
      "anonymous": false,
      "inputs": [
        {
          "indexed": false,
          "internalType": "uint256",
          "name": "multiplier",
          "type": "uint256"
        }
      ],
      "name": "LockedStakeMaxMultiplierUpdated",
      "type": "event"
    },
    {
      "anonymous": false,
      "inputs": [
        {
          "indexed": false,
          "internalType": "uint256",
          "name": "secs",
          "type": "uint256"
        }
      ],
      "name": "LockedStakeMinTime",
      "type": "event"
    },
    {
      "anonymous": false,
      "inputs": [
        {
          "indexed": false,
          "internalType": "uint256",
          "name": "secs",
          "type": "uint256"
        }
      ],
      "name": "LockedStakeTimeForMaxMultiplier",
      "type": "event"
    },
    {
      "anonymous": false,
      "inputs": [
        {
          "indexed": false,
          "internalType": "uint256",
          "name": "multiplier",
          "type": "uint256"
        }
      ],
      "name": "MaxVeFXSMultiplier",
      "type": "event"
    },
    {
      "anonymous": false,
      "inputs": [
        {
          "indexed": false,
          "internalType": "address",
          "name": "oldOwner",
          "type": "address"
        },
        {
          "indexed": false,
          "internalType": "address",
          "name": "newOwner",
          "type": "address"
        }
      ],
      "name": "OwnerChanged",
      "type": "event"
    },
    {
      "anonymous": false,
      "inputs": [
        {
          "indexed": false,
          "internalType": "address",
          "name": "newOwner",
          "type": "address"
        }
      ],
      "name": "OwnerNominated",
      "type": "event"
    },
    {
      "anonymous": false,
      "inputs": [
        {
          "indexed": false,
          "internalType": "address",
          "name": "token",
          "type": "address"
        },
        {
          "indexed": false,
          "internalType": "uint256",
          "name": "amount",
          "type": "uint256"
        }
      ],
      "name": "Recovered",
      "type": "event"
    },
    {
      "anonymous": false,
      "inputs": [
        {
          "indexed": false,
          "internalType": "uint256",
          "name": "reward",
          "type": "uint256"
        }
      ],
      "name": "RewardAdded",
      "type": "event"
    },
    {
      "anonymous": false,
      "inputs": [
        {
          "indexed": true,
          "internalType": "address",
          "name": "user",
          "type": "address"
        },
        {
          "indexed": false,
          "internalType": "uint256",
          "name": "reward",
          "type": "uint256"
        },
        {
          "indexed": false,
          "internalType": "address",
          "name": "token_address",
          "type": "address"
        },
        {
          "indexed": false,
          "internalType": "address",
          "name": "destination_address",
          "type": "address"
        }
      ],
      "name": "RewardPaid",
      "type": "event"
    },
    {
      "anonymous": false,
      "inputs": [
        {
          "indexed": false,
          "internalType": "uint256",
          "name": "newDuration",
          "type": "uint256"
        }
      ],
      "name": "RewardsDurationUpdated",
      "type": "event"
    },
    {
      "anonymous": false,
      "inputs": [
        {
          "indexed": false,
          "internalType": "address",
          "name": "token",
          "type": "address"
        }
      ],
      "name": "RewardsPeriodRenewed",
      "type": "event"
    },
    {
      "anonymous": false,
      "inputs": [
        {
          "indexed": true,
          "internalType": "address",
          "name": "user",
          "type": "address"
        },
        {
          "indexed": false,
          "internalType": "uint256",
          "name": "amount",
          "type": "uint256"
        },
        {
          "indexed": false,
          "internalType": "uint256",
          "name": "secs",
          "type": "uint256"
        },
        {
          "indexed": false,
          "internalType": "bytes32",
          "name": "kek_id",
          "type": "bytes32"
        },
        {
          "indexed": false,
          "internalType": "address",
          "name": "source_address",
          "type": "address"
        }
      ],
      "name": "StakeLocked",
      "type": "event"
    },
    {
      "anonymous": false,
      "inputs": [
        {
          "indexed": true,
          "internalType": "address",
          "name": "user",
          "type": "address"
        },
        {
          "indexed": false,
          "internalType": "uint256",
          "name": "amount",
          "type": "uint256"
        },
        {
          "indexed": false,
          "internalType": "bytes32",
          "name": "kek_id",
          "type": "bytes32"
        },
        {
          "indexed": false,
          "internalType": "address",
          "name": "destination_address",
          "type": "address"
        }
      ],
      "name": "WithdrawLocked",
      "type": "event"
    },
    {
      "anonymous": false,
      "inputs": [
        {
          "indexed": false,
          "internalType": "uint256",
          "name": "scale_factor",
          "type": "uint256"
        }
      ],
      "name": "veFXSPerFraxForMaxBoostUpdated",
      "type": "event"
    },
    {
      "inputs": [],
      "name": "acceptOwnership",
      "outputs": [],
      "stateMutability": "nonpayable",
      "type": "function"
    },
    {
      "inputs": [
        {
          "internalType": "address",
          "name": "migrator_address",
          "type": "address"
        }
      ],
      "name": "addMigrator",
      "outputs": [],
      "stateMutability": "nonpayable",
      "type": "function"
    },
    {
      "inputs": [
        {
          "internalType": "address",
          "name": "account",
          "type": "address"
        }
      ],
      "name": "calcCurCombinedWeight",
      "outputs": [
        {
          "internalType": "uint256",
          "name": "old_combined_weight",
          "type": "uint256"
        },
        {
          "internalType": "uint256",
          "name": "new_vefxs_multiplier",
          "type": "uint256"
        },
        {
          "internalType": "uint256",
          "name": "new_combined_weight",
          "type": "uint256"
        }
      ],
      "stateMutability": "view",
      "type": "function"
    },
    {
      "inputs": [
        {
          "internalType": "address",
          "name": "account",
          "type": "address"
        }
      ],
      "name": "combinedWeightOf",
      "outputs": [
        {
          "internalType": "uint256",
          "name": "",
          "type": "uint256"
        }
      ],
      "stateMutability": "view",
      "type": "function"
    },
    {
      "inputs": [
        {
          "internalType": "address",
          "name": "account",
          "type": "address"
        }
      ],
      "name": "earned",
      "outputs": [
        {
          "internalType": "uint256",
          "name": "",
          "type": "uint256"
        },
        {
          "internalType": "uint256",
          "name": "",
          "type": "uint256"
        }
      ],
      "stateMutability": "view",
      "type": "function"
    },
    {
      "inputs": [],
      "name": "fraxPerLPToken",
      "outputs": [
        {
          "internalType": "uint256",
          "name": "",
          "type": "uint256"
        }
      ],
      "stateMutability": "view",
      "type": "function"
    },
    {
      "inputs": [],
      "name": "getReward",
      "outputs": [
        {
          "internalType": "uint256",
          "name": "",
          "type": "uint256"
        },
        {
          "internalType": "uint256",
          "name": "",
          "type": "uint256"
        }
      ],
      "stateMutability": "nonpayable",
      "type": "function"
    },
    {
      "inputs": [],
      "name": "getRewardForDuration",
      "outputs": [
        {
          "internalType": "uint256",
          "name": "",
          "type": "uint256"
        },
        {
          "internalType": "uint256",
          "name": "",
          "type": "uint256"
        }
      ],
      "stateMutability": "view",
      "type": "function"
    },
    {
      "inputs": [
        {
          "internalType": "address",
          "name": "",
          "type": "address"
        }
      ],
      "name": "greylist",
      "outputs": [
        {
          "internalType": "bool",
          "name": "",
          "type": "bool"
        }
      ],
      "stateMutability": "view",
      "type": "function"
    },
    {
      "inputs": [
        {
          "internalType": "address",
          "name": "_address",
          "type": "address"
        }
      ],
      "name": "greylistAddress",
      "outputs": [],
      "stateMutability": "nonpayable",
      "type": "function"
    },
    {
      "inputs": [],
      "name": "initializeDefault",
      "outputs": [],
      "stateMutability": "nonpayable",
      "type": "function"
    },
    {
      "inputs": [],
      "name": "lastTimeRewardApplicable",
      "outputs": [
        {
          "internalType": "uint256",
          "name": "",
          "type": "uint256"
        }
      ],
      "stateMutability": "view",
      "type": "function"
    },
    {
      "inputs": [],
      "name": "lastUpdateTime",
      "outputs": [
        {
          "internalType": "uint256",
          "name": "",
          "type": "uint256"
        }
      ],
      "stateMutability": "view",
      "type": "function"
    },
    {
      "inputs": [
        {
          "internalType": "uint256",
          "name": "secs",
          "type": "uint256"
        }
      ],
      "name": "lockMultiplier",
      "outputs": [
        {
          "internalType": "uint256",
          "name": "",
          "type": "uint256"
        }
      ],
      "stateMutability": "view",
      "type": "function"
    },
    {
      "inputs": [],
      "name": "lock_max_multiplier",
      "outputs": [
        {
          "internalType": "uint256",
          "name": "",
          "type": "uint256"
        }
      ],
      "stateMutability": "view",
      "type": "function"
    },
    {
      "inputs": [],
      "name": "lock_time_for_max_multiplier",
      "outputs": [
        {
          "internalType": "uint256",
          "name": "",
          "type": "uint256"
        }
      ],
      "stateMutability": "view",
      "type": "function"
    },
    {
      "inputs": [],
      "name": "lock_time_min",
      "outputs": [
        {
          "internalType": "uint256",
          "name": "",
          "type": "uint256"
        }
      ],
      "stateMutability": "view",
      "type": "function"
    },
    {
      "inputs": [
        {
          "internalType": "address",
          "name": "account",
          "type": "address"
        }
      ],
      "name": "lockedLiquidityOf",
      "outputs": [
        {
          "internalType": "uint256",
          "name": "",
          "type": "uint256"
        }
      ],
      "stateMutability": "view",
      "type": "function"
    },
    {
      "inputs": [
        {
          "internalType": "address",
          "name": "account",
          "type": "address"
        }
      ],
      "name": "lockedStakesOf",
      "outputs": [
        {
          "components": [
            {
              "internalType": "bytes32",
              "name": "kek_id",
              "type": "bytes32"
            },
            {
              "internalType": "uint256",
              "name": "start_timestamp",
              "type": "uint256"
            },
            {
              "internalType": "uint256",
              "name": "liquidity",
              "type": "uint256"
            },
            {
              "internalType": "uint256",
              "name": "ending_timestamp",
              "type": "uint256"
            },
            {
              "internalType": "uint256",
              "name": "lock_multiplier",
              "type": "uint256"
            }
          ],
          "internalType": "struct StakingRewardsDualV3.LockedStake[]",
          "name": "",
          "type": "tuple[]"
        }
      ],
      "stateMutability": "view",
      "type": "function"
    },
    {
      "inputs": [],
      "name": "migrationsOn",
      "outputs": [
        {
          "internalType": "bool",
          "name": "",
          "type": "bool"
        }
      ],
      "stateMutability": "view",
      "type": "function"
    },
    {
      "inputs": [
        {
          "internalType": "address",
          "name": "staker_address",
          "type": "address"
        },
        {
          "internalType": "address",
          "name": "migrator_address",
          "type": "address"
        }
      ],
      "name": "migratorApprovedForStaker",
      "outputs": [
        {
          "internalType": "bool",
          "name": "",
          "type": "bool"
        }
      ],
      "stateMutability": "view",
      "type": "function"
    },
    {
      "inputs": [
        {
          "internalType": "address",
          "name": "staker_address",
          "type": "address"
        },
        {
          "internalType": "uint256",
          "name": "amount",
          "type": "uint256"
        },
        {
          "internalType": "uint256",
          "name": "secs",
          "type": "uint256"
        }
      ],
      "name": "migrator_stakeLocked_for",
      "outputs": [],
      "stateMutability": "nonpayable",
      "type": "function"
    },
    {
      "inputs": [
        {
          "internalType": "address",
          "name": "staker_address",
          "type": "address"
        },
        {
          "internalType": "bytes32",
          "name": "kek_id",
          "type": "bytes32"
        }
      ],
      "name": "migrator_withdraw_locked",
      "outputs": [],
      "stateMutability": "nonpayable",
      "type": "function"
    },
    {
      "inputs": [
        {
          "internalType": "address",
          "name": "account",
          "type": "address"
        }
      ],
      "name": "minVeFXSForMaxBoost",
      "outputs": [
        {
          "internalType": "uint256",
          "name": "",
          "type": "uint256"
        }
      ],
      "stateMutability": "view",
      "type": "function"
    },
    {
      "inputs": [
        {
          "internalType": "address",
          "name": "_owner",
          "type": "address"
        }
      ],
      "name": "nominateNewOwner",
      "outputs": [],
      "stateMutability": "nonpayable",
      "type": "function"
    },
    {
      "inputs": [],
      "name": "nominatedOwner",
      "outputs": [
        {
          "internalType": "address",
          "name": "",
          "type": "address"
        }
      ],
      "stateMutability": "view",
      "type": "function"
    },
    {
      "inputs": [],
      "name": "owner",
      "outputs": [
        {
          "internalType": "address",
          "name": "",
          "type": "address"
        }
      ],
      "stateMutability": "view",
      "type": "function"
    },
    {
      "inputs": [],
      "name": "periodFinish",
      "outputs": [
        {
          "internalType": "uint256",
          "name": "",
          "type": "uint256"
        }
      ],
      "stateMutability": "view",
      "type": "function"
    },
    {
      "inputs": [
        {
          "internalType": "address",
          "name": "tokenAddress",
          "type": "address"
        },
        {
          "internalType": "uint256",
          "name": "tokenAmount",
          "type": "uint256"
        }
      ],
      "name": "recoverERC20",
      "outputs": [],
      "stateMutability": "nonpayable",
      "type": "function"
    },
    {
      "inputs": [
        {
          "internalType": "address",
          "name": "migrator_address",
          "type": "address"
        }
      ],
      "name": "removeMigrator",
      "outputs": [],
      "stateMutability": "nonpayable",
      "type": "function"
    },
    {
      "inputs": [],
      "name": "renewIfApplicable",
      "outputs": [],
      "stateMutability": "nonpayable",
      "type": "function"
    },
    {
      "inputs": [],
      "name": "rewardPerToken",
      "outputs": [
        {
          "internalType": "uint256",
          "name": "",
          "type": "uint256"
        },
        {
          "internalType": "uint256",
          "name": "",
          "type": "uint256"
        }
      ],
      "stateMutability": "view",
      "type": "function"
    },
    {
      "inputs": [],
      "name": "rewardPerTokenStored0",
      "outputs": [
        {
          "internalType": "uint256",
          "name": "",
          "type": "uint256"
        }
      ],
      "stateMutability": "view",
      "type": "function"
    },
    {
      "inputs": [],
      "name": "rewardPerTokenStored1",
      "outputs": [
        {
          "internalType": "uint256",
          "name": "",
          "type": "uint256"
        }
      ],
      "stateMutability": "view",
      "type": "function"
    },
    {
      "inputs": [],
      "name": "rewardRate0",
      "outputs": [
        {
          "internalType": "uint256",
          "name": "",
          "type": "uint256"
        }
      ],
      "stateMutability": "view",
      "type": "function"
    },
    {
      "inputs": [],
      "name": "rewardRate1",
      "outputs": [
        {
          "internalType": "uint256",
          "name": "",
          "type": "uint256"
        }
      ],
      "stateMutability": "view",
      "type": "function"
    },
    {
      "inputs": [
        {
          "internalType": "address",
          "name": "",
          "type": "address"
        }
      ],
      "name": "rewards0",
      "outputs": [
        {
          "internalType": "uint256",
          "name": "",
          "type": "uint256"
        }
      ],
      "stateMutability": "view",
      "type": "function"
    },
    {
      "inputs": [
        {
          "internalType": "address",
          "name": "",
          "type": "address"
        }
      ],
      "name": "rewards1",
      "outputs": [
        {
          "internalType": "uint256",
          "name": "",
          "type": "uint256"
        }
      ],
      "stateMutability": "view",
      "type": "function"
    },
    {
      "inputs": [],
      "name": "rewardsCollectionPaused",
      "outputs": [
        {
          "internalType": "bool",
          "name": "",
          "type": "bool"
        }
      ],
      "stateMutability": "view",
      "type": "function"
    },
    {
      "inputs": [],
      "name": "rewardsDuration",
      "outputs": [
        {
          "internalType": "uint256",
          "name": "",
          "type": "uint256"
        }
      ],
      "stateMutability": "view",
      "type": "function"
    },
    {
      "inputs": [
        {
          "internalType": "uint256",
          "name": "_lock_time_for_max_multiplier",
          "type": "uint256"
        },
        {
          "internalType": "uint256",
          "name": "_lock_time_min",
          "type": "uint256"
        }
      ],
      "name": "setLockedStakeTimeForMinAndMaxMultiplier",
      "outputs": [],
      "stateMutability": "nonpayable",
      "type": "function"
    },
    {
      "inputs": [
        {
          "internalType": "uint256",
          "name": "_lock_max_multiplier",
          "type": "uint256"
        },
        {
          "internalType": "uint256",
          "name": "_vefxs_max_multiplier",
          "type": "uint256"
        },
        {
          "internalType": "uint256",
          "name": "_vefxs_per_frax_for_max_boost",
          "type": "uint256"
        }
      ],
      "name": "setMultipliers",
      "outputs": [],
      "stateMutability": "nonpayable",
      "type": "function"
    },
    {
      "inputs": [
        {
          "internalType": "uint256",
          "name": "_new_rate0",
          "type": "uint256"
        },
        {
          "internalType": "uint256",
          "name": "_new_rate1",
          "type": "uint256"
        },
        {
          "internalType": "bool",
          "name": "sync_too",
          "type": "bool"
        }
      ],
      "name": "setRewardRates",
      "outputs": [],
      "stateMutability": "nonpayable",
      "type": "function"
    },
    {
      "inputs": [
        {
          "internalType": "uint256",
          "name": "_rewardsDuration",
          "type": "uint256"
        }
      ],
      "name": "setRewardsDuration",
      "outputs": [],
      "stateMutability": "nonpayable",
      "type": "function"
    },
    {
      "inputs": [
        {
          "internalType": "address",
          "name": "_new_timelock",
          "type": "address"
        }
      ],
      "name": "setTimelock",
      "outputs": [],
      "stateMutability": "nonpayable",
      "type": "function"
    },
    {
      "inputs": [
        {
          "internalType": "uint256",
          "name": "liquidity",
          "type": "uint256"
        },
        {
          "internalType": "uint256",
          "name": "secs",
          "type": "uint256"
        }
      ],
      "name": "stakeLocked",
      "outputs": [],
      "stateMutability": "nonpayable",
      "type": "function"
    },
    {
      "inputs": [
        {
          "internalType": "address",
          "name": "migrator_address",
          "type": "address"
        }
      ],
      "name": "stakerAllowMigrator",
      "outputs": [],
      "stateMutability": "nonpayable",
      "type": "function"
    },
    {
      "inputs": [
        {
          "internalType": "address",
          "name": "migrator_address",
          "type": "address"
        }
      ],
      "name": "stakerDisallowMigrator",
      "outputs": [],
      "stateMutability": "nonpayable",
      "type": "function"
    },
    {
      "inputs": [
        {
          "internalType": "address",
          "name": "",
          "type": "address"
        },
        {
          "internalType": "address",
          "name": "",
          "type": "address"
        }
      ],
      "name": "staker_allowed_migrators",
      "outputs": [
        {
          "internalType": "bool",
          "name": "",
          "type": "bool"
        }
      ],
      "stateMutability": "view",
      "type": "function"
    },
    {
      "inputs": [],
      "name": "stakesUnlocked",
      "outputs": [
        {
          "internalType": "bool",
          "name": "",
          "type": "bool"
        }
      ],
      "stateMutability": "view",
      "type": "function"
    },
    {
      "inputs": [],
      "name": "stakingPaused",
      "outputs": [
        {
          "internalType": "bool",
          "name": "",
          "type": "bool"
        }
      ],
      "stateMutability": "view",
      "type": "function"
    },
    {
      "inputs": [],
      "name": "sync",
      "outputs": [],
      "stateMutability": "nonpayable",
      "type": "function"
    },
    {
      "inputs": [],
      "name": "timelock_address",
      "outputs": [
        {
          "internalType": "address",
          "name": "",
          "type": "address"
        }
      ],
      "stateMutability": "view",
      "type": "function"
    },
    {
      "inputs": [],
      "name": "toggleMigrations",
      "outputs": [],
      "stateMutability": "nonpayable",
      "type": "function"
    },
    {
      "inputs": [],
      "name": "toggleRewardsCollection",
      "outputs": [],
      "stateMutability": "nonpayable",
      "type": "function"
    },
    {
      "inputs": [],
      "name": "toggleStaking",
      "outputs": [],
      "stateMutability": "nonpayable",
      "type": "function"
    },
    {
      "inputs": [],
      "name": "toggleToken1Rewards",
      "outputs": [],
      "stateMutability": "nonpayable",
      "type": "function"
    },
    {
      "inputs": [],
      "name": "toggleWithdrawals",
      "outputs": [],
      "stateMutability": "nonpayable",
      "type": "function"
    },
    {
      "inputs": [],
      "name": "token1_rewards_on",
      "outputs": [
        {
          "internalType": "bool",
          "name": "",
          "type": "bool"
        }
      ],
      "stateMutability": "view",
      "type": "function"
    },
    {
      "inputs": [],
      "name": "totalCombinedWeight",
      "outputs": [
        {
          "internalType": "uint256",
          "name": "",
          "type": "uint256"
        }
      ],
      "stateMutability": "view",
      "type": "function"
    },
    {
      "inputs": [],
      "name": "totalLiquidityLocked",
      "outputs": [
        {
          "internalType": "uint256",
          "name": "",
          "type": "uint256"
        }
      ],
      "stateMutability": "view",
      "type": "function"
    },
    {
      "inputs": [],
      "name": "unlockStakes",
      "outputs": [],
      "stateMutability": "nonpayable",
      "type": "function"
    },
    {
      "inputs": [
        {
          "internalType": "address",
          "name": "",
          "type": "address"
        }
      ],
      "name": "userRewardPerTokenPaid0",
      "outputs": [
        {
          "internalType": "uint256",
          "name": "",
          "type": "uint256"
        }
      ],
      "stateMutability": "view",
      "type": "function"
    },
    {
      "inputs": [
        {
          "internalType": "address",
          "name": "",
          "type": "address"
        }
      ],
      "name": "userRewardPerTokenPaid1",
      "outputs": [
        {
          "internalType": "uint256",
          "name": "",
          "type": "uint256"
        }
      ],
      "stateMutability": "view",
      "type": "function"
    },
    {
      "inputs": [
        {
          "internalType": "address",
          "name": "account",
          "type": "address"
        }
      ],
      "name": "userStakedFrax",
      "outputs": [
        {
          "internalType": "uint256",
          "name": "",
          "type": "uint256"
        }
      ],
      "stateMutability": "view",
      "type": "function"
    },
    {
      "inputs": [
        {
          "internalType": "address",
          "name": "",
          "type": "address"
        }
      ],
      "name": "valid_migrators",
      "outputs": [
        {
          "internalType": "bool",
          "name": "",
          "type": "bool"
        }
      ],
      "stateMutability": "view",
      "type": "function"
    },
    {
      "inputs": [
        {
          "internalType": "uint256",
          "name": "",
          "type": "uint256"
        }
      ],
      "name": "valid_migrators_array",
      "outputs": [
        {
          "internalType": "address",
          "name": "",
          "type": "address"
        }
      ],
      "stateMutability": "view",
      "type": "function"
    },
    {
      "inputs": [
        {
          "internalType": "address",
          "name": "account",
          "type": "address"
        }
      ],
      "name": "veFXSMultiplier",
      "outputs": [
        {
          "internalType": "uint256",
          "name": "",
          "type": "uint256"
        }
      ],
      "stateMutability": "view",
      "type": "function"
    },
    {
      "inputs": [],
      "name": "vefxs_max_multiplier",
      "outputs": [
        {
          "internalType": "uint256",
          "name": "",
          "type": "uint256"
        }
      ],
      "stateMutability": "view",
      "type": "function"
    },
    {
      "inputs": [],
      "name": "vefxs_per_frax_for_max_boost",
      "outputs": [
        {
          "internalType": "uint256",
          "name": "",
          "type": "uint256"
        }
      ],
      "stateMutability": "view",
      "type": "function"
    },
    {
      "inputs": [
        {
          "internalType": "bytes32",
          "name": "kek_id",
          "type": "bytes32"
        }
      ],
      "name": "withdrawLocked",
      "outputs": [],
      "stateMutability": "nonpayable",
      "type": "function"
    },
    {
      "inputs": [],
      "name": "withdrawalsPaused",
      "outputs": [
        {
          "internalType": "bool",
          "name": "",
          "type": "bool"
        }
      ],
      "stateMutability": "view",
      "type": "function"
    }
  ],
  "bytecode": "0x60806040526729a2241af62c0000600a556305a39a80600b5562015180600c55673782dace9d900000600d556722b1c8c1227a0000600e5562093a806012556000601381905560148190556019819055601a556023805465ffffffffffff191660011790553480156200007157600080fd5b506040516200553c3803806200553c8339810160408190526200009491620003a4565b86868686868686866001600160a01b038116620000f85760405162461bcd60e51b815260206004820152601960248201527f4f776e657220616464726573732063616e6e6f7420626520300000000000000060448201526064015b60405180910390fd5b600080546001600160a01b0319166001600160a01b03831690811782556040805192835260208301919091527fb532073b38c83145e3e5135377a08bf9aab55bc0fd7c1179cd4fb995d2a5159c910160405180910390a1506001600255600480546001600160a01b03199081166001600160a01b03898116919091179092556005805482168884161790556006805482168784161790556003805482168484161790554260095560078054909116918416919091179055620001d468c5ddeced789fc800006301e13380620002dd602090811b620033f917901c565b601055620001fc6813c9647e25a99400006301e13380620002dd602090811b620033f917901c565b60115560065460408051630dfe168160e01b815290516000926001600160a01b031691630dfe1681916004808301926020929190829003018186803b1580156200024557600080fd5b505afa1580156200025a573d6000803e3d6000fd5b505050506040513d601f19601f8201168201806040525081019062000280919062000387565b9050836001600160a01b0316816001600160a01b03161415620002b057601d805460ff19166001179055620002bb565b601d805460ff191690555b50506023805462ffff001916905550620004af9b505050505050505050505050565b60006200032783836040518060400160405280601a81526020017f536166654d6174683a206469766973696f6e206279207a65726f0000000000008152506200032e60201b60201c565b9392505050565b60008183620003525760405162461bcd60e51b8152600401620000ef919062000438565b5060006200036184866200048e565b95945050505050565b80516001600160a01b03811681146200038257600080fd5b919050565b60006020828403121562000399578081fd5b62000327826200036a565b600080600080600080600060e0888a031215620003bf578283fd5b620003ca886200036a565b9650620003da602089016200036a565b9550620003ea604089016200036a565b9450620003fa606089016200036a565b93506200040a608089016200036a565b92506200041a60a089016200036a565b91506200042a60c089016200036a565b905092959891949750929550565b6000602080835283518082850152825b81811015620004665785810183015185820160400152820162000448565b81811115620004785783604083870101525b50601f01601f1916929092016040019392505050565b600082620004aa57634e487b7160e01b81526012600452602481fd5b500490565b61507d80620004bf6000396000f3fe608060405234801561001057600080fd5b50600436106104a75760003560e01c8063941d9f651161026b578063d9f96e8d11610150578063ed48f6f7116100c8578063f2a8d34911610097578063fe271f5f1161007c578063fe271f5f14610a03578063fee2eae614610a23578063fff6cae914610a2b57600080fd5b8063f2a8d349146109e8578063fce6fd13146109f157600080fd5b8063ed48f6f7146109a1578063ee89e02f146109a9578063f12f1447146109cc578063f288baf6146109df57600080fd5b8063e01f62bf1161011f578063e9f2838e11610104578063e9f2838e14610971578063eb3c209e14610985578063ebe2b12b1461099857600080fd5b8063e01f62bf14610961578063e1ba95d21461096957600080fd5b8063d9f96e8d146108ef578063dbf0b3fe14610925578063dc6663c71461092e578063de9853ad1461094e57600080fd5b8063bbb781cc116101e3578063cc1a378f116101b2578063cdc82e8011610197578063cdc82e80146108cb578063d239f003146108d4578063d42fc9b4146108dc57600080fd5b8063cc1a378f146108b0578063cd3daf9d146108c357600080fd5b8063bbb781cc1461085e578063bdacb30314610874578063c126d1aa14610887578063c8f33c91146108a757600080fd5b8063a1ec508a1161023a578063a8d598a41161021f578063a8d598a414610839578063af00f4e214610842578063b94c4dcb1461085557600080fd5b8063a1ec508a14610828578063a2217bc51461083157600080fd5b8063941d9f65146107c15780639637927f146107d45780639b8c15a8146107e75780639c5303eb1461081557600080fd5b806351e3fc17116103915780636d07d0af116103095780637b31c19a116102d85780638980f11f116102bd5780638980f11f146107605780638bad86a7146107735780638da5cb5b146107a157600080fd5b80637b31c19a1461075057806380faa57d1461075857600080fd5b80636d07d0af146107195780636e27cef91461072c578063721eb9c51461073557806379ba50971461074857600080fd5b80636435046711610360578063666b9cb811610345578063666b9cb8146106d35780636a231b03146106e65780636ce46bc31461070657600080fd5b806364350467146106be57806364f2c060146106cb57600080fd5b806351e3fc171461064b57806352732bc81461065e57806353a47bb7146106715780635bfd9258146106b657600080fd5b80632c0c2a0a1161042457806336f89af2116103f35780633b8105b3116103d85780633b8105b3146106285780633d18b912146106305780634fd2b5361461063857600080fd5b806336f89af2146105e9578063386a95251461061f57600080fd5b80632c0c2a0a146105855780632ca1a8951461059857806331ca208c146105a1578063323331ca146105d457600080fd5b8063169d27ef1161047b5780631b3e870a116104605780631b3e870a1461054a5780631c1f78eb1461055d5780631e090f011461056557600080fd5b8063169d27ef1461052f57806317b18c891461053757600080fd5b80628cc262146104ac5780630d7bac4f146104d9578063144e8034146104fa5780631627540c1461051a575b600080fd5b6104bf6104ba366004614c67565b610a33565b604080519283526020830191909152015b60405180910390f35b6104ec6104e7366004614d2a565b610b94565b6040519081526020016104d0565b6104ec610508366004614c67565b60156020526000908152604090205481565b61052d610528366004614c67565b610bed565b005b61052d610d13565b61052d610545366004614da8565b610e1d565b61052d610558366004614c67565b610e2d565b6104bf6110f3565b610578610573366004614c67565b611124565b6040516104d09190614e3d565b6104ec610593366004614c67565b6111d8565b6104ec60105481565b6105c46105af366004614c67565b60226020526000908152604090205460ff1681565b60405190151581526020016104d0565b6023546105c490640100000000900460ff1681565b6104ec6105f7366004614c67565b73ffffffffffffffffffffffffffffffffffffffff166000908152601c602052604090205490565b6104ec60125481565b61052d61130e565b6104bf611415565b6104ec610646366004614c67565b611422565b61052d610659366004614d2a565b61143f565b61052d61066c366004614c67565b61144d565b6001546106919073ffffffffffffffffffffffffffffffffffffffff1681565b60405173ffffffffffffffffffffffffffffffffffffffff90911681526020016104d0565b6104ec611545565b6023546105c49060ff1681565b601a546104ec565b6106916106e1366004614d2a565b6116dc565b6104ec6106f4366004614c67565b60186020526000908152604090205481565b61052d610714366004614df6565b611713565b61052d610727366004614cdc565b611a54565b6104ec600c5481565b6105c4610743366004614c81565b611b98565b61052d611c1e565b61052d611d69565b6104ec611e6f565b61052d61076e366004614cb3565b611e82565b610786610781366004614c67565b612106565b604080519384526020840192909252908201526060016104d0565b6000546106919073ffffffffffffffffffffffffffffffffffffffff1681565b61052d6107cf366004614c67565b6122d8565b6023546105c49062010000900460ff1681565b6105c46107f5366004614c81565b602160209081526000928352604080842090915290825290205460ff1681565b61052d610823366004614c67565b6123f5565b6104ec60115481565b61052d6125f6565b6104ec60145481565b61052d610850366004614da8565b6126f9565b6104ec600b5481565b6023546105c49065010000000000900460ff1681565b61052d610882366004614c67565b612951565b6104ec610895366004614c67565b60176020526000908152604090205481565b6104ec60095481565b61052d6108be366004614d2a565b612a61565b6104bf612c21565b6104ec600a5481565b61052d612cb0565b6104ec6108ea366004614c67565b612db5565b6104ec6108fd366004614c67565b73ffffffffffffffffffffffffffffffffffffffff166000908152601b602052604090205490565b6104ec60135481565b6007546106919073ffffffffffffffffffffffffffffffffffffffff1681565b61052d61095c366004614dc9565b612df5565b6019546104ec565b61052d612ed6565b6023546105c4906301000000900460ff1681565b61052d610993366004614cb3565b612fda565b6104ec60085481565b61052d613118565b6105c46109b7366004614c67565b601f6020526000908152604090205460ff1681565b61052d6109da366004614c67565b613224565b6104ec600e5481565b6104ec600d5481565b6023546105c490610100900460ff1681565b6104ec610a11366004614c67565b60166020526000908152604090205481565b61052d6133aa565b61052d6133be565b600080600080610a41612c21565b73ffffffffffffffffffffffffffffffffffffffff87166000908152601c60205260409020549193509150610a7d575060009485945092505050565b73ffffffffffffffffffffffffffffffffffffffff8516600090815260176020908152604080832054601590925290912054610b099190610b0390670de0b6b3a764000090610afd90610ad1908890613442565b73ffffffffffffffffffffffffffffffffffffffff8b166000908152601c602052604090205490613484565b906133f9565b90613539565b73ffffffffffffffffffffffffffffffffffffffff8616600090815260186020908152604080832054601690925290912054610b899190610b0390670de0b6b3a764000090610afd90610b5d908890613442565b73ffffffffffffffffffffffffffffffffffffffff8c166000908152601c602052604090205490613484565b935093505050915091565b600080610bd6610bc7600b54610afd610bc0670de0b6b3a7640000600a5461344290919063ffffffff16565b8790613484565b670de0b6b3a764000090613539565b9050600a54811115610be75750600a545b92915050565b60005473ffffffffffffffffffffffffffffffffffffffff163314610c99576040517f08c379a000000000000000000000000000000000000000000000000000000000815260206004820152602f60248201527f4f6e6c792074686520636f6e7472616374206f776e6572206d6179207065726660448201527f6f726d207468697320616374696f6e000000000000000000000000000000000060648201526084015b60405180910390fd5b600180547fffffffffffffffffffffffff00000000000000000000000000000000000000001673ffffffffffffffffffffffffffffffffffffffff83169081179091556040519081527f906a1c6bd7e3091ea86693dd029a831c19049ce77f1dce2ce0bab1cacbabce22906020015b60405180910390a150565b60005473ffffffffffffffffffffffffffffffffffffffff16331480610d50575060075473ffffffffffffffffffffffffffffffffffffffff1633145b610ddc576040517f08c379a000000000000000000000000000000000000000000000000000000000815260206004820152603060248201527f596f7520617265206e6f7420746865206f776e6572206f722074686520676f7660448201527f65726e616e63652074696d656c6f636b000000000000000000000000000000006064820152608401610c90565b426009819055601254610def9190613539565b6008556040517fb5cfe3ccd03847076864f081609024cbc2eb98c38da4d8b2cebe9479a9a1ef3790600090a1565b610e29333384846135b2565b5050565b60005473ffffffffffffffffffffffffffffffffffffffff16331480610e6a575060075473ffffffffffffffffffffffffffffffffffffffff1633145b610ef6576040517f08c379a000000000000000000000000000000000000000000000000000000000815260206004820152603060248201527f596f7520617265206e6f7420746865206f776e6572206f722074686520676f7660448201527f65726e616e63652074696d656c6f636b000000000000000000000000000000006064820152608401610c90565b73ffffffffffffffffffffffffffffffffffffffff81166000908152601f602052604090205460ff161515600114610f8a576040517f08c379a000000000000000000000000000000000000000000000000000000000815260206004820152601d60248201527f6164647265737320646f65736e277420657869737420616c72656164790000006044820152606401610c90565b73ffffffffffffffffffffffffffffffffffffffff81166000908152601f6020526040812080547fffffffffffffffffffffffffffffffffffffffffffffffffffffffffffffff001690555b602054811015610e29578173ffffffffffffffffffffffffffffffffffffffff1660208281548110611031577f4e487b7100000000000000000000000000000000000000000000000000000000600052603260045260246000fd5b60009182526020909120015473ffffffffffffffffffffffffffffffffffffffff1614156110e157600060208281548110611095577f4e487b7100000000000000000000000000000000000000000000000000000000600052603260045260246000fd5b9060005260206000200160006101000a81548173ffffffffffffffffffffffffffffffffffffffff021916908373ffffffffffffffffffffffffffffffffffffffff1602179055505050565b806110eb81614fd1565b915050610fd6565b60008061110d60125460105461348490919063ffffffff16565b60125460115461111c91613484565b915091509091565b73ffffffffffffffffffffffffffffffffffffffff81166000908152601e60209081526040808320805482518185028101850190935280835260609492939192909184015b828210156111cd57838290600052602060002090600502016040518060a00160405290816000820154815260200160018201548152602001600282015481526020016003820154815260200160048201548152505081526020019060010190611169565b505050509050919050565b6000806111e483611422565b905080156112fe576003546040517f70a0823100000000000000000000000000000000000000000000000000000000815273ffffffffffffffffffffffffffffffffffffffff85811660048301526000926112ab928592610afd92670de0b6b3a7640000929116906370a082319060240160206040518083038186803b15801561126d57600080fd5b505afa158015611281573d6000803e3d6000fd5b505050506040513d601f19601f820116820180604052508101906112a59190614d90565b90613484565b905060006112e5610bc7670de0b6b3a7640000610afd6112de670de0b6b3a7640000600e5461344290919063ffffffff16565b8690613484565b9050600e548111156112f65750600e545b949350505050565b50670de0b6b3a764000092915050565b60005473ffffffffffffffffffffffffffffffffffffffff1633148061134b575060075473ffffffffffffffffffffffffffffffffffffffff1633145b6113d7576040517f08c379a000000000000000000000000000000000000000000000000000000000815260206004820152603060248201527f596f7520617265206e6f7420746865206f776e6572206f722074686520676f7660448201527f65726e616e63652074696d656c6f636b000000000000000000000000000000006064820152608401610c90565b602380547fffffffffffffffffffffffffffffffffffffffffffffffffffff00ffffffffff8116650100000000009182900460ff1615909102179055565b60008061111c3333613b23565b6000610be7670de0b6b3a7640000610afd600d546112a586612db5565b61144a333383613eae565b50565b33600090815260216020908152604080832073ffffffffffffffffffffffffffffffffffffffff8516845290915290205460ff1615156001146114ec576040517f08c379a000000000000000000000000000000000000000000000000000000000815260206004820152601d60248201527f4164647265737320646f65736e277420657869737420616c72656164790000006044820152606401610c90565b33600090815260216020908152604080832073ffffffffffffffffffffffffffffffffffffffff9490941683529290522080547fffffffffffffffffffffffffffffffffffffffffffffffffffffffffffffff00169055565b6000806000806000600660009054906101000a900473ffffffffffffffffffffffffffffffffffffffff1673ffffffffffffffffffffffffffffffffffffffff16630902f1ac6040518163ffffffff1660e01b815260040160606040518083038186803b1580156115b557600080fd5b505afa1580156115c9573d6000803e3d6000fd5b505050506040513d601f19601f820116820180604052508101906115ed9190614d42565b50601d546dffffffffffffffffffffffffffff92831694509116915060ff16156116195781925061161d565b8092505b600654604080517f18160ddd00000000000000000000000000000000000000000000000000000000815290516116d39273ffffffffffffffffffffffffffffffffffffffff16916318160ddd916004808301926020929190829003018186803b15801561168957600080fd5b505afa15801561169d573d6000803e3d6000fd5b505050506040513d601f19601f820116820180604052508101906116c19190614d90565b610afd85670de0b6b3a7640000613484565b95945050505050565b602081815481106116ec57600080fd5b60009182526020909120015473ffffffffffffffffffffffffffffffffffffffff16905081565b60005473ffffffffffffffffffffffffffffffffffffffff16331480611750575060075473ffffffffffffffffffffffffffffffffffffffff1633145b6117dc576040517f08c379a000000000000000000000000000000000000000000000000000000000815260206004820152603060248201527f596f7520617265206e6f7420746865206f776e6572206f722074686520676f7660448201527f65726e616e63652074696d656c6f636b000000000000000000000000000000006064820152608401610c90565b620f424083101561186f576040517f08c379a000000000000000000000000000000000000000000000000000000000815260206004820152602f60248201527f4d756c7469706c696572206d7573742062652067726561746572207468616e2060448201527f6f7220657175616c20746f2031653600000000000000000000000000000000006064820152608401610c90565b670de0b6b3a7640000821015611907576040517f08c379a000000000000000000000000000000000000000000000000000000000815260206004820152603a60248201527f4d6178207665465853206d756c7469706c696572206d7573742062652067726560448201527f61746572207468616e206f7220657175616c20746f20316531380000000000006064820152608401610c90565b60008111611997576040517f08c379a000000000000000000000000000000000000000000000000000000000815260206004820152602560248201527f7665465853207065722046524158206d7573742062652067726561746572207460448201527f68616e20300000000000000000000000000000000000000000000000000000006064820152608401610c90565b600a839055600e829055600d8190556040518281527fc9d56ccdd6b954d8d74700db074cc667054f8e33c1b8d23e97021d4c588a87619060200160405180910390a17fa1676084a9eea08c6f205b60799323b364a1bd8e10aba89f0fbd94cfbf68b5dd600a54604051611a0c91815260200190565b60405180910390a17f58c7ececaeb4704a0039e0d22c1b618367f7a7b9a4e191ab9baed34898f63f2e600d54604051611a4791815260200190565b60405180910390a1505050565b60235460ff610100909104161515600114611acb576040517f08c379a000000000000000000000000000000000000000000000000000000000815260206004820152601c60248201527f436f6e7472616374206973206e6f7420696e206d6967726174696f6e000000006044820152606401610c90565b611ad58333611b98565b611b87576040517f08c379a000000000000000000000000000000000000000000000000000000000815260206004820152604c60248201527f6d73672e73656e6465722069732065697468657220616e20696e76616c69642060448201527f6d69677261746f72206f7220746865207374616b657220686173206e6f74206160648201527f7070726f766564207468656d0000000000000000000000000000000000000000608482015260a401610c90565b611b93833384846135b2565b505050565b73ffffffffffffffffffffffffffffffffffffffff81166000908152601f602052604081205460ff16611bcd57506000610be7565b73ffffffffffffffffffffffffffffffffffffffff80841660009081526021602090815260408083209386168352929052205460ff16151560011415611c1557506001610be7565b50600092915050565b60015473ffffffffffffffffffffffffffffffffffffffff163314611cc5576040517f08c379a000000000000000000000000000000000000000000000000000000000815260206004820152603560248201527f596f75206d757374206265206e6f6d696e61746564206265666f726520796f7560448201527f2063616e20616363657074206f776e65727368697000000000000000000000006064820152608401610c90565b6000546001546040805173ffffffffffffffffffffffffffffffffffffffff93841681529290911660208301527fb532073b38c83145e3e5135377a08bf9aab55bc0fd7c1179cd4fb995d2a5159c910160405180910390a160018054600080547fffffffffffffffffffffffff000000000000000000000000000000000000000090811673ffffffffffffffffffffffffffffffffffffffff841617909155169055565b60005473ffffffffffffffffffffffffffffffffffffffff16331480611da6575060075473ffffffffffffffffffffffffffffffffffffffff1633145b611e32576040517f08c379a000000000000000000000000000000000000000000000000000000000815260206004820152603060248201527f596f7520617265206e6f7420746865206f776e6572206f722074686520676f7660448201527f65726e616e63652074696d656c6f636b000000000000000000000000000000006064820152608401610c90565b602380547fffffffffffffffffffffffffffffffffffffffffffffffffffffff00ffffffff81166401000000009182900460ff1615909102179055565b6000611e7d4260085461445c565b905090565b60005473ffffffffffffffffffffffffffffffffffffffff16331480611ebf575060075473ffffffffffffffffffffffffffffffffffffffff1633145b611f4b576040517f08c379a000000000000000000000000000000000000000000000000000000000815260206004820152603060248201527f596f7520617265206e6f7420746865206f776e6572206f722074686520676f7660448201527f65726e616e63652074696d656c6f636b000000000000000000000000000000006064820152608401610c90565b602354610100900460ff166120055760065473ffffffffffffffffffffffffffffffffffffffff83811691161415612005576040517f08c379a000000000000000000000000000000000000000000000000000000000815260206004820152603560248201527f43616e6e6f74207769746864726177207374616b696e6720746f6b656e73207560448201527f6e6c657373206d6967726174696f6e206973206f6e00000000000000000000006064820152608401610c90565b6000546040517fa9059cbb00000000000000000000000000000000000000000000000000000000815273ffffffffffffffffffffffffffffffffffffffff9182166004820152602481018390529083169063a9059cbb90604401602060405180830381600087803b15801561207957600080fd5b505af115801561208d573d6000803e3d6000fd5b505050506040513d601f19601f820116820180604052508101906120b19190614d0e565b506040805173ffffffffffffffffffffffffffffffffffffffff84168152602081018390527f8c1256b8896378cd5044f80c202f9772b9d77dc85c8a6eb51967210b09bfaa2891015b60405180910390a15050565b73ffffffffffffffffffffffffffffffffffffffff81166000908152601c60205260408120549080612137846111d8565b73ffffffffffffffffffffffffffffffffffffffff85166000908152600f60205260408120549193509061217390600290610afd908690613539565b90506000915060005b73ffffffffffffffffffffffffffffffffffffffff86166000908152601e60205260409020548110156122cf5773ffffffffffffffffffffffffffffffffffffffff86166000908152601e60205260408120805483908110612207577f4e487b7100000000000000000000000000000000000000000000000000000000600052603260045260246000fd5b90600052602060002090600502016040518060a0016040529081600082015481526020016001820154815260200160028201548152602001600382015481526020016004820154815250509050600081608001519050428260600151116122735750670de0b6b3a76400005b6040820151600061228c86670de0b6b3a7640000613442565b905060006122a9670de0b6b3a7640000610afd6112de8786613539565b90506122b58882613539565b9750505050505080806122c790614fd1565b91505061217c565b50509193909250565b60005473ffffffffffffffffffffffffffffffffffffffff16331480612315575060075473ffffffffffffffffffffffffffffffffffffffff1633145b6123a1576040517f08c379a000000000000000000000000000000000000000000000000000000000815260206004820152603060248201527f596f7520617265206e6f7420746865206f776e6572206f722074686520676f7660448201527f65726e616e63652074696d656c6f636b000000000000000000000000000000006064820152608401610c90565b73ffffffffffffffffffffffffffffffffffffffff16600090815260226020526040902080547fffffffffffffffffffffffffffffffffffffffffffffffffffffffffffffff00811660ff90911615179055565b60005473ffffffffffffffffffffffffffffffffffffffff16331480612432575060075473ffffffffffffffffffffffffffffffffffffffff1633145b6124be576040517f08c379a000000000000000000000000000000000000000000000000000000000815260206004820152603060248201527f596f7520617265206e6f7420746865206f776e6572206f722074686520676f7660448201527f65726e616e63652074696d656c6f636b000000000000000000000000000000006064820152608401610c90565b73ffffffffffffffffffffffffffffffffffffffff81166000908152601f602052604090205460ff161561254e576040517f08c379a000000000000000000000000000000000000000000000000000000000815260206004820152601660248201527f6164647265737320616c726561647920657869737473000000000000000000006044820152606401610c90565b73ffffffffffffffffffffffffffffffffffffffff166000818152601f60209081526040822080547fffffffffffffffffffffffffffffffffffffffffffffffffffffffffffffff001660019081179091558154908101825591527fc97bfaf2f8ee708c303a06d134f5ecd8389ae0432af62dc132a24118292866bb0180547fffffffffffffffffffffffff0000000000000000000000000000000000000000169091179055565b60005473ffffffffffffffffffffffffffffffffffffffff16331480612633575060075473ffffffffffffffffffffffffffffffffffffffff1633145b6126bf576040517f08c379a000000000000000000000000000000000000000000000000000000000815260206004820152603060248201527f596f7520617265206e6f7420746865206f776e6572206f722074686520676f7660448201527f65726e616e63652074696d656c6f636b000000000000000000000000000000006064820152608401610c90565b602380547fffffffffffffffffffffffffffffffffffffffffffffffffffffffffffff00ff81166101009182900460ff1615909102179055565b60005473ffffffffffffffffffffffffffffffffffffffff16331480612736575060075473ffffffffffffffffffffffffffffffffffffffff1633145b6127c2576040517f08c379a000000000000000000000000000000000000000000000000000000000815260206004820152603060248201527f596f7520617265206e6f7420746865206f776e6572206f722074686520676f7660448201527f65726e616e63652074696d656c6f636b000000000000000000000000000000006064820152608401610c90565b6001821015612853576040517f08c379a000000000000000000000000000000000000000000000000000000000815260206004820152603660248201527f4d756c7469706c696572204d61782054696d65206d757374206265206772656160448201527f746572207468616e206f7220657175616c20746f2031000000000000000000006064820152608401610c90565b60018110156128e4576040517f08c379a000000000000000000000000000000000000000000000000000000000815260206004820152603660248201527f4d756c7469706c696572204d696e2054696d65206d757374206265206772656160448201527f746572207468616e206f7220657175616c20746f2031000000000000000000006064820152608401610c90565b600b829055600c8190556040518281527f0e3e3fae480c6f92291358a02bc83f04ee1971d5488596bffda7929d57ab470f9060200160405180910390a16040518181527f0534d208d75dfdbfacc1204745dd9b3c4c37e8cfc05eb5e8e3ae538aedb0a9fa906020016120fa565b60005473ffffffffffffffffffffffffffffffffffffffff1633148061298e575060075473ffffffffffffffffffffffffffffffffffffffff1633145b612a1a576040517f08c379a000000000000000000000000000000000000000000000000000000000815260206004820152603060248201527f596f7520617265206e6f7420746865206f776e6572206f722074686520676f7660448201527f65726e616e63652074696d656c6f636b000000000000000000000000000000006064820152608401610c90565b600780547fffffffffffffffffffffffff00000000000000000000000000000000000000001673ffffffffffffffffffffffffffffffffffffffff92909216919091179055565b60005473ffffffffffffffffffffffffffffffffffffffff16331480612a9e575060075473ffffffffffffffffffffffffffffffffffffffff1633145b612b2a576040517f08c379a000000000000000000000000000000000000000000000000000000000815260206004820152603060248201527f596f7520617265206e6f7420746865206f776e6572206f722074686520676f7660448201527f65726e616e63652074696d656c6f636b000000000000000000000000000000006064820152608401610c90565b6008541580612b3a575060085442115b612bec576040517f08c379a000000000000000000000000000000000000000000000000000000000815260206004820152605860248201527f50726576696f7573207265776172647320706572696f64206d7573742062652060448201527f636f6d706c657465206265666f7265206368616e67696e67207468652064757260648201527f6174696f6e20666f7220746865206e657720706572696f640000000000000000608482015260a401610c90565b60128190556040518181527ffb46ca5a5e06d4540d6387b930a7c978bce0db5f449ec6b3f5d07c6e1d44f2d390602001610d08565b60008060195460001480612c355750601a54155b15612c465750506013546014549091565b612c7e612c75601a54610afd670de0b6b3a76400006112a56010546112a5600954612c6f611e6f565b90613442565b60135490613539565b61111c612ca7601a54610afd670de0b6b3a76400006112a56011546112a5600954612c6f611e6f565b60145490613539565b60005473ffffffffffffffffffffffffffffffffffffffff16331480612ced575060075473ffffffffffffffffffffffffffffffffffffffff1633145b612d79576040517f08c379a000000000000000000000000000000000000000000000000000000000815260206004820152603060248201527f596f7520617265206e6f7420746865206f776e6572206f722074686520676f7660448201527f65726e616e63652074696d656c6f636b000000000000000000000000000000006064820152608401610c90565b602380547fffffffffffffffffffffffffffffffffffffffffffffffffffffffff00ffffff811663010000009182900460ff1615909102179055565b73ffffffffffffffffffffffffffffffffffffffff81166000908152601b6020526040812054610be790670de0b6b3a764000090610afd906112a5611545565b60005473ffffffffffffffffffffffffffffffffffffffff16331480612e32575060075473ffffffffffffffffffffffffffffffffffffffff1633145b612ebe576040517f08c379a000000000000000000000000000000000000000000000000000000000815260206004820152603060248201527f596f7520617265206e6f7420746865206f776e6572206f722074686520676f7660448201527f65726e616e63652074696d656c6f636b000000000000000000000000000000006064820152608401610c90565b601083905560118290558015611b9357611b936133be565b60005473ffffffffffffffffffffffffffffffffffffffff16331480612f13575060075473ffffffffffffffffffffffffffffffffffffffff1633145b612f9f576040517f08c379a000000000000000000000000000000000000000000000000000000000815260206004820152603060248201527f596f7520617265206e6f7420746865206f776e6572206f722074686520676f7660448201527f65726e616e63652074696d656c6f636b000000000000000000000000000000006064820152608401610c90565b602380547fffffffffffffffffffffffffffffffffffffffffffffffffffffffffff00ffff8116620100009182900460ff1615909102179055565b60235460ff610100909104161515600114613051576040517f08c379a000000000000000000000000000000000000000000000000000000000815260206004820152601c60248201527f436f6e7472616374206973206e6f7420696e206d6967726174696f6e000000006044820152606401610c90565b61305b8233611b98565b61310d576040517f08c379a000000000000000000000000000000000000000000000000000000000815260206004820152604c60248201527f6d73672e73656e6465722069732065697468657220616e20696e76616c69642060448201527f6d69677261746f72206f7220746865207374616b657220686173206e6f74206160648201527f7070726f766564207468656d0000000000000000000000000000000000000000608482015260a401610c90565b610e29823383613eae565b60005473ffffffffffffffffffffffffffffffffffffffff16331480613155575060075473ffffffffffffffffffffffffffffffffffffffff1633145b6131e1576040517f08c379a000000000000000000000000000000000000000000000000000000000815260206004820152603060248201527f596f7520617265206e6f7420746865206f776e6572206f722074686520676f7660448201527f65726e616e63652074696d656c6f636b000000000000000000000000000000006064820152608401610c90565b60235460ff16156131f25760006011555b602380547fffffffffffffffffffffffffffffffffffffffffffffffffffffffffffffff00811660ff90911615179055565b33600090815260216020908152604080832073ffffffffffffffffffffffffffffffffffffffff8516845290915290205460ff16156132bf576040517f08c379a000000000000000000000000000000000000000000000000000000000815260206004820152601660248201527f4164647265737320616c726561647920657869737473000000000000000000006044820152606401610c90565b73ffffffffffffffffffffffffffffffffffffffff81166000908152601f602052604090205460ff1661334e576040517f08c379a000000000000000000000000000000000000000000000000000000000815260206004820152601860248201527f496e76616c6964206d69677261746f72206164647265737300000000000000006044820152606401610c90565b33600090815260216020908152604080832073ffffffffffffffffffffffffffffffffffffffff9490941683529290522080547fffffffffffffffffffffffffffffffffffffffffffffffffffffffffffffff00166001179055565b6008544211156133bc576133bc614472565b565b6008544211156133d0576133bc614472565b6000806133db612c21565b6013829055601481905590925090506133f2611e6f565b6009555050565b600061343b83836040518060400160405280601a81526020017f536166654d6174683a206469766973696f6e206279207a65726f000000000000815250614850565b9392505050565b600061343b83836040518060400160405280601e81526020017f536166654d6174683a207375627472616374696f6e206f766572666c6f770000815250614898565b60008261349357506000610be7565b600061349f8385614f4d565b9050826134ac8583614f14565b1461343b576040517f08c379a000000000000000000000000000000000000000000000000000000000815260206004820152602160248201527f536166654d6174683a206d756c7469706c69636174696f6e206f766572666c6f60448201527f77000000000000000000000000000000000000000000000000000000000000006064820152608401610c90565b6000806135468385614efc565b90508381101561343b576040517f08c379a000000000000000000000000000000000000000000000000000000000815260206004820152601b60248201527f536166654d6174683a206164646974696f6e206f766572666c6f7700000000006044820152606401610c90565b60028054141561361e576040517f08c379a000000000000000000000000000000000000000000000000000000000815260206004820152601f60248201527f5265656e7472616e637947756172643a207265656e7472616e742063616c6c006044820152606401610c90565b6002805583600161362f82826148e3565b60235465010000000000900460ff161580156136535750602354610100900460ff16155b806136725750336000908152601f602052604090205460ff1615156001145b6136fe576040517f08c379a000000000000000000000000000000000000000000000000000000000815260206004820152602c60248201527f5374616b696e67206973207061757365642c206f72206d6967726174696f6e2060448201527f69732068617070656e696e6700000000000000000000000000000000000000006064820152608401610c90565b60008411613768576040517f08c379a000000000000000000000000000000000000000000000000000000000815260206004820152601960248201527f4d757374207374616b65206d6f7265207468616e207a65726f000000000000006044820152606401610c90565b73ffffffffffffffffffffffffffffffffffffffff861660009081526022602052604090205460ff16156137f8576040517f08c379a000000000000000000000000000000000000000000000000000000000815260206004820152601b60248201527f4164647265737320686173206265656e20677265796c697374656400000000006044820152606401610c90565b600c54831015613864576040517f08c379a000000000000000000000000000000000000000000000000000000000815260206004820152601a60248201527f4d696e696d756d207374616b652074696d65206e6f74206d65740000000000006044820152606401610c90565b600b548311156138f6576040517f08c379a000000000000000000000000000000000000000000000000000000000815260206004820152602360248201527f596f752061726520747279696e6720746f206c6f636b20666f7220746f6f206c60448201527f6f6e6700000000000000000000000000000000000000000000000000000000006064820152608401610c90565b600061390184610b94565b6040517fffffffffffffffffffffffffffffffffffffffff00000000000000000000000060608a901b16602082015242603482015260548101879052909150600090607401604080517fffffffffffffffffffffffffffffffffffffffffffffffffffffffffffffffe0818403018152828252805160209182012073ffffffffffffffffffffffffffffffffffffffff8c166000908152601e835283902060a085018452818552429285018390529284018a9052935090919060608201906139c99089613539565b8152602090810185905282546001818101855560009485529382902083516005909202019081559082015192810192909255604081015160028301556060810151600383015560800151600490910155600654613a3e9073ffffffffffffffffffffffffffffffffffffffff16883089614a06565b601954613a4b9087613539565b60195573ffffffffffffffffffffffffffffffffffffffff88166000908152601b6020526040902054613a7e9087613539565b73ffffffffffffffffffffffffffffffffffffffff89166000908152601b6020526040812091909155613ab29089906148e3565b604080518781526020810187905290810182905273ffffffffffffffffffffffffffffffffffffffff88811660608301528916907ff400e72e69ef4402819dfc57eeddc66f5eb69bf405e0e8098b1946ec1ac14a22906080015b60405180910390a250506001600255505050505050565b600080600280541415613b92576040517f08c379a000000000000000000000000000000000000000000000000000000000815260206004820152601f60248201527f5265656e7472616e637947756172643a207265656e7472616e742063616c6c006044820152606401610c90565b60028055602354640100000000900460ff1615613c0b576040517f08c379a000000000000000000000000000000000000000000000000000000000815260206004820152601c60248201527f5265776172647320636f6c6c656374696f6e20697320706175736564000000006044820152606401610c90565b836001613c1882826148e3565b73ffffffffffffffffffffffffffffffffffffffff861660009081526017602090815260408083205460189092529091205490945092508315613d785773ffffffffffffffffffffffffffffffffffffffff868116600090815260176020526040808220919091556004805491517fa9059cbb000000000000000000000000000000000000000000000000000000008152888416918101919091526024810187905291169063a9059cbb90604401602060405180830381600087803b158015613ce057600080fd5b505af1158015613cf4573d6000803e3d6000fd5b505050506040513d601f19601f82011682018060405250810190613d189190614d0e565b506004546040805186815273ffffffffffffffffffffffffffffffffffffffff9283166020820152878316818301529051918816917f1d2f2ca53af5d2f333bd32fdd45f9c52ad8ebe31414f7792912077fcb3876dff9181900360600190a25b8215613e9e5773ffffffffffffffffffffffffffffffffffffffff8681166000908152601860205260408082209190915560055490517fa9059cbb00000000000000000000000000000000000000000000000000000000815287831660048201526024810186905291169063a9059cbb90604401602060405180830381600087803b158015613e0657600080fd5b505af1158015613e1a573d6000803e3d6000fd5b505050506040513d601f19601f82011682018060405250810190613e3e9190614d0e565b506005546040805185815273ffffffffffffffffffffffffffffffffffffffff9283166020820152878316818301529051918816917f1d2f2ca53af5d2f333bd32fdd45f9c52ad8ebe31414f7792912077fcb3876dff9181900360600190a25b5050600160025590939092509050565b600280541415613f1a576040517f08c379a000000000000000000000000000000000000000000000000000000000815260206004820152601f60248201527f5265656e7472616e637947756172643a207265656e7472616e742063616c6c006044820152606401610c90565b600280556023546301000000900460ff1615613f92576040517f08c379a000000000000000000000000000000000000000000000000000000000815260206004820152601660248201527f5769746864726177616c732061726520706175736564000000000000000000006044820152606401610c90565b826001613f9f82826148e3565b613fd46040518060a0016040528060008019168152602001600081526020016000815260200160008152602001600081525090565b600060408201819052805b73ffffffffffffffffffffffffffffffffffffffff88166000908152601e60205260409020548110156141485773ffffffffffffffffffffffffffffffffffffffff88166000908152601e6020526040902080548290811061406a577f4e487b7100000000000000000000000000000000000000000000000000000000600052603260045260246000fd5b9060005260206000209060050201600001548614156141365773ffffffffffffffffffffffffffffffffffffffff88166000908152601e602052604090208054829081106140e1577f4e487b7100000000000000000000000000000000000000000000000000000000600052603260045260246000fd5b90600052602060002090600502016040518060a0016040529081600082015481526020016001820154815260200160028201548152602001600382015481526020016004820154815250509250809150614148565b8061414081614fd1565b915050613fdf565b50815185146141b3576040517f08c379a000000000000000000000000000000000000000000000000000000000815260206004820152600f60248201527f5374616b65206e6f7420666f756e6400000000000000000000000000000000006044820152606401610c90565b8160600151421015806141d3575060235462010000900460ff1615156001145b806141f25750336000908152601f602052604090205460ff1615156001145b614258576040517f08c379a000000000000000000000000000000000000000000000000000000000815260206004820152601660248201527f5374616b65206973207374696c6c206c6f636b656421000000000000000000006044820152606401610c90565b6040820151801561444d576019546142709082613442565b60195573ffffffffffffffffffffffffffffffffffffffff88166000908152601b60205260409020546142a39082613442565b73ffffffffffffffffffffffffffffffffffffffff89166000908152601b6020908152604080832093909355601e90522080548390811061430d577f4e487b7100000000000000000000000000000000000000000000000000000000600052603260045260246000fd5b6000918252602082206005909102018181556001810182905560028101829055600381018290556004018190556143459089906148e3565b6006546040517fa9059cbb00000000000000000000000000000000000000000000000000000000815273ffffffffffffffffffffffffffffffffffffffff8981166004830152602482018490529091169063a9059cbb90604401602060405180830381600087803b1580156143b957600080fd5b505af11580156143cd573d6000803e3d6000fd5b505050506040513d601f19601f820116820180604052508101906143f19190614d0e565b50604080518281526020810188905273ffffffffffffffffffffffffffffffffffffffff89811692820192909252908916907f1d9308f6b22a2754a1c622bb30889e8f8f956c83e524d039e9d65d5f052eb90890606001613b0c565b50506001600255505050505050565b600081831061446b578161343b565b5090919050565b60085442116144dd576040517f08c379a000000000000000000000000000000000000000000000000000000000815260206004820152601b60248201527f506572696f6420686173206e6f742065787069726564207965742100000000006044820152606401610c90565b60006012546144f76008544261344290919063ffffffff16565b6145019190614f14565b600480546040517f70a08231000000000000000000000000000000000000000000000000000000008152309281019290925291925060009173ffffffffffffffffffffffffffffffffffffffff16906370a082319060240160206040518083038186803b15801561457157600080fd5b505afa158015614585573d6000803e3d6000fd5b505050506040513d601f19601f820116820180604052508101906145a99190614d90565b6005546040517f70a0823100000000000000000000000000000000000000000000000000000000815230600482015291925060009173ffffffffffffffffffffffffffffffffffffffff909116906370a082319060240160206040518083038186803b15801561461857600080fd5b505afa15801561462c573d6000803e3d6000fd5b505050506040513d601f19601f820116820180604052508101906146509190614d90565b905081614670614661856001614efc565b6012546010546112a591613484565b11156146fe576040517f08c379a000000000000000000000000000000000000000000000000000000000815260206004820152602560248201527f4e6f7420656e6f7567682046585320617661696c61626c6520666f722072657760448201527f61726473210000000000000000000000000000000000000000000000000000006064820152608401610c90565b60235460ff16156147b55780614727614718856001614efc565b6012546011546112a591613484565b11156147b5576040517f08c379a000000000000000000000000000000000000000000000000000000000815260206004820152602860248201527f4e6f7420656e6f75676820746f6b656e3120617661696c61626c6520666f722060448201527f72657761726473210000000000000000000000000000000000000000000000006064820152608401610c90565b6012546147d4906147cb906112a5866001613539565b60085490613539565b6008556000806147e2612c21565b6013829055601481905590925090506147f9611e6f565b60095560065460405173ffffffffffffffffffffffffffffffffffffffff90911681527f6f2b3b3aaf1881d69a5d40565500f93ea73df36e7b6a29bf48b21479a9237fe99060200160405180910390a15050505050565b6000818361488b576040517f08c379a0000000000000000000000000000000000000000000000000000000008152600401610c909190614eab565b5060006116d38486614f14565b600081848411156148d6576040517f08c379a0000000000000000000000000000000000000000000000000000000008152600401610c909190614eab565b5060006116d38486614f8a565b80156148f1576148f16133be565b73ffffffffffffffffffffffffffffffffffffffff821615610e2957600080600061491b85612106565b92509250925061492a85614ba4565b73ffffffffffffffffffffffffffffffffffffffff85166000908152600f602052604090208290558281106149ae5760006149658285613442565b601a549091506149759082613539565b601a556149828482613539565b73ffffffffffffffffffffffffffffffffffffffff87166000908152601c6020526040902055506149ff565b60006149ba8483613442565b601a549091506149ca9082613442565b601a556149d78482613442565b73ffffffffffffffffffffffffffffffffffffffff87166000908152601c6020526040902055505b5050505050565b6040805173ffffffffffffffffffffffffffffffffffffffff85811660248301528481166044830152606480830185905283518084039091018152608490920183526020820180517bffffffffffffffffffffffffffffffffffffffffffffffffffffffff167f23b872dd000000000000000000000000000000000000000000000000000000001790529151600092839290881691614aa59190614e21565b6000604051808303816000865af19150503d8060008114614ae2576040519150601f19603f3d011682016040523d82523d6000602084013e614ae7565b606091505b5091509150818015614b11575080511580614b11575080806020019051810190614b119190614d0e565b614b9c576040517f08c379a0000000000000000000000000000000000000000000000000000000008152602060048201526024808201527f5472616e7366657248656c7065723a205452414e534645525f46524f4d5f464160448201527f494c4544000000000000000000000000000000000000000000000000000000006064820152608401610c90565b505050505050565b73ffffffffffffffffffffffffffffffffffffffff81161561144a57600080614bcc83610a33565b73ffffffffffffffffffffffffffffffffffffffff85166000908152601760209081526040808320949094556018815283822092909255601354601583528382205560145460169092529190912055505050565b803573ffffffffffffffffffffffffffffffffffffffff81168114614c4457600080fd5b919050565b80516dffffffffffffffffffffffffffff81168114614c4457600080fd5b600060208284031215614c78578081fd5b61343b82614c20565b60008060408385031215614c93578081fd5b614c9c83614c20565b9150614caa60208401614c20565b90509250929050565b60008060408385031215614cc5578182fd5b614cce83614c20565b946020939093013593505050565b600080600060608486031215614cf0578081fd5b614cf984614c20565b95602085013595506040909401359392505050565b600060208284031215614d1f578081fd5b815161343b81615039565b600060208284031215614d3b578081fd5b5035919050565b600080600060608486031215614d56578283fd5b614d5f84614c49565b9250614d6d60208501614c49565b9150604084015163ffffffff81168114614d85578182fd5b809150509250925092565b600060208284031215614da1578081fd5b5051919050565b60008060408385031215614dba578182fd5b50508035926020909101359150565b600080600060608486031215614ddd578283fd5b83359250602084013591506040840135614d8581615039565b600080600060608486031215614e0a578283fd5b505081359360208301359350604090920135919050565b60008251614e33818460208701614fa1565b9190910192915050565b602080825282518282018190526000919060409081850190868401855b82811015614e9e5781518051855286810151878601528581015186860152606080820151908601526080908101519085015260a09093019290850190600101614e5a565b5091979650505050505050565b6020815260008251806020840152614eca816040850160208701614fa1565b601f017fffffffffffffffffffffffffffffffffffffffffffffffffffffffffffffffe0169190910160400192915050565b60008219821115614f0f57614f0f61500a565b500190565b600082614f48577f4e487b710000000000000000000000000000000000000000000000000000000081526012600452602481fd5b500490565b6000817fffffffffffffffffffffffffffffffffffffffffffffffffffffffffffffffff0483118215151615614f8557614f8561500a565b500290565b600082821015614f9c57614f9c61500a565b500390565b60005b83811015614fbc578181015183820152602001614fa4565b83811115614fcb576000848401525b50505050565b60007fffffffffffffffffffffffffffffffffffffffffffffffffffffffffffffffff8214156150035761500361500a565b5060010190565b7f4e487b7100000000000000000000000000000000000000000000000000000000600052601160045260246000fd5b801515811461144a57600080fdfea2646970667358221220cdd7c0bcffced0e348cdede04d58036d21440ab27b7477dbb148e417d999631d64736f6c63430008040033",
  "linkReferences": {},
  "deployedLinkReferences": {}
}